{
	"pool.sol": {
		"Pool": {
			"abi": [
				{
					"inputs": [
						{
							"internalType": "address",
							"name": "",
							"type": "address"
						},
						{
							"internalType": "address",
							"name": "",
							"type": "address"
						}
					],
					"name": "balances",
					"outputs": [
						{
							"internalType": "uint256",
							"name": "",
							"type": "uint256"
						}
					],
					"stateMutability": "view",
					"type": "function"
				},
				{
					"inputs": [
						{
							"internalType": "address",
							"name": "tokenAddr",
							"type": "address"
						},
						{
							"internalType": "uint256",
							"name": "amount",
							"type": "uint256"
						}
					],
					"name": "deposit",
					"outputs": [],
					"stateMutability": "nonpayable",
					"type": "function"
				},
				{
					"inputs": [
						{
							"internalType": "address",
							"name": "from",
							"type": "address"
						},
						{
							"internalType": "address",
							"name": "to",
							"type": "address"
						},
						{
							"internalType": "uint256",
							"name": "amount",
							"type": "uint256"
						}
					],
					"name": "swap",
					"outputs": [],
					"stateMutability": "nonpayable",
					"type": "function"
				},
				{
					"inputs": [
						{
							"internalType": "address",
							"name": "from",
							"type": "address"
						},
						{
							"internalType": "address",
							"name": "to",
							"type": "address"
						}
					],
					"name": "swapRates",
					"outputs": [
						{
							"internalType": "uint256",
							"name": "",
							"type": "uint256"
						}
					],
					"stateMutability": "view",
					"type": "function"
				},
				{
					"inputs": [
						{
							"internalType": "address",
							"name": "tokenAddr",
							"type": "address"
						},
						{
							"internalType": "uint256",
							"name": "amount",
							"type": "uint256"
						}
					],
					"name": "withdrawal",
					"outputs": [],
					"stateMutability": "nonpayable",
					"type": "function"
				}
			],
			"devdoc": {
				"kind": "dev",
				"methods": {},
				"version": 1
			},
			"evm": {
				"assembly": "    /* \"pool.sol\":402:2688  contract Pool{... */\n  mstore(0x40, 0x80)\n  callvalue\n  dup1\n  iszero\n  tag_1\n  jumpi\n  0x00\n  dup1\n  revert\ntag_1:\n  pop\n  dataSize(sub_0)\n  dup1\n  dataOffset(sub_0)\n  0x00\n  codecopy\n  0x00\n  return\nstop\n\nsub_0: assembly {\n        /* \"pool.sol\":402:2688  contract Pool{... */\n      mstore(0x40, 0x80)\n      callvalue\n      dup1\n      iszero\n      tag_1\n      jumpi\n      0x00\n      dup1\n      revert\n    tag_1:\n      pop\n      jumpi(tag_2, lt(calldatasize, 0x04))\n      shr(0xe0, calldataload(0x00))\n      dup1\n      0x47e7ef24\n      eq\n      tag_3\n      jumpi\n      dup1\n      0x5a6b26ba\n      eq\n      tag_4\n      jumpi\n      dup1\n      0x82ce2b57\n      eq\n      tag_5\n      jumpi\n      dup1\n      0xc23f001f\n      eq\n      tag_6\n      jumpi\n      dup1\n      0xdf791e50\n      eq\n      tag_7\n      jumpi\n    tag_2:\n      0x00\n      dup1\n      revert\n        /* \"pool.sol\":489:1064  function deposit(address tokenAddr, uint amount) external{... */\n    tag_3:\n      tag_8\n      0x04\n      dup1\n      calldatasize\n      sub\n      dup2\n      add\n      swap1\n      tag_9\n      swap2\n      swap1\n      tag_10\n      jump\t// in\n    tag_9:\n      tag_11\n      jump\t// in\n    tag_8:\n      stop\n        /* \"pool.sol\":1070:1395  function withdrawal(address tokenAddr, uint amount) external{... */\n    tag_4:\n      tag_12\n      0x04\n      dup1\n      calldatasize\n      sub\n      dup2\n      add\n      swap1\n      tag_13\n      swap2\n      swap1\n      tag_10\n      jump\t// in\n    tag_13:\n      tag_14\n      jump\t// in\n    tag_12:\n      stop\n        /* \"pool.sol\":1401:1844  function swapRates(address from, address to) view public returns (uint256){... */\n    tag_5:\n      tag_15\n      0x04\n      dup1\n      calldatasize\n      sub\n      dup2\n      add\n      swap1\n      tag_16\n      swap2\n      swap1\n      tag_17\n      jump\t// in\n    tag_16:\n      tag_18\n      jump\t// in\n    tag_15:\n      mload(0x40)\n      tag_19\n      swap2\n      swap1\n      tag_20\n      jump\t// in\n    tag_19:\n      mload(0x40)\n      dup1\n      swap2\n      sub\n      swap1\n      return\n        /* \"pool.sol\":422:482  mapping(address => mapping(address => uint)) public balances */\n    tag_6:\n      tag_21\n      0x04\n      dup1\n      calldatasize\n      sub\n      dup2\n      add\n      swap1\n      tag_22\n      swap2\n      swap1\n      tag_17\n      jump\t// in\n    tag_22:\n      tag_23\n      jump\t// in\n    tag_21:\n      mload(0x40)\n      tag_24\n      swap2\n      swap1\n      tag_20\n      jump\t// in\n    tag_24:\n      mload(0x40)\n      dup1\n      swap2\n      sub\n      swap1\n      return\n        /* \"pool.sol\":1851:2686  function swap(address from, address to, uint amount ) external{... */\n    tag_7:\n      tag_25\n      0x04\n      dup1\n      calldatasize\n      sub\n      dup2\n      add\n      swap1\n      tag_26\n      swap2\n      swap1\n      tag_27\n      jump\t// in\n    tag_26:\n      tag_28\n      jump\t// in\n    tag_25:\n      stop\n        /* \"pool.sol\":489:1064  function deposit(address tokenAddr, uint amount) external{... */\n    tag_11:\n        /* \"pool.sol\":556:568  IERC20 token */\n      0x00\n        /* \"pool.sol\":578:587  tokenAddr */\n      dup3\n        /* \"pool.sol\":556:588  IERC20 token = IERC20(tokenAddr) */\n      swap1\n      pop\n        /* \"pool.sol\":637:643  amount */\n      dup2\n        /* \"pool.sol\":606:611  token */\n      dup2\n        /* \"pool.sol\":606:621  token.balanceOf */\n      0xffffffffffffffffffffffffffffffffffffffff\n      and\n      0x70a08231\n        /* \"pool.sol\":622:632  msg.sender */\n      caller\n        /* \"pool.sol\":606:633  token.balanceOf(msg.sender) */\n      mload(0x40)\n      dup3\n      0xffffffff\n      and\n      0xe0\n      shl\n      dup2\n      mstore\n      0x04\n      add\n      tag_30\n      swap2\n      swap1\n      tag_31\n      jump\t// in\n    tag_30:\n      0x20\n      mload(0x40)\n      dup1\n      dup4\n      sub\n      dup2\n      dup7\n      gas\n      staticcall\n      iszero\n      dup1\n      iszero\n      tag_33\n      jumpi\n      returndatasize\n      0x00\n      dup1\n      returndatacopy\n      revert(0x00, returndatasize)\n    tag_33:\n      pop\n      pop\n      pop\n      pop\n      mload(0x40)\n      returndatasize\n      not(0x1f)\n      0x1f\n      dup3\n      add\n      and\n      dup3\n      add\n      dup1\n      0x40\n      mstore\n      pop\n      dup2\n      add\n      swap1\n      tag_34\n      swap2\n      swap1\n      tag_35\n      jump\t// in\n    tag_34:\n        /* \"pool.sol\":606:643  token.balanceOf(msg.sender) >= amount */\n      lt\n      iszero\n        /* \"pool.sol\":598:689  require(token.balanceOf(msg.sender) >= amount, \"You don't have enough tokens to swap with\") */\n      tag_36\n      jumpi\n      mload(0x40)\n      0x08c379a000000000000000000000000000000000000000000000000000000000\n      dup2\n      mstore\n      0x04\n      add\n      tag_37\n      swap1\n      tag_38\n      jump\t// in\n    tag_37:\n      mload(0x40)\n      dup1\n      swap2\n      sub\n      swap1\n      revert\n    tag_36:\n        /* \"pool.sol\":748:754  amount */\n      dup2\n        /* \"pool.sol\":702:707  token */\n      dup2\n        /* \"pool.sol\":702:717  token.allowance */\n      0xffffffffffffffffffffffffffffffffffffffff\n      and\n      0xdd62ed3e\n        /* \"pool.sol\":718:728  msg.sender */\n      caller\n        /* \"pool.sol\":738:742  this */\n      address\n        /* \"pool.sol\":702:744  token.allowance(msg.sender, address(this)) */\n      mload(0x40)\n      dup4\n      0xffffffff\n      and\n      0xe0\n      shl\n      dup2\n      mstore\n      0x04\n      add\n      tag_39\n      swap3\n      swap2\n      swap1\n      tag_40\n      jump\t// in\n    tag_39:\n      0x20\n      mload(0x40)\n      dup1\n      dup4\n      sub\n      dup2\n      dup7\n      gas\n      staticcall\n      iszero\n      dup1\n      iszero\n      tag_42\n      jumpi\n      returndatasize\n      0x00\n      dup1\n      returndatacopy\n      revert(0x00, returndatasize)\n    tag_42:\n      pop\n      pop\n      pop\n      pop\n      mload(0x40)\n      returndatasize\n      not(0x1f)\n      0x1f\n      dup3\n      add\n      and\n      dup3\n      add\n      dup1\n      0x40\n      mstore\n      pop\n      dup2\n      add\n      swap1\n      tag_43\n      swap2\n      swap1\n      tag_35\n      jump\t// in\n    tag_43:\n        /* \"pool.sol\":702:754  token.allowance(msg.sender, address(this)) >= amount */\n      lt\n        /* \"pool.sol\":699:1058  if(token.allowance(msg.sender, address(this)) >= amount) token.transferFrom(msg.sender, address(this), amount);... */\n      tag_44\n      jumpi\n        /* \"pool.sol\":756:761  token */\n      dup1\n        /* \"pool.sol\":756:774  token.transferFrom */\n      0xffffffffffffffffffffffffffffffffffffffff\n      and\n      0x23b872dd\n        /* \"pool.sol\":775:785  msg.sender */\n      caller\n        /* \"pool.sol\":795:799  this */\n      address\n        /* \"pool.sol\":802:808  amount */\n      dup6\n        /* \"pool.sol\":756:809  token.transferFrom(msg.sender, address(this), amount) */\n      mload(0x40)\n      dup5\n      0xffffffff\n      and\n      0xe0\n      shl\n      dup2\n      mstore\n      0x04\n      add\n      tag_45\n      swap4\n      swap3\n      swap2\n      swap1\n      tag_46\n      jump\t// in\n    tag_45:\n      0x20\n      mload(0x40)\n      dup1\n      dup4\n      sub\n      dup2\n      0x00\n      dup8\n      gas\n      call\n      iszero\n      dup1\n      iszero\n      tag_48\n      jumpi\n      returndatasize\n      0x00\n      dup1\n      returndatacopy\n      revert(0x00, returndatasize)\n    tag_48:\n      pop\n      pop\n      pop\n      pop\n      mload(0x40)\n      returndatasize\n      not(0x1f)\n      0x1f\n      dup3\n      add\n      and\n      dup3\n      add\n      dup1\n      0x40\n      mstore\n      pop\n      dup2\n      add\n      swap1\n      tag_49\n      swap2\n      swap1\n      tag_50\n      jump\t// in\n    tag_49:\n      pop\n        /* \"pool.sol\":699:1058  if(token.allowance(msg.sender, address(this)) >= amount) token.transferFrom(msg.sender, address(this), amount);... */\n      jump(tag_51)\n    tag_44:\n        /* \"pool.sol\":838:843  token */\n      dup1\n        /* \"pool.sol\":838:851  token.approve */\n      0xffffffffffffffffffffffffffffffffffffffff\n      and\n      0x095ea7b3\n        /* \"pool.sol\":860:864  this */\n      address\n        /* \"pool.sol\":867:868  0 */\n      0x00\n        /* \"pool.sol\":838:869  token.approve(address(this), 0) */\n      mload(0x40)\n      dup4\n      0xffffffff\n      and\n      0xe0\n      shl\n      dup2\n      mstore\n      0x04\n      add\n      tag_52\n      swap3\n      swap2\n      swap1\n      tag_53\n      jump\t// in\n    tag_52:\n      0x20\n      mload(0x40)\n      dup1\n      dup4\n      sub\n      dup2\n      0x00\n      dup8\n      gas\n      call\n      iszero\n      dup1\n      iszero\n      tag_55\n      jumpi\n      returndatasize\n      0x00\n      dup1\n      returndatacopy\n      revert(0x00, returndatasize)\n    tag_55:\n      pop\n      pop\n      pop\n      pop\n      mload(0x40)\n      returndatasize\n      not(0x1f)\n      0x1f\n      dup3\n      add\n      and\n      dup3\n      add\n      dup1\n      0x40\n      mstore\n      pop\n      dup2\n      add\n      swap1\n      tag_56\n      swap2\n      swap1\n      tag_50\n      jump\t// in\n    tag_56:\n      pop\n        /* \"pool.sol\":883:888  token */\n      dup1\n        /* \"pool.sol\":883:896  token.approve */\n      0xffffffffffffffffffffffffffffffffffffffff\n      and\n      0x095ea7b3\n        /* \"pool.sol\":905:909  this */\n      address\n        /* \"pool.sol\":912:918  amount */\n      dup5\n        /* \"pool.sol\":883:919  token.approve(address(this), amount) */\n      mload(0x40)\n      dup4\n      0xffffffff\n      and\n      0xe0\n      shl\n      dup2\n      mstore\n      0x04\n      add\n      tag_57\n      swap3\n      swap2\n      swap1\n      tag_58\n      jump\t// in\n    tag_57:\n      0x20\n      mload(0x40)\n      dup1\n      dup4\n      sub\n      dup2\n      0x00\n      dup8\n      gas\n      call\n      iszero\n      dup1\n      iszero\n      tag_60\n      jumpi\n      returndatasize\n      0x00\n      dup1\n      returndatacopy\n      revert(0x00, returndatasize)\n    tag_60:\n      pop\n      pop\n      pop\n      pop\n      mload(0x40)\n      returndatasize\n      not(0x1f)\n      0x1f\n      dup3\n      add\n      and\n      dup3\n      add\n      dup1\n      0x40\n      mstore\n      pop\n      dup2\n      add\n      swap1\n      tag_61\n      swap2\n      swap1\n      tag_50\n      jump\t// in\n    tag_61:\n      pop\n        /* \"pool.sol\":933:938  token */\n      dup1\n        /* \"pool.sol\":933:951  token.transferFrom */\n      0xffffffffffffffffffffffffffffffffffffffff\n      and\n      0x23b872dd\n        /* \"pool.sol\":952:962  msg.sender */\n      caller\n        /* \"pool.sol\":972:976  this */\n      address\n        /* \"pool.sol\":979:985  amount */\n      dup6\n        /* \"pool.sol\":933:986  token.transferFrom(msg.sender, address(this), amount) */\n      mload(0x40)\n      dup5\n      0xffffffff\n      and\n      0xe0\n      shl\n      dup2\n      mstore\n      0x04\n      add\n      tag_62\n      swap4\n      swap3\n      swap2\n      swap1\n      tag_46\n      jump\t// in\n    tag_62:\n      0x20\n      mload(0x40)\n      dup1\n      dup4\n      sub\n      dup2\n      0x00\n      dup8\n      gas\n      call\n      iszero\n      dup1\n      iszero\n      tag_64\n      jumpi\n      returndatasize\n      0x00\n      dup1\n      returndatacopy\n      revert(0x00, returndatasize)\n    tag_64:\n      pop\n      pop\n      pop\n      pop\n      mload(0x40)\n      returndatasize\n      not(0x1f)\n      0x1f\n      dup3\n      add\n      and\n      dup3\n      add\n      dup1\n      0x40\n      mstore\n      pop\n      dup2\n      add\n      swap1\n      tag_65\n      swap2\n      swap1\n      tag_50\n      jump\t// in\n    tag_65:\n      pop\n        /* \"pool.sol\":1035:1041  amount */\n      dup2\n        /* \"pool.sol\":1000:1008  balances */\n      0x00\n        /* \"pool.sol\":1000:1020  balances[msg.sender] */\n      dup1\n        /* \"pool.sol\":1009:1019  msg.sender */\n      caller\n        /* \"pool.sol\":1000:1020  balances[msg.sender] */\n      0xffffffffffffffffffffffffffffffffffffffff\n      and\n      0xffffffffffffffffffffffffffffffffffffffff\n      and\n      dup2\n      mstore\n      0x20\n      add\n      swap1\n      dup2\n      mstore\n      0x20\n      add\n      0x00\n      keccak256\n        /* \"pool.sol\":1000:1031  balances[msg.sender][tokenAddr] */\n      0x00\n        /* \"pool.sol\":1021:1030  tokenAddr */\n      dup6\n        /* \"pool.sol\":1000:1031  balances[msg.sender][tokenAddr] */\n      0xffffffffffffffffffffffffffffffffffffffff\n      and\n      0xffffffffffffffffffffffffffffffffffffffff\n      and\n      dup2\n      mstore\n      0x20\n      add\n      swap1\n      dup2\n      mstore\n      0x20\n      add\n      0x00\n      keccak256\n      0x00\n        /* \"pool.sol\":1000:1041  balances[msg.sender][tokenAddr] += amount */\n      dup3\n      dup3\n      sload\n      tag_66\n      swap2\n      swap1\n      tag_67\n      jump\t// in\n    tag_66:\n      swap3\n      pop\n      pop\n      dup2\n      swap1\n      sstore\n      pop\n        /* \"pool.sol\":699:1058  if(token.allowance(msg.sender, address(this)) >= amount) token.transferFrom(msg.sender, address(this), amount);... */\n    tag_51:\n        /* \"pool.sol\":546:1064  {... */\n      pop\n        /* \"pool.sol\":489:1064  function deposit(address tokenAddr, uint amount) external{... */\n      pop\n      pop\n      jump\t// out\n        /* \"pool.sol\":1070:1395  function withdrawal(address tokenAddr, uint amount) external{... */\n    tag_14:\n        /* \"pool.sol\":1140:1152  IERC20 token */\n      0x00\n        /* \"pool.sol\":1162:1171  tokenAddr */\n      dup3\n        /* \"pool.sol\":1140:1172  IERC20 token = IERC20(tokenAddr) */\n      swap1\n      pop\n        /* \"pool.sol\":1221:1227  amount */\n      dup2\n        /* \"pool.sol\":1186:1194  balances */\n      0x00\n        /* \"pool.sol\":1186:1206  balances[msg.sender] */\n      dup1\n        /* \"pool.sol\":1195:1205  msg.sender */\n      caller\n        /* \"pool.sol\":1186:1206  balances[msg.sender] */\n      0xffffffffffffffffffffffffffffffffffffffff\n      and\n      0xffffffffffffffffffffffffffffffffffffffff\n      and\n      dup2\n      mstore\n      0x20\n      add\n      swap1\n      dup2\n      mstore\n      0x20\n      add\n      0x00\n      keccak256\n        /* \"pool.sol\":1186:1217  balances[msg.sender][tokenAddr] */\n      0x00\n        /* \"pool.sol\":1207:1216  tokenAddr */\n      dup6\n        /* \"pool.sol\":1186:1217  balances[msg.sender][tokenAddr] */\n      0xffffffffffffffffffffffffffffffffffffffff\n      and\n      0xffffffffffffffffffffffffffffffffffffffff\n      and\n      dup2\n      mstore\n      0x20\n      add\n      swap1\n      dup2\n      mstore\n      0x20\n      add\n      0x00\n      keccak256\n      sload\n        /* \"pool.sol\":1186:1227  balances[msg.sender][tokenAddr] >= amount */\n      lt\n      iszero\n        /* \"pool.sol\":1178:1284  require(balances[msg.sender][tokenAddr] >= amount,\"user does not have enough deposit for this withdrawal\") */\n      tag_69\n      jumpi\n      mload(0x40)\n      0x08c379a000000000000000000000000000000000000000000000000000000000\n      dup2\n      mstore\n      0x04\n      add\n      tag_70\n      swap1\n      tag_71\n      jump\t// in\n    tag_70:\n      mload(0x40)\n      dup1\n      swap2\n      sub\n      swap1\n      revert\n    tag_69:\n        /* \"pool.sol\":1303:1308  token */\n      dup1\n        /* \"pool.sol\":1303:1317  token.transfer */\n      0xffffffffffffffffffffffffffffffffffffffff\n      and\n      0xa9059cbb\n        /* \"pool.sol\":1318:1328  msg.sender */\n      caller\n        /* \"pool.sol\":1330:1336  amount */\n      dup5\n        /* \"pool.sol\":1303:1337  token.transfer(msg.sender, amount) */\n      mload(0x40)\n      dup4\n      0xffffffff\n      and\n      0xe0\n      shl\n      dup2\n      mstore\n      0x04\n      add\n      tag_72\n      swap3\n      swap2\n      swap1\n      tag_58\n      jump\t// in\n    tag_72:\n      0x20\n      mload(0x40)\n      dup1\n      dup4\n      sub\n      dup2\n      0x00\n      dup8\n      gas\n      call\n      iszero\n      dup1\n      iszero\n      tag_74\n      jumpi\n      returndatasize\n      0x00\n      dup1\n      returndatacopy\n      revert(0x00, returndatasize)\n    tag_74:\n      pop\n      pop\n      pop\n      pop\n      mload(0x40)\n      returndatasize\n      not(0x1f)\n      0x1f\n      dup3\n      add\n      and\n      dup3\n      add\n      dup1\n      0x40\n      mstore\n      pop\n      dup2\n      add\n      swap1\n      tag_75\n      swap2\n      swap1\n      tag_50\n      jump\t// in\n    tag_75:\n      pop\n        /* \"pool.sol\":1382:1388  amount */\n      dup2\n        /* \"pool.sol\":1347:1355  balances */\n      0x00\n        /* \"pool.sol\":1347:1367  balances[msg.sender] */\n      dup1\n        /* \"pool.sol\":1356:1366  msg.sender */\n      caller\n        /* \"pool.sol\":1347:1367  balances[msg.sender] */\n      0xffffffffffffffffffffffffffffffffffffffff\n      and\n      0xffffffffffffffffffffffffffffffffffffffff\n      and\n      dup2\n      mstore\n      0x20\n      add\n      swap1\n      dup2\n      mstore\n      0x20\n      add\n      0x00\n      keccak256\n        /* \"pool.sol\":1347:1378  balances[msg.sender][tokenAddr] */\n      0x00\n        /* \"pool.sol\":1368:1377  tokenAddr */\n      dup6\n        /* \"pool.sol\":1347:1378  balances[msg.sender][tokenAddr] */\n      0xffffffffffffffffffffffffffffffffffffffff\n      and\n      0xffffffffffffffffffffffffffffffffffffffff\n      and\n      dup2\n      mstore\n      0x20\n      add\n      swap1\n      dup2\n      mstore\n      0x20\n      add\n      0x00\n      keccak256\n      0x00\n        /* \"pool.sol\":1347:1388  balances[msg.sender][tokenAddr] -= amount */\n      dup3\n      dup3\n      sload\n      tag_76\n      swap2\n      swap1\n      tag_77\n      jump\t// in\n    tag_76:\n      swap3\n      pop\n      pop\n      dup2\n      swap1\n      sstore\n      pop\n        /* \"pool.sol\":1130:1395  {... */\n      pop\n        /* \"pool.sol\":1070:1395  function withdrawal(address tokenAddr, uint amount) external{... */\n      pop\n      pop\n      jump\t// out\n        /* \"pool.sol\":1401:1844  function swapRates(address from, address to) view public returns (uint256){... */\n    tag_18:\n        /* \"pool.sol\":1467:1474  uint256 */\n      0x00\n        /* \"pool.sol\":1485:1501  IERC20 fromToken */\n      dup1\n        /* \"pool.sol\":1511:1515  from */\n      dup4\n        /* \"pool.sol\":1485:1516  IERC20 fromToken = IERC20(from) */\n      swap1\n      pop\n        /* \"pool.sol\":1526:1540  IERC20 toToken */\n      0x00\n        /* \"pool.sol\":1550:1552  to */\n      dup4\n        /* \"pool.sol\":1526:1553  IERC20 toToken = IERC20(to) */\n      swap1\n      pop\n        /* \"pool.sol\":1610:1611  0 */\n      0x00\n        /* \"pool.sol\":1572:1581  fromToken */\n      dup3\n        /* \"pool.sol\":1572:1591  fromToken.balanceOf */\n      0xffffffffffffffffffffffffffffffffffffffff\n      and\n      0x70a08231\n        /* \"pool.sol\":1600:1604  this */\n      address\n        /* \"pool.sol\":1572:1606  fromToken.balanceOf(address(this)) */\n      mload(0x40)\n      dup3\n      0xffffffff\n      and\n      0xe0\n      shl\n      dup2\n      mstore\n      0x04\n      add\n      tag_79\n      swap2\n      swap1\n      tag_31\n      jump\t// in\n    tag_79:\n      0x20\n      mload(0x40)\n      dup1\n      dup4\n      sub\n      dup2\n      dup7\n      gas\n      staticcall\n      iszero\n      dup1\n      iszero\n      tag_81\n      jumpi\n      returndatasize\n      0x00\n      dup1\n      returndatacopy\n      revert(0x00, returndatasize)\n    tag_81:\n      pop\n      pop\n      pop\n      pop\n      mload(0x40)\n      returndatasize\n      not(0x1f)\n      0x1f\n      dup3\n      add\n      and\n      dup3\n      add\n      dup1\n      0x40\n      mstore\n      pop\n      dup2\n      add\n      swap1\n      tag_82\n      swap2\n      swap1\n      tag_35\n      jump\t// in\n    tag_82:\n        /* \"pool.sol\":1572:1611  fromToken.balanceOf(address(this)) != 0 */\n      sub\n        /* \"pool.sol\":1564:1654  require(fromToken.balanceOf(address(this)) != 0, \"This token does not exist on this pool\") */\n      tag_83\n      jumpi\n      mload(0x40)\n      0x08c379a000000000000000000000000000000000000000000000000000000000\n      dup2\n      mstore\n      0x04\n      add\n      tag_84\n      swap1\n      tag_85\n      jump\t// in\n    tag_84:\n      mload(0x40)\n      dup1\n      swap2\n      sub\n      swap1\n      revert\n    tag_83:\n        /* \"pool.sol\":1708:1709  0 */\n      0x00\n        /* \"pool.sol\":1672:1679  toToken */\n      dup2\n        /* \"pool.sol\":1672:1689  toToken.balanceOf */\n      0xffffffffffffffffffffffffffffffffffffffff\n      and\n      0x70a08231\n        /* \"pool.sol\":1698:1702  this */\n      address\n        /* \"pool.sol\":1672:1704  toToken.balanceOf(address(this)) */\n      mload(0x40)\n      dup3\n      0xffffffff\n      and\n      0xe0\n      shl\n      dup2\n      mstore\n      0x04\n      add\n      tag_86\n      swap2\n      swap1\n      tag_31\n      jump\t// in\n    tag_86:\n      0x20\n      mload(0x40)\n      dup1\n      dup4\n      sub\n      dup2\n      dup7\n      gas\n      staticcall\n      iszero\n      dup1\n      iszero\n      tag_88\n      jumpi\n      returndatasize\n      0x00\n      dup1\n      returndatacopy\n      revert(0x00, returndatasize)\n    tag_88:\n      pop\n      pop\n      pop\n      pop\n      mload(0x40)\n      returndatasize\n      not(0x1f)\n      0x1f\n      dup3\n      add\n      and\n      dup3\n      add\n      dup1\n      0x40\n      mstore\n      pop\n      dup2\n      add\n      swap1\n      tag_89\n      swap2\n      swap1\n      tag_35\n      jump\t// in\n    tag_89:\n        /* \"pool.sol\":1672:1709  toToken.balanceOf(address(this)) != 0 */\n      sub\n        /* \"pool.sol\":1664:1752  require(toToken.balanceOf(address(this)) != 0, \"this token does not exist on this pool\") */\n      tag_90\n      jumpi\n      mload(0x40)\n      0x08c379a000000000000000000000000000000000000000000000000000000000\n      dup2\n      mstore\n      0x04\n      add\n      tag_91\n      swap1\n      tag_92\n      jump\t// in\n    tag_91:\n      mload(0x40)\n      dup1\n      swap2\n      sub\n      swap1\n      revert\n    tag_90:\n        /* \"pool.sol\":1805:1812  toToken */\n      dup1\n        /* \"pool.sol\":1805:1822  toToken.balanceOf */\n      0xffffffffffffffffffffffffffffffffffffffff\n      and\n      0x70a08231\n        /* \"pool.sol\":1831:1835  this */\n      address\n        /* \"pool.sol\":1805:1837  toToken.balanceOf(address(this)) */\n      mload(0x40)\n      dup3\n      0xffffffff\n      and\n      0xe0\n      shl\n      dup2\n      mstore\n      0x04\n      add\n      tag_93\n      swap2\n      swap1\n      tag_31\n      jump\t// in\n    tag_93:\n      0x20\n      mload(0x40)\n      dup1\n      dup4\n      sub\n      dup2\n      dup7\n      gas\n      staticcall\n      iszero\n      dup1\n      iszero\n      tag_95\n      jumpi\n      returndatasize\n      0x00\n      dup1\n      returndatacopy\n      revert(0x00, returndatasize)\n    tag_95:\n      pop\n      pop\n      pop\n      pop\n      mload(0x40)\n      returndatasize\n      not(0x1f)\n      0x1f\n      dup3\n      add\n      and\n      dup3\n      add\n      dup1\n      0x40\n      mstore\n      pop\n      dup2\n      add\n      swap1\n      tag_96\n      swap2\n      swap1\n      tag_35\n      jump\t// in\n    tag_96:\n        /* \"pool.sol\":1770:1779  fromToken */\n      dup3\n        /* \"pool.sol\":1770:1789  fromToken.balanceOf */\n      0xffffffffffffffffffffffffffffffffffffffff\n      and\n      0x70a08231\n        /* \"pool.sol\":1798:1802  this */\n      address\n        /* \"pool.sol\":1770:1804  fromToken.balanceOf(address(this)) */\n      mload(0x40)\n      dup3\n      0xffffffff\n      and\n      0xe0\n      shl\n      dup2\n      mstore\n      0x04\n      add\n      tag_97\n      swap2\n      swap1\n      tag_31\n      jump\t// in\n    tag_97:\n      0x20\n      mload(0x40)\n      dup1\n      dup4\n      sub\n      dup2\n      dup7\n      gas\n      staticcall\n      iszero\n      dup1\n      iszero\n      tag_99\n      jumpi\n      returndatasize\n      0x00\n      dup1\n      returndatacopy\n      revert(0x00, returndatasize)\n    tag_99:\n      pop\n      pop\n      pop\n      pop\n      mload(0x40)\n      returndatasize\n      not(0x1f)\n      0x1f\n      dup3\n      add\n      and\n      dup3\n      add\n      dup1\n      0x40\n      mstore\n      pop\n      dup2\n      add\n      swap1\n      tag_100\n      swap2\n      swap1\n      tag_35\n      jump\t// in\n    tag_100:\n        /* \"pool.sol\":1770:1837  fromToken.balanceOf(address(this))/toToken.balanceOf(address(this)) */\n      tag_101\n      swap2\n      swap1\n      tag_102\n      jump\t// in\n    tag_101:\n        /* \"pool.sol\":1763:1837  return fromToken.balanceOf(address(this))/toToken.balanceOf(address(this)) */\n      swap3\n      pop\n      pop\n      pop\n        /* \"pool.sol\":1401:1844  function swapRates(address from, address to) view public returns (uint256){... */\n      swap3\n      swap2\n      pop\n      pop\n      jump\t// out\n        /* \"pool.sol\":422:482  mapping(address => mapping(address => uint)) public balances */\n    tag_23:\n      mstore(0x20, 0x00)\n      dup2\n      0x00\n      mstore\n      mstore(0x20, keccak256(0x00, 0x40))\n      dup1\n      0x00\n      mstore\n      keccak256(0x00, 0x40)\n      0x00\n      swap2\n      pop\n      swap2\n      pop\n      pop\n      sload\n      dup2\n      jump\t// out\n        /* \"pool.sol\":1851:2686  function swap(address from, address to, uint amount ) external{... */\n    tag_28:\n        /* \"pool.sol\":1923:1939  IERC20 fromToken */\n      0x00\n        /* \"pool.sol\":1949:1953  from */\n      dup4\n        /* \"pool.sol\":1923:1954  IERC20 fromToken = IERC20(from) */\n      swap1\n      pop\n        /* \"pool.sol\":1964:1978  IERC20 toToken */\n      0x00\n        /* \"pool.sol\":1988:1990  to */\n      dup4\n        /* \"pool.sol\":1964:1991  IERC20 toToken = IERC20(to) */\n      swap1\n      pop\n        /* \"pool.sol\":2001:2014  uint256 rates */\n      0x00\n        /* \"pool.sol\":2017:2036  swapRates(from, to) */\n      tag_104\n        /* \"pool.sol\":2027:2031  from */\n      dup7\n        /* \"pool.sol\":2033:2035  to */\n      dup7\n        /* \"pool.sol\":2017:2026  swapRates */\n      tag_18\n        /* \"pool.sol\":2017:2036  swapRates(from, to) */\n      jump\t// in\n    tag_104:\n        /* \"pool.sol\":2001:2036  uint256 rates = swapRates(from, to) */\n      swap1\n      pop\n        /* \"pool.sol\":2091:2092  0 */\n      0x00\n        /* \"pool.sol\":2055:2062  toToken */\n      dup3\n        /* \"pool.sol\":2055:2072  toToken.balanceOf */\n      0xffffffffffffffffffffffffffffffffffffffff\n      and\n      0x70a08231\n        /* \"pool.sol\":2081:2085  this */\n      address\n        /* \"pool.sol\":2055:2087  toToken.balanceOf(address(this)) */\n      mload(0x40)\n      dup3\n      0xffffffff\n      and\n      0xe0\n      shl\n      dup2\n      mstore\n      0x04\n      add\n      tag_105\n      swap2\n      swap1\n      tag_31\n      jump\t// in\n    tag_105:\n      0x20\n      mload(0x40)\n      dup1\n      dup4\n      sub\n      dup2\n      dup7\n      gas\n      staticcall\n      iszero\n      dup1\n      iszero\n      tag_107\n      jumpi\n      returndatasize\n      0x00\n      dup1\n      returndatacopy\n      revert(0x00, returndatasize)\n    tag_107:\n      pop\n      pop\n      pop\n      pop\n      mload(0x40)\n      returndatasize\n      not(0x1f)\n      0x1f\n      dup3\n      add\n      and\n      dup3\n      add\n      dup1\n      0x40\n      mstore\n      pop\n      dup2\n      add\n      swap1\n      tag_108\n      swap2\n      swap1\n      tag_35\n      jump\t// in\n    tag_108:\n        /* \"pool.sol\":2055:2092  toToken.balanceOf(address(this)) != 0 */\n      sub\n        /* \"pool.sol\":2047:2135  require(toToken.balanceOf(address(this)) != 0, \"this token does not exist on this pool\") */\n      tag_109\n      jumpi\n      mload(0x40)\n      0x08c379a000000000000000000000000000000000000000000000000000000000\n      dup2\n      mstore\n      0x04\n      add\n      tag_110\n      swap1\n      tag_92\n      jump\t// in\n    tag_110:\n      mload(0x40)\n      dup1\n      swap2\n      sub\n      swap1\n      revert\n    tag_109:\n        /* \"pool.sol\":2188:2194  amount */\n      dup4\n        /* \"pool.sol\":2153:2162  fromToken */\n      dup4\n        /* \"pool.sol\":2153:2172  fromToken.balanceOf */\n      0xffffffffffffffffffffffffffffffffffffffff\n      and\n      0x70a08231\n        /* \"pool.sol\":2173:2183  msg.sender */\n      caller\n        /* \"pool.sol\":2153:2184  fromToken.balanceOf(msg.sender) */\n      mload(0x40)\n      dup3\n      0xffffffff\n      and\n      0xe0\n      shl\n      dup2\n      mstore\n      0x04\n      add\n      tag_111\n      swap2\n      swap1\n      tag_31\n      jump\t// in\n    tag_111:\n      0x20\n      mload(0x40)\n      dup1\n      dup4\n      sub\n      dup2\n      dup7\n      gas\n      staticcall\n      iszero\n      dup1\n      iszero\n      tag_113\n      jumpi\n      returndatasize\n      0x00\n      dup1\n      returndatacopy\n      revert(0x00, returndatasize)\n    tag_113:\n      pop\n      pop\n      pop\n      pop\n      mload(0x40)\n      returndatasize\n      not(0x1f)\n      0x1f\n      dup3\n      add\n      and\n      dup3\n      add\n      dup1\n      0x40\n      mstore\n      pop\n      dup2\n      add\n      swap1\n      tag_114\n      swap2\n      swap1\n      tag_35\n      jump\t// in\n    tag_114:\n        /* \"pool.sol\":2153:2194  fromToken.balanceOf(msg.sender) >= amount */\n      lt\n      iszero\n        /* \"pool.sol\":2145:2245  require(fromToken.balanceOf(msg.sender) >= amount, \"User does not have enough for this transaction\") */\n      tag_115\n      jumpi\n      mload(0x40)\n      0x08c379a000000000000000000000000000000000000000000000000000000000\n      dup2\n      mstore\n      0x04\n      add\n      tag_116\n      swap1\n      tag_117\n      jump\t// in\n    tag_116:\n      mload(0x40)\n      dup1\n      swap2\n      sub\n      swap1\n      revert\n    tag_115:\n        /* \"pool.sol\":2309:2315  amount */\n      dup4\n        /* \"pool.sol\":2259:2268  fromToken */\n      dup4\n        /* \"pool.sol\":2259:2278  fromToken.allowance */\n      0xffffffffffffffffffffffffffffffffffffffff\n      and\n      0xdd62ed3e\n        /* \"pool.sol\":2279:2289  msg.sender */\n      caller\n        /* \"pool.sol\":2299:2303  this */\n      address\n        /* \"pool.sol\":2259:2305  fromToken.allowance(msg.sender, address(this)) */\n      mload(0x40)\n      dup4\n      0xffffffff\n      and\n      0xe0\n      shl\n      dup2\n      mstore\n      0x04\n      add\n      tag_118\n      swap3\n      swap2\n      swap1\n      tag_40\n      jump\t// in\n    tag_118:\n      0x20\n      mload(0x40)\n      dup1\n      dup4\n      sub\n      dup2\n      dup7\n      gas\n      staticcall\n      iszero\n      dup1\n      iszero\n      tag_120\n      jumpi\n      returndatasize\n      0x00\n      dup1\n      returndatacopy\n      revert(0x00, returndatasize)\n    tag_120:\n      pop\n      pop\n      pop\n      pop\n      mload(0x40)\n      returndatasize\n      not(0x1f)\n      0x1f\n      dup3\n      add\n      and\n      dup3\n      add\n      dup1\n      0x40\n      mstore\n      pop\n      dup2\n      add\n      swap1\n      tag_121\n      swap2\n      swap1\n      tag_35\n      jump\t// in\n    tag_121:\n        /* \"pool.sol\":2259:2315  fromToken.allowance(msg.sender, address(this)) >= amount */\n      lt\n        /* \"pool.sol\":2256:2679  if(fromToken.allowance(msg.sender, address(this)) >= amount) {... */\n      tag_122\n      jumpi\n        /* \"pool.sol\":2331:2340  fromToken */\n      dup3\n        /* \"pool.sol\":2331:2353  fromToken.transferFrom */\n      0xffffffffffffffffffffffffffffffffffffffff\n      and\n      0x23b872dd\n        /* \"pool.sol\":2354:2364  msg.sender */\n      caller\n        /* \"pool.sol\":2374:2378  this */\n      address\n        /* \"pool.sol\":2381:2387  amount */\n      dup8\n        /* \"pool.sol\":2331:2388  fromToken.transferFrom(msg.sender, address(this), amount) */\n      mload(0x40)\n      dup5\n      0xffffffff\n      and\n      0xe0\n      shl\n      dup2\n      mstore\n      0x04\n      add\n      tag_123\n      swap4\n      swap3\n      swap2\n      swap1\n      tag_46\n      jump\t// in\n    tag_123:\n      0x20\n      mload(0x40)\n      dup1\n      dup4\n      sub\n      dup2\n      0x00\n      dup8\n      gas\n      call\n      iszero\n      dup1\n      iszero\n      tag_125\n      jumpi\n      returndatasize\n      0x00\n      dup1\n      returndatacopy\n      revert(0x00, returndatasize)\n    tag_125:\n      pop\n      pop\n      pop\n      pop\n      mload(0x40)\n      returndatasize\n      not(0x1f)\n      0x1f\n      dup3\n      add\n      and\n      dup3\n      add\n      dup1\n      0x40\n      mstore\n      pop\n      dup2\n      add\n      swap1\n      tag_126\n      swap2\n      swap1\n      tag_50\n      jump\t// in\n    tag_126:\n      pop\n        /* \"pool.sol\":2402:2409  toToken */\n      dup2\n        /* \"pool.sol\":2402:2422  toToken.transferFrom */\n      0xffffffffffffffffffffffffffffffffffffffff\n      and\n      0x23b872dd\n        /* \"pool.sol\":2431:2435  this */\n      address\n        /* \"pool.sol\":2438:2448  msg.sender */\n      caller\n        /* \"pool.sol\":2457:2462  rates */\n      dup5\n        /* \"pool.sol\":2450:2456  amount */\n      dup9\n        /* \"pool.sol\":2450:2462  amount*rates */\n      tag_127\n      swap2\n      swap1\n      tag_128\n      jump\t// in\n    tag_127:\n        /* \"pool.sol\":2402:2463  toToken.transferFrom(address(this), msg.sender, amount*rates) */\n      mload(0x40)\n      dup5\n      0xffffffff\n      and\n      0xe0\n      shl\n      dup2\n      mstore\n      0x04\n      add\n      tag_129\n      swap4\n      swap3\n      swap2\n      swap1\n      tag_46\n      jump\t// in\n    tag_129:\n      0x20\n      mload(0x40)\n      dup1\n      dup4\n      sub\n      dup2\n      0x00\n      dup8\n      gas\n      call\n      iszero\n      dup1\n      iszero\n      tag_131\n      jumpi\n      returndatasize\n      0x00\n      dup1\n      returndatacopy\n      revert(0x00, returndatasize)\n    tag_131:\n      pop\n      pop\n      pop\n      pop\n      mload(0x40)\n      returndatasize\n      not(0x1f)\n      0x1f\n      dup3\n      add\n      and\n      dup3\n      add\n      dup1\n      0x40\n      mstore\n      pop\n      dup2\n      add\n      swap1\n      tag_132\n      swap2\n      swap1\n      tag_50\n      jump\t// in\n    tag_132:\n      pop\n        /* \"pool.sol\":2256:2679  if(fromToken.allowance(msg.sender, address(this)) >= amount) {... */\n      jump(tag_133)\n    tag_122:\n        /* \"pool.sol\":2506:2515  fromToken */\n      dup3\n        /* \"pool.sol\":2506:2523  fromToken.approve */\n      0xffffffffffffffffffffffffffffffffffffffff\n      and\n      0x095ea7b3\n        /* \"pool.sol\":2532:2536  this */\n      address\n        /* \"pool.sol\":2539:2540  0 */\n      0x00\n        /* \"pool.sol\":2506:2541  fromToken.approve(address(this), 0) */\n      mload(0x40)\n      dup4\n      0xffffffff\n      and\n      0xe0\n      shl\n      dup2\n      mstore\n      0x04\n      add\n      tag_134\n      swap3\n      swap2\n      swap1\n      tag_53\n      jump\t// in\n    tag_134:\n      0x20\n      mload(0x40)\n      dup1\n      dup4\n      sub\n      dup2\n      0x00\n      dup8\n      gas\n      call\n      iszero\n      dup1\n      iszero\n      tag_136\n      jumpi\n      returndatasize\n      0x00\n      dup1\n      returndatacopy\n      revert(0x00, returndatasize)\n    tag_136:\n      pop\n      pop\n      pop\n      pop\n      mload(0x40)\n      returndatasize\n      not(0x1f)\n      0x1f\n      dup3\n      add\n      and\n      dup3\n      add\n      dup1\n      0x40\n      mstore\n      pop\n      dup2\n      add\n      swap1\n      tag_137\n      swap2\n      swap1\n      tag_50\n      jump\t// in\n    tag_137:\n      pop\n        /* \"pool.sol\":2555:2564  fromToken */\n      dup3\n        /* \"pool.sol\":2555:2572  fromToken.approve */\n      0xffffffffffffffffffffffffffffffffffffffff\n      and\n      0x095ea7b3\n        /* \"pool.sol\":2581:2585  this */\n      address\n        /* \"pool.sol\":2588:2594  amount */\n      dup7\n        /* \"pool.sol\":2555:2595  fromToken.approve(address(this), amount) */\n      mload(0x40)\n      dup4\n      0xffffffff\n      and\n      0xe0\n      shl\n      dup2\n      mstore\n      0x04\n      add\n      tag_138\n      swap3\n      swap2\n      swap1\n      tag_58\n      jump\t// in\n    tag_138:\n      0x20\n      mload(0x40)\n      dup1\n      dup4\n      sub\n      dup2\n      0x00\n      dup8\n      gas\n      call\n      iszero\n      dup1\n      iszero\n      tag_140\n      jumpi\n      returndatasize\n      0x00\n      dup1\n      returndatacopy\n      revert(0x00, returndatasize)\n    tag_140:\n      pop\n      pop\n      pop\n      pop\n      mload(0x40)\n      returndatasize\n      not(0x1f)\n      0x1f\n      dup3\n      add\n      and\n      dup3\n      add\n      dup1\n      0x40\n      mstore\n      pop\n      dup2\n      add\n      swap1\n      tag_141\n      swap2\n      swap1\n      tag_50\n      jump\t// in\n    tag_141:\n      pop\n        /* \"pool.sol\":2608:2617  fromToken */\n      dup3\n        /* \"pool.sol\":2608:2630  fromToken.transferFrom */\n      0xffffffffffffffffffffffffffffffffffffffff\n      and\n      0x23b872dd\n        /* \"pool.sol\":2631:2641  msg.sender */\n      caller\n        /* \"pool.sol\":2651:2655  this */\n      address\n        /* \"pool.sol\":2658:2664  amount */\n      dup8\n        /* \"pool.sol\":2608:2665  fromToken.transferFrom(msg.sender, address(this), amount) */\n      mload(0x40)\n      dup5\n      0xffffffff\n      and\n      0xe0\n      shl\n      dup2\n      mstore\n      0x04\n      add\n      tag_142\n      swap4\n      swap3\n      swap2\n      swap1\n      tag_46\n      jump\t// in\n    tag_142:\n      0x20\n      mload(0x40)\n      dup1\n      dup4\n      sub\n      dup2\n      0x00\n      dup8\n      gas\n      call\n      iszero\n      dup1\n      iszero\n      tag_144\n      jumpi\n      returndatasize\n      0x00\n      dup1\n      returndatacopy\n      revert(0x00, returndatasize)\n    tag_144:\n      pop\n      pop\n      pop\n      pop\n      mload(0x40)\n      returndatasize\n      not(0x1f)\n      0x1f\n      dup3\n      add\n      and\n      dup3\n      add\n      dup1\n      0x40\n      mstore\n      pop\n      dup2\n      add\n      swap1\n      tag_145\n      swap2\n      swap1\n      tag_50\n      jump\t// in\n    tag_145:\n      pop\n        /* \"pool.sol\":2256:2679  if(fromToken.allowance(msg.sender, address(this)) >= amount) {... */\n    tag_133:\n        /* \"pool.sol\":1913:2686  {... */\n      pop\n      pop\n      pop\n        /* \"pool.sol\":1851:2686  function swap(address from, address to, uint amount ) external{... */\n      pop\n      pop\n      pop\n      jump\t// out\n        /* \"#utility.yul\":88:205   */\n    tag_147:\n        /* \"#utility.yul\":197:198   */\n      0x00\n        /* \"#utility.yul\":194:195   */\n      dup1\n        /* \"#utility.yul\":187:199   */\n      revert\n        /* \"#utility.yul\":334:460   */\n    tag_149:\n        /* \"#utility.yul\":371:378   */\n      0x00\n        /* \"#utility.yul\":411:453   */\n      0xffffffffffffffffffffffffffffffffffffffff\n        /* \"#utility.yul\":404:409   */\n      dup3\n        /* \"#utility.yul\":400:454   */\n      and\n        /* \"#utility.yul\":389:454   */\n      swap1\n      pop\n        /* \"#utility.yul\":334:460   */\n      swap2\n      swap1\n      pop\n      jump\t// out\n        /* \"#utility.yul\":466:562   */\n    tag_150:\n        /* \"#utility.yul\":503:510   */\n      0x00\n        /* \"#utility.yul\":532:556   */\n      tag_185\n        /* \"#utility.yul\":550:555   */\n      dup3\n        /* \"#utility.yul\":532:556   */\n      tag_149\n      jump\t// in\n    tag_185:\n        /* \"#utility.yul\":521:556   */\n      swap1\n      pop\n        /* \"#utility.yul\":466:562   */\n      swap2\n      swap1\n      pop\n      jump\t// out\n        /* \"#utility.yul\":568:690   */\n    tag_151:\n        /* \"#utility.yul\":641:665   */\n      tag_187\n        /* \"#utility.yul\":659:664   */\n      dup2\n        /* \"#utility.yul\":641:665   */\n      tag_150\n      jump\t// in\n    tag_187:\n        /* \"#utility.yul\":634:639   */\n      dup2\n        /* \"#utility.yul\":631:666   */\n      eq\n        /* \"#utility.yul\":621:684   */\n      tag_188\n      jumpi\n        /* \"#utility.yul\":680:681   */\n      0x00\n        /* \"#utility.yul\":677:678   */\n      dup1\n        /* \"#utility.yul\":670:682   */\n      revert\n        /* \"#utility.yul\":621:684   */\n    tag_188:\n        /* \"#utility.yul\":568:690   */\n      pop\n      jump\t// out\n        /* \"#utility.yul\":696:835   */\n    tag_152:\n        /* \"#utility.yul\":742:747   */\n      0x00\n        /* \"#utility.yul\":780:786   */\n      dup2\n        /* \"#utility.yul\":767:787   */\n      calldataload\n        /* \"#utility.yul\":758:787   */\n      swap1\n      pop\n        /* \"#utility.yul\":796:829   */\n      tag_190\n        /* \"#utility.yul\":823:828   */\n      dup2\n        /* \"#utility.yul\":796:829   */\n      tag_151\n      jump\t// in\n    tag_190:\n        /* \"#utility.yul\":696:835   */\n      swap3\n      swap2\n      pop\n      pop\n      jump\t// out\n        /* \"#utility.yul\":841:918   */\n    tag_153:\n        /* \"#utility.yul\":878:885   */\n      0x00\n        /* \"#utility.yul\":907:912   */\n      dup2\n        /* \"#utility.yul\":896:912   */\n      swap1\n      pop\n        /* \"#utility.yul\":841:918   */\n      swap2\n      swap1\n      pop\n      jump\t// out\n        /* \"#utility.yul\":924:1046   */\n    tag_154:\n        /* \"#utility.yul\":997:1021   */\n      tag_193\n        /* \"#utility.yul\":1015:1020   */\n      dup2\n        /* \"#utility.yul\":997:1021   */\n      tag_153\n      jump\t// in\n    tag_193:\n        /* \"#utility.yul\":990:995   */\n      dup2\n        /* \"#utility.yul\":987:1022   */\n      eq\n        /* \"#utility.yul\":977:1040   */\n      tag_194\n      jumpi\n        /* \"#utility.yul\":1036:1037   */\n      0x00\n        /* \"#utility.yul\":1033:1034   */\n      dup1\n        /* \"#utility.yul\":1026:1038   */\n      revert\n        /* \"#utility.yul\":977:1040   */\n    tag_194:\n        /* \"#utility.yul\":924:1046   */\n      pop\n      jump\t// out\n        /* \"#utility.yul\":1052:1191   */\n    tag_155:\n        /* \"#utility.yul\":1098:1103   */\n      0x00\n        /* \"#utility.yul\":1136:1142   */\n      dup2\n        /* \"#utility.yul\":1123:1143   */\n      calldataload\n        /* \"#utility.yul\":1114:1143   */\n      swap1\n      pop\n        /* \"#utility.yul\":1152:1185   */\n      tag_196\n        /* \"#utility.yul\":1179:1184   */\n      dup2\n        /* \"#utility.yul\":1152:1185   */\n      tag_154\n      jump\t// in\n    tag_196:\n        /* \"#utility.yul\":1052:1191   */\n      swap3\n      swap2\n      pop\n      pop\n      jump\t// out\n        /* \"#utility.yul\":1197:1671   */\n    tag_10:\n        /* \"#utility.yul\":1265:1271   */\n      0x00\n        /* \"#utility.yul\":1273:1279   */\n      dup1\n        /* \"#utility.yul\":1322:1324   */\n      0x40\n        /* \"#utility.yul\":1310:1319   */\n      dup4\n        /* \"#utility.yul\":1301:1308   */\n      dup6\n        /* \"#utility.yul\":1297:1320   */\n      sub\n        /* \"#utility.yul\":1293:1325   */\n      slt\n        /* \"#utility.yul\":1290:1409   */\n      iszero\n      tag_198\n      jumpi\n        /* \"#utility.yul\":1328:1407   */\n      tag_199\n      tag_147\n      jump\t// in\n    tag_199:\n        /* \"#utility.yul\":1290:1409   */\n    tag_198:\n        /* \"#utility.yul\":1448:1449   */\n      0x00\n        /* \"#utility.yul\":1473:1526   */\n      tag_200\n        /* \"#utility.yul\":1518:1525   */\n      dup6\n        /* \"#utility.yul\":1509:1515   */\n      dup3\n        /* \"#utility.yul\":1498:1507   */\n      dup7\n        /* \"#utility.yul\":1494:1516   */\n      add\n        /* \"#utility.yul\":1473:1526   */\n      tag_152\n      jump\t// in\n    tag_200:\n        /* \"#utility.yul\":1463:1526   */\n      swap3\n      pop\n        /* \"#utility.yul\":1419:1536   */\n      pop\n        /* \"#utility.yul\":1575:1577   */\n      0x20\n        /* \"#utility.yul\":1601:1654   */\n      tag_201\n        /* \"#utility.yul\":1646:1653   */\n      dup6\n        /* \"#utility.yul\":1637:1643   */\n      dup3\n        /* \"#utility.yul\":1626:1635   */\n      dup7\n        /* \"#utility.yul\":1622:1644   */\n      add\n        /* \"#utility.yul\":1601:1654   */\n      tag_155\n      jump\t// in\n    tag_201:\n        /* \"#utility.yul\":1591:1654   */\n      swap2\n      pop\n        /* \"#utility.yul\":1546:1664   */\n      pop\n        /* \"#utility.yul\":1197:1671   */\n      swap3\n      pop\n      swap3\n      swap1\n      pop\n      jump\t// out\n        /* \"#utility.yul\":1677:2151   */\n    tag_17:\n        /* \"#utility.yul\":1745:1751   */\n      0x00\n        /* \"#utility.yul\":1753:1759   */\n      dup1\n        /* \"#utility.yul\":1802:1804   */\n      0x40\n        /* \"#utility.yul\":1790:1799   */\n      dup4\n        /* \"#utility.yul\":1781:1788   */\n      dup6\n        /* \"#utility.yul\":1777:1800   */\n      sub\n        /* \"#utility.yul\":1773:1805   */\n      slt\n        /* \"#utility.yul\":1770:1889   */\n      iszero\n      tag_203\n      jumpi\n        /* \"#utility.yul\":1808:1887   */\n      tag_204\n      tag_147\n      jump\t// in\n    tag_204:\n        /* \"#utility.yul\":1770:1889   */\n    tag_203:\n        /* \"#utility.yul\":1928:1929   */\n      0x00\n        /* \"#utility.yul\":1953:2006   */\n      tag_205\n        /* \"#utility.yul\":1998:2005   */\n      dup6\n        /* \"#utility.yul\":1989:1995   */\n      dup3\n        /* \"#utility.yul\":1978:1987   */\n      dup7\n        /* \"#utility.yul\":1974:1996   */\n      add\n        /* \"#utility.yul\":1953:2006   */\n      tag_152\n      jump\t// in\n    tag_205:\n        /* \"#utility.yul\":1943:2006   */\n      swap3\n      pop\n        /* \"#utility.yul\":1899:2016   */\n      pop\n        /* \"#utility.yul\":2055:2057   */\n      0x20\n        /* \"#utility.yul\":2081:2134   */\n      tag_206\n        /* \"#utility.yul\":2126:2133   */\n      dup6\n        /* \"#utility.yul\":2117:2123   */\n      dup3\n        /* \"#utility.yul\":2106:2115   */\n      dup7\n        /* \"#utility.yul\":2102:2124   */\n      add\n        /* \"#utility.yul\":2081:2134   */\n      tag_152\n      jump\t// in\n    tag_206:\n        /* \"#utility.yul\":2071:2134   */\n      swap2\n      pop\n        /* \"#utility.yul\":2026:2144   */\n      pop\n        /* \"#utility.yul\":1677:2151   */\n      swap3\n      pop\n      swap3\n      swap1\n      pop\n      jump\t// out\n        /* \"#utility.yul\":2157:2275   */\n    tag_156:\n        /* \"#utility.yul\":2244:2268   */\n      tag_208\n        /* \"#utility.yul\":2262:2267   */\n      dup2\n        /* \"#utility.yul\":2244:2268   */\n      tag_153\n      jump\t// in\n    tag_208:\n        /* \"#utility.yul\":2239:2242   */\n      dup3\n        /* \"#utility.yul\":2232:2269   */\n      mstore\n        /* \"#utility.yul\":2157:2275   */\n      pop\n      pop\n      jump\t// out\n        /* \"#utility.yul\":2281:2503   */\n    tag_20:\n        /* \"#utility.yul\":2374:2378   */\n      0x00\n        /* \"#utility.yul\":2412:2414   */\n      0x20\n        /* \"#utility.yul\":2401:2410   */\n      dup3\n        /* \"#utility.yul\":2397:2415   */\n      add\n        /* \"#utility.yul\":2389:2415   */\n      swap1\n      pop\n        /* \"#utility.yul\":2425:2496   */\n      tag_210\n        /* \"#utility.yul\":2493:2494   */\n      0x00\n        /* \"#utility.yul\":2482:2491   */\n      dup4\n        /* \"#utility.yul\":2478:2495   */\n      add\n        /* \"#utility.yul\":2469:2475   */\n      dup5\n        /* \"#utility.yul\":2425:2496   */\n      tag_156\n      jump\t// in\n    tag_210:\n        /* \"#utility.yul\":2281:2503   */\n      swap3\n      swap2\n      pop\n      pop\n      jump\t// out\n        /* \"#utility.yul\":2509:3128   */\n    tag_27:\n        /* \"#utility.yul\":2586:2592   */\n      0x00\n        /* \"#utility.yul\":2594:2600   */\n      dup1\n        /* \"#utility.yul\":2602:2608   */\n      0x00\n        /* \"#utility.yul\":2651:2653   */\n      0x60\n        /* \"#utility.yul\":2639:2648   */\n      dup5\n        /* \"#utility.yul\":2630:2637   */\n      dup7\n        /* \"#utility.yul\":2626:2649   */\n      sub\n        /* \"#utility.yul\":2622:2654   */\n      slt\n        /* \"#utility.yul\":2619:2738   */\n      iszero\n      tag_212\n      jumpi\n        /* \"#utility.yul\":2657:2736   */\n      tag_213\n      tag_147\n      jump\t// in\n    tag_213:\n        /* \"#utility.yul\":2619:2738   */\n    tag_212:\n        /* \"#utility.yul\":2777:2778   */\n      0x00\n        /* \"#utility.yul\":2802:2855   */\n      tag_214\n        /* \"#utility.yul\":2847:2854   */\n      dup7\n        /* \"#utility.yul\":2838:2844   */\n      dup3\n        /* \"#utility.yul\":2827:2836   */\n      dup8\n        /* \"#utility.yul\":2823:2845   */\n      add\n        /* \"#utility.yul\":2802:2855   */\n      tag_152\n      jump\t// in\n    tag_214:\n        /* \"#utility.yul\":2792:2855   */\n      swap4\n      pop\n        /* \"#utility.yul\":2748:2865   */\n      pop\n        /* \"#utility.yul\":2904:2906   */\n      0x20\n        /* \"#utility.yul\":2930:2983   */\n      tag_215\n        /* \"#utility.yul\":2975:2982   */\n      dup7\n        /* \"#utility.yul\":2966:2972   */\n      dup3\n        /* \"#utility.yul\":2955:2964   */\n      dup8\n        /* \"#utility.yul\":2951:2973   */\n      add\n        /* \"#utility.yul\":2930:2983   */\n      tag_152\n      jump\t// in\n    tag_215:\n        /* \"#utility.yul\":2920:2983   */\n      swap3\n      pop\n        /* \"#utility.yul\":2875:2993   */\n      pop\n        /* \"#utility.yul\":3032:3034   */\n      0x40\n        /* \"#utility.yul\":3058:3111   */\n      tag_216\n        /* \"#utility.yul\":3103:3110   */\n      dup7\n        /* \"#utility.yul\":3094:3100   */\n      dup3\n        /* \"#utility.yul\":3083:3092   */\n      dup8\n        /* \"#utility.yul\":3079:3101   */\n      add\n        /* \"#utility.yul\":3058:3111   */\n      tag_155\n      jump\t// in\n    tag_216:\n        /* \"#utility.yul\":3048:3111   */\n      swap2\n      pop\n        /* \"#utility.yul\":3003:3121   */\n      pop\n        /* \"#utility.yul\":2509:3128   */\n      swap3\n      pop\n      swap3\n      pop\n      swap3\n      jump\t// out\n        /* \"#utility.yul\":3134:3252   */\n    tag_157:\n        /* \"#utility.yul\":3221:3245   */\n      tag_218\n        /* \"#utility.yul\":3239:3244   */\n      dup2\n        /* \"#utility.yul\":3221:3245   */\n      tag_150\n      jump\t// in\n    tag_218:\n        /* \"#utility.yul\":3216:3219   */\n      dup3\n        /* \"#utility.yul\":3209:3246   */\n      mstore\n        /* \"#utility.yul\":3134:3252   */\n      pop\n      pop\n      jump\t// out\n        /* \"#utility.yul\":3258:3480   */\n    tag_31:\n        /* \"#utility.yul\":3351:3355   */\n      0x00\n        /* \"#utility.yul\":3389:3391   */\n      0x20\n        /* \"#utility.yul\":3378:3387   */\n      dup3\n        /* \"#utility.yul\":3374:3392   */\n      add\n        /* \"#utility.yul\":3366:3392   */\n      swap1\n      pop\n        /* \"#utility.yul\":3402:3473   */\n      tag_220\n        /* \"#utility.yul\":3470:3471   */\n      0x00\n        /* \"#utility.yul\":3459:3468   */\n      dup4\n        /* \"#utility.yul\":3455:3472   */\n      add\n        /* \"#utility.yul\":3446:3452   */\n      dup5\n        /* \"#utility.yul\":3402:3473   */\n      tag_157\n      jump\t// in\n    tag_220:\n        /* \"#utility.yul\":3258:3480   */\n      swap3\n      swap2\n      pop\n      pop\n      jump\t// out\n        /* \"#utility.yul\":3486:3629   */\n    tag_158:\n        /* \"#utility.yul\":3543:3548   */\n      0x00\n        /* \"#utility.yul\":3574:3580   */\n      dup2\n        /* \"#utility.yul\":3568:3581   */\n      mload\n        /* \"#utility.yul\":3559:3581   */\n      swap1\n      pop\n        /* \"#utility.yul\":3590:3623   */\n      tag_222\n        /* \"#utility.yul\":3617:3622   */\n      dup2\n        /* \"#utility.yul\":3590:3623   */\n      tag_154\n      jump\t// in\n    tag_222:\n        /* \"#utility.yul\":3486:3629   */\n      swap3\n      swap2\n      pop\n      pop\n      jump\t// out\n        /* \"#utility.yul\":3635:3986   */\n    tag_35:\n        /* \"#utility.yul\":3705:3711   */\n      0x00\n        /* \"#utility.yul\":3754:3756   */\n      0x20\n        /* \"#utility.yul\":3742:3751   */\n      dup3\n        /* \"#utility.yul\":3733:3740   */\n      dup5\n        /* \"#utility.yul\":3729:3752   */\n      sub\n        /* \"#utility.yul\":3725:3757   */\n      slt\n        /* \"#utility.yul\":3722:3841   */\n      iszero\n      tag_224\n      jumpi\n        /* \"#utility.yul\":3760:3839   */\n      tag_225\n      tag_147\n      jump\t// in\n    tag_225:\n        /* \"#utility.yul\":3722:3841   */\n    tag_224:\n        /* \"#utility.yul\":3880:3881   */\n      0x00\n        /* \"#utility.yul\":3905:3969   */\n      tag_226\n        /* \"#utility.yul\":3961:3968   */\n      dup5\n        /* \"#utility.yul\":3952:3958   */\n      dup3\n        /* \"#utility.yul\":3941:3950   */\n      dup6\n        /* \"#utility.yul\":3937:3959   */\n      add\n        /* \"#utility.yul\":3905:3969   */\n      tag_158\n      jump\t// in\n    tag_226:\n        /* \"#utility.yul\":3895:3969   */\n      swap2\n      pop\n        /* \"#utility.yul\":3851:3979   */\n      pop\n        /* \"#utility.yul\":3635:3986   */\n      swap3\n      swap2\n      pop\n      pop\n      jump\t// out\n        /* \"#utility.yul\":3992:4161   */\n    tag_159:\n        /* \"#utility.yul\":4076:4087   */\n      0x00\n        /* \"#utility.yul\":4110:4116   */\n      dup3\n        /* \"#utility.yul\":4105:4108   */\n      dup3\n        /* \"#utility.yul\":4098:4117   */\n      mstore\n        /* \"#utility.yul\":4150:4154   */\n      0x20\n        /* \"#utility.yul\":4145:4148   */\n      dup3\n        /* \"#utility.yul\":4141:4155   */\n      add\n        /* \"#utility.yul\":4126:4155   */\n      swap1\n      pop\n        /* \"#utility.yul\":3992:4161   */\n      swap3\n      swap2\n      pop\n      pop\n      jump\t// out\n        /* \"#utility.yul\":4167:4395   */\n    tag_160:\n        /* \"#utility.yul\":4307:4341   */\n      0x596f7520646f6e2774206861766520656e6f75676820746f6b656e7320746f20\n        /* \"#utility.yul\":4303:4304   */\n      0x00\n        /* \"#utility.yul\":4295:4301   */\n      dup3\n        /* \"#utility.yul\":4291:4305   */\n      add\n        /* \"#utility.yul\":4284:4342   */\n      mstore\n        /* \"#utility.yul\":4376:4387   */\n      0x7377617020776974680000000000000000000000000000000000000000000000\n        /* \"#utility.yul\":4371:4373   */\n      0x20\n        /* \"#utility.yul\":4363:4369   */\n      dup3\n        /* \"#utility.yul\":4359:4374   */\n      add\n        /* \"#utility.yul\":4352:4388   */\n      mstore\n        /* \"#utility.yul\":4167:4395   */\n      pop\n      jump\t// out\n        /* \"#utility.yul\":4401:4767   */\n    tag_161:\n        /* \"#utility.yul\":4543:4546   */\n      0x00\n        /* \"#utility.yul\":4564:4631   */\n      tag_230\n        /* \"#utility.yul\":4628:4630   */\n      0x29\n        /* \"#utility.yul\":4623:4626   */\n      dup4\n        /* \"#utility.yul\":4564:4631   */\n      tag_159\n      jump\t// in\n    tag_230:\n        /* \"#utility.yul\":4557:4631   */\n      swap2\n      pop\n        /* \"#utility.yul\":4640:4733   */\n      tag_231\n        /* \"#utility.yul\":4729:4732   */\n      dup3\n        /* \"#utility.yul\":4640:4733   */\n      tag_160\n      jump\t// in\n    tag_231:\n        /* \"#utility.yul\":4758:4760   */\n      0x40\n        /* \"#utility.yul\":4753:4756   */\n      dup3\n        /* \"#utility.yul\":4749:4761   */\n      add\n        /* \"#utility.yul\":4742:4761   */\n      swap1\n      pop\n        /* \"#utility.yul\":4401:4767   */\n      swap2\n      swap1\n      pop\n      jump\t// out\n        /* \"#utility.yul\":4773:5192   */\n    tag_38:\n        /* \"#utility.yul\":4939:4943   */\n      0x00\n        /* \"#utility.yul\":4977:4979   */\n      0x20\n        /* \"#utility.yul\":4966:4975   */\n      dup3\n        /* \"#utility.yul\":4962:4980   */\n      add\n        /* \"#utility.yul\":4954:4980   */\n      swap1\n      pop\n        /* \"#utility.yul\":5026:5035   */\n      dup2\n        /* \"#utility.yul\":5020:5024   */\n      dup2\n        /* \"#utility.yul\":5016:5036   */\n      sub\n        /* \"#utility.yul\":5012:5013   */\n      0x00\n        /* \"#utility.yul\":5001:5010   */\n      dup4\n        /* \"#utility.yul\":4997:5014   */\n      add\n        /* \"#utility.yul\":4990:5037   */\n      mstore\n        /* \"#utility.yul\":5054:5185   */\n      tag_233\n        /* \"#utility.yul\":5180:5184   */\n      dup2\n        /* \"#utility.yul\":5054:5185   */\n      tag_161\n      jump\t// in\n    tag_233:\n        /* \"#utility.yul\":5046:5185   */\n      swap1\n      pop\n        /* \"#utility.yul\":4773:5192   */\n      swap2\n      swap1\n      pop\n      jump\t// out\n        /* \"#utility.yul\":5198:5530   */\n    tag_40:\n        /* \"#utility.yul\":5319:5323   */\n      0x00\n        /* \"#utility.yul\":5357:5359   */\n      0x40\n        /* \"#utility.yul\":5346:5355   */\n      dup3\n        /* \"#utility.yul\":5342:5360   */\n      add\n        /* \"#utility.yul\":5334:5360   */\n      swap1\n      pop\n        /* \"#utility.yul\":5370:5441   */\n      tag_235\n        /* \"#utility.yul\":5438:5439   */\n      0x00\n        /* \"#utility.yul\":5427:5436   */\n      dup4\n        /* \"#utility.yul\":5423:5440   */\n      add\n        /* \"#utility.yul\":5414:5420   */\n      dup6\n        /* \"#utility.yul\":5370:5441   */\n      tag_157\n      jump\t// in\n    tag_235:\n        /* \"#utility.yul\":5451:5523   */\n      tag_236\n        /* \"#utility.yul\":5519:5521   */\n      0x20\n        /* \"#utility.yul\":5508:5517   */\n      dup4\n        /* \"#utility.yul\":5504:5522   */\n      add\n        /* \"#utility.yul\":5495:5501   */\n      dup5\n        /* \"#utility.yul\":5451:5523   */\n      tag_157\n      jump\t// in\n    tag_236:\n        /* \"#utility.yul\":5198:5530   */\n      swap4\n      swap3\n      pop\n      pop\n      pop\n      jump\t// out\n        /* \"#utility.yul\":5536:5978   */\n    tag_46:\n        /* \"#utility.yul\":5685:5689   */\n      0x00\n        /* \"#utility.yul\":5723:5725   */\n      0x60\n        /* \"#utility.yul\":5712:5721   */\n      dup3\n        /* \"#utility.yul\":5708:5726   */\n      add\n        /* \"#utility.yul\":5700:5726   */\n      swap1\n      pop\n        /* \"#utility.yul\":5736:5807   */\n      tag_238\n        /* \"#utility.yul\":5804:5805   */\n      0x00\n        /* \"#utility.yul\":5793:5802   */\n      dup4\n        /* \"#utility.yul\":5789:5806   */\n      add\n        /* \"#utility.yul\":5780:5786   */\n      dup7\n        /* \"#utility.yul\":5736:5807   */\n      tag_157\n      jump\t// in\n    tag_238:\n        /* \"#utility.yul\":5817:5889   */\n      tag_239\n        /* \"#utility.yul\":5885:5887   */\n      0x20\n        /* \"#utility.yul\":5874:5883   */\n      dup4\n        /* \"#utility.yul\":5870:5888   */\n      add\n        /* \"#utility.yul\":5861:5867   */\n      dup6\n        /* \"#utility.yul\":5817:5889   */\n      tag_157\n      jump\t// in\n    tag_239:\n        /* \"#utility.yul\":5899:5971   */\n      tag_240\n        /* \"#utility.yul\":5967:5969   */\n      0x40\n        /* \"#utility.yul\":5956:5965   */\n      dup4\n        /* \"#utility.yul\":5952:5970   */\n      add\n        /* \"#utility.yul\":5943:5949   */\n      dup5\n        /* \"#utility.yul\":5899:5971   */\n      tag_156\n      jump\t// in\n    tag_240:\n        /* \"#utility.yul\":5536:5978   */\n      swap5\n      swap4\n      pop\n      pop\n      pop\n      pop\n      jump\t// out\n        /* \"#utility.yul\":5984:6074   */\n    tag_162:\n        /* \"#utility.yul\":6018:6025   */\n      0x00\n        /* \"#utility.yul\":6061:6066   */\n      dup2\n        /* \"#utility.yul\":6054:6067   */\n      iszero\n        /* \"#utility.yul\":6047:6068   */\n      iszero\n        /* \"#utility.yul\":6036:6068   */\n      swap1\n      pop\n        /* \"#utility.yul\":5984:6074   */\n      swap2\n      swap1\n      pop\n      jump\t// out\n        /* \"#utility.yul\":6080:6196   */\n    tag_163:\n        /* \"#utility.yul\":6150:6171   */\n      tag_243\n        /* \"#utility.yul\":6165:6170   */\n      dup2\n        /* \"#utility.yul\":6150:6171   */\n      tag_162\n      jump\t// in\n    tag_243:\n        /* \"#utility.yul\":6143:6148   */\n      dup2\n        /* \"#utility.yul\":6140:6172   */\n      eq\n        /* \"#utility.yul\":6130:6190   */\n      tag_244\n      jumpi\n        /* \"#utility.yul\":6186:6187   */\n      0x00\n        /* \"#utility.yul\":6183:6184   */\n      dup1\n        /* \"#utility.yul\":6176:6188   */\n      revert\n        /* \"#utility.yul\":6130:6190   */\n    tag_244:\n        /* \"#utility.yul\":6080:6196   */\n      pop\n      jump\t// out\n        /* \"#utility.yul\":6202:6339   */\n    tag_164:\n        /* \"#utility.yul\":6256:6261   */\n      0x00\n        /* \"#utility.yul\":6287:6293   */\n      dup2\n        /* \"#utility.yul\":6281:6294   */\n      mload\n        /* \"#utility.yul\":6272:6294   */\n      swap1\n      pop\n        /* \"#utility.yul\":6303:6333   */\n      tag_246\n        /* \"#utility.yul\":6327:6332   */\n      dup2\n        /* \"#utility.yul\":6303:6333   */\n      tag_163\n      jump\t// in\n    tag_246:\n        /* \"#utility.yul\":6202:6339   */\n      swap3\n      swap2\n      pop\n      pop\n      jump\t// out\n        /* \"#utility.yul\":6345:6690   */\n    tag_50:\n        /* \"#utility.yul\":6412:6418   */\n      0x00\n        /* \"#utility.yul\":6461:6463   */\n      0x20\n        /* \"#utility.yul\":6449:6458   */\n      dup3\n        /* \"#utility.yul\":6440:6447   */\n      dup5\n        /* \"#utility.yul\":6436:6459   */\n      sub\n        /* \"#utility.yul\":6432:6464   */\n      slt\n        /* \"#utility.yul\":6429:6548   */\n      iszero\n      tag_248\n      jumpi\n        /* \"#utility.yul\":6467:6546   */\n      tag_249\n      tag_147\n      jump\t// in\n    tag_249:\n        /* \"#utility.yul\":6429:6548   */\n    tag_248:\n        /* \"#utility.yul\":6587:6588   */\n      0x00\n        /* \"#utility.yul\":6612:6673   */\n      tag_250\n        /* \"#utility.yul\":6665:6672   */\n      dup5\n        /* \"#utility.yul\":6656:6662   */\n      dup3\n        /* \"#utility.yul\":6645:6654   */\n      dup6\n        /* \"#utility.yul\":6641:6663   */\n      add\n        /* \"#utility.yul\":6612:6673   */\n      tag_164\n      jump\t// in\n    tag_250:\n        /* \"#utility.yul\":6602:6673   */\n      swap2\n      pop\n        /* \"#utility.yul\":6558:6683   */\n      pop\n        /* \"#utility.yul\":6345:6690   */\n      swap3\n      swap2\n      pop\n      pop\n      jump\t// out\n        /* \"#utility.yul\":6696:6781   */\n    tag_165:\n        /* \"#utility.yul\":6741:6748   */\n      0x00\n        /* \"#utility.yul\":6770:6775   */\n      dup2\n        /* \"#utility.yul\":6759:6775   */\n      swap1\n      pop\n        /* \"#utility.yul\":6696:6781   */\n      swap2\n      swap1\n      pop\n      jump\t// out\n        /* \"#utility.yul\":6787:6847   */\n    tag_166:\n        /* \"#utility.yul\":6815:6818   */\n      0x00\n        /* \"#utility.yul\":6836:6841   */\n      dup2\n        /* \"#utility.yul\":6829:6841   */\n      swap1\n      pop\n        /* \"#utility.yul\":6787:6847   */\n      swap2\n      swap1\n      pop\n      jump\t// out\n        /* \"#utility.yul\":6853:7011   */\n    tag_167:\n        /* \"#utility.yul\":6911:6920   */\n      0x00\n        /* \"#utility.yul\":6944:7005   */\n      tag_254\n        /* \"#utility.yul\":6962:7004   */\n      tag_255\n        /* \"#utility.yul\":6971:7003   */\n      tag_256\n        /* \"#utility.yul\":6997:7002   */\n      dup5\n        /* \"#utility.yul\":6971:7003   */\n      tag_165\n      jump\t// in\n    tag_256:\n        /* \"#utility.yul\":6962:7004   */\n      tag_166\n      jump\t// in\n    tag_255:\n        /* \"#utility.yul\":6944:7005   */\n      tag_153\n      jump\t// in\n    tag_254:\n        /* \"#utility.yul\":6931:7005   */\n      swap1\n      pop\n        /* \"#utility.yul\":6853:7011   */\n      swap2\n      swap1\n      pop\n      jump\t// out\n        /* \"#utility.yul\":7017:7164   */\n    tag_168:\n        /* \"#utility.yul\":7112:7157   */\n      tag_258\n        /* \"#utility.yul\":7151:7156   */\n      dup2\n        /* \"#utility.yul\":7112:7157   */\n      tag_167\n      jump\t// in\n    tag_258:\n        /* \"#utility.yul\":7107:7110   */\n      dup3\n        /* \"#utility.yul\":7100:7158   */\n      mstore\n        /* \"#utility.yul\":7017:7164   */\n      pop\n      pop\n      jump\t// out\n        /* \"#utility.yul\":7170:7518   */\n    tag_53:\n        /* \"#utility.yul\":7299:7303   */\n      0x00\n        /* \"#utility.yul\":7337:7339   */\n      0x40\n        /* \"#utility.yul\":7326:7335   */\n      dup3\n        /* \"#utility.yul\":7322:7340   */\n      add\n        /* \"#utility.yul\":7314:7340   */\n      swap1\n      pop\n        /* \"#utility.yul\":7350:7421   */\n      tag_260\n        /* \"#utility.yul\":7418:7419   */\n      0x00\n        /* \"#utility.yul\":7407:7416   */\n      dup4\n        /* \"#utility.yul\":7403:7420   */\n      add\n        /* \"#utility.yul\":7394:7400   */\n      dup6\n        /* \"#utility.yul\":7350:7421   */\n      tag_157\n      jump\t// in\n    tag_260:\n        /* \"#utility.yul\":7431:7511   */\n      tag_261\n        /* \"#utility.yul\":7507:7509   */\n      0x20\n        /* \"#utility.yul\":7496:7505   */\n      dup4\n        /* \"#utility.yul\":7492:7510   */\n      add\n        /* \"#utility.yul\":7483:7489   */\n      dup5\n        /* \"#utility.yul\":7431:7511   */\n      tag_168\n      jump\t// in\n    tag_261:\n        /* \"#utility.yul\":7170:7518   */\n      swap4\n      swap3\n      pop\n      pop\n      pop\n      jump\t// out\n        /* \"#utility.yul\":7524:7856   */\n    tag_58:\n        /* \"#utility.yul\":7645:7649   */\n      0x00\n        /* \"#utility.yul\":7683:7685   */\n      0x40\n        /* \"#utility.yul\":7672:7681   */\n      dup3\n        /* \"#utility.yul\":7668:7686   */\n      add\n        /* \"#utility.yul\":7660:7686   */\n      swap1\n      pop\n        /* \"#utility.yul\":7696:7767   */\n      tag_263\n        /* \"#utility.yul\":7764:7765   */\n      0x00\n        /* \"#utility.yul\":7753:7762   */\n      dup4\n        /* \"#utility.yul\":7749:7766   */\n      add\n        /* \"#utility.yul\":7740:7746   */\n      dup6\n        /* \"#utility.yul\":7696:7767   */\n      tag_157\n      jump\t// in\n    tag_263:\n        /* \"#utility.yul\":7777:7849   */\n      tag_264\n        /* \"#utility.yul\":7845:7847   */\n      0x20\n        /* \"#utility.yul\":7834:7843   */\n      dup4\n        /* \"#utility.yul\":7830:7848   */\n      add\n        /* \"#utility.yul\":7821:7827   */\n      dup5\n        /* \"#utility.yul\":7777:7849   */\n      tag_156\n      jump\t// in\n    tag_264:\n        /* \"#utility.yul\":7524:7856   */\n      swap4\n      swap3\n      pop\n      pop\n      pop\n      jump\t// out\n        /* \"#utility.yul\":7862:8042   */\n    tag_169:\n        /* \"#utility.yul\":7910:7987   */\n      0x4e487b7100000000000000000000000000000000000000000000000000000000\n        /* \"#utility.yul\":7907:7908   */\n      0x00\n        /* \"#utility.yul\":7900:7988   */\n      mstore\n        /* \"#utility.yul\":8007:8011   */\n      0x11\n        /* \"#utility.yul\":8004:8005   */\n      0x04\n        /* \"#utility.yul\":7997:8012   */\n      mstore\n        /* \"#utility.yul\":8031:8035   */\n      0x24\n        /* \"#utility.yul\":8028:8029   */\n      0x00\n        /* \"#utility.yul\":8021:8036   */\n      revert\n        /* \"#utility.yul\":8048:8239   */\n    tag_67:\n        /* \"#utility.yul\":8088:8091   */\n      0x00\n        /* \"#utility.yul\":8107:8127   */\n      tag_267\n        /* \"#utility.yul\":8125:8126   */\n      dup3\n        /* \"#utility.yul\":8107:8127   */\n      tag_153\n      jump\t// in\n    tag_267:\n        /* \"#utility.yul\":8102:8127   */\n      swap2\n      pop\n        /* \"#utility.yul\":8141:8161   */\n      tag_268\n        /* \"#utility.yul\":8159:8160   */\n      dup4\n        /* \"#utility.yul\":8141:8161   */\n      tag_153\n      jump\t// in\n    tag_268:\n        /* \"#utility.yul\":8136:8161   */\n      swap3\n      pop\n        /* \"#utility.yul\":8184:8185   */\n      dup3\n        /* \"#utility.yul\":8181:8182   */\n      dup3\n        /* \"#utility.yul\":8177:8186   */\n      add\n        /* \"#utility.yul\":8170:8186   */\n      swap1\n      pop\n        /* \"#utility.yul\":8205:8208   */\n      dup1\n        /* \"#utility.yul\":8202:8203   */\n      dup3\n        /* \"#utility.yul\":8199:8209   */\n      gt\n        /* \"#utility.yul\":8196:8232   */\n      iszero\n      tag_269\n      jumpi\n        /* \"#utility.yul\":8212:8230   */\n      tag_270\n      tag_169\n      jump\t// in\n    tag_270:\n        /* \"#utility.yul\":8196:8232   */\n    tag_269:\n        /* \"#utility.yul\":8048:8239   */\n      swap3\n      swap2\n      pop\n      pop\n      jump\t// out\n        /* \"#utility.yul\":8245:8485   */\n    tag_170:\n        /* \"#utility.yul\":8385:8419   */\n      0x7573657220646f6573206e6f74206861766520656e6f756768206465706f7369\n        /* \"#utility.yul\":8381:8382   */\n      0x00\n        /* \"#utility.yul\":8373:8379   */\n      dup3\n        /* \"#utility.yul\":8369:8383   */\n      add\n        /* \"#utility.yul\":8362:8420   */\n      mstore\n        /* \"#utility.yul\":8454:8477   */\n      0x7420666f722074686973207769746864726177616c0000000000000000000000\n        /* \"#utility.yul\":8449:8451   */\n      0x20\n        /* \"#utility.yul\":8441:8447   */\n      dup3\n        /* \"#utility.yul\":8437:8452   */\n      add\n        /* \"#utility.yul\":8430:8478   */\n      mstore\n        /* \"#utility.yul\":8245:8485   */\n      pop\n      jump\t// out\n        /* \"#utility.yul\":8491:8857   */\n    tag_171:\n        /* \"#utility.yul\":8633:8636   */\n      0x00\n        /* \"#utility.yul\":8654:8721   */\n      tag_273\n        /* \"#utility.yul\":8718:8720   */\n      0x35\n        /* \"#utility.yul\":8713:8716   */\n      dup4\n        /* \"#utility.yul\":8654:8721   */\n      tag_159\n      jump\t// in\n    tag_273:\n        /* \"#utility.yul\":8647:8721   */\n      swap2\n      pop\n        /* \"#utility.yul\":8730:8823   */\n      tag_274\n        /* \"#utility.yul\":8819:8822   */\n      dup3\n        /* \"#utility.yul\":8730:8823   */\n      tag_170\n      jump\t// in\n    tag_274:\n        /* \"#utility.yul\":8848:8850   */\n      0x40\n        /* \"#utility.yul\":8843:8846   */\n      dup3\n        /* \"#utility.yul\":8839:8851   */\n      add\n        /* \"#utility.yul\":8832:8851   */\n      swap1\n      pop\n        /* \"#utility.yul\":8491:8857   */\n      swap2\n      swap1\n      pop\n      jump\t// out\n        /* \"#utility.yul\":8863:9282   */\n    tag_71:\n        /* \"#utility.yul\":9029:9033   */\n      0x00\n        /* \"#utility.yul\":9067:9069   */\n      0x20\n        /* \"#utility.yul\":9056:9065   */\n      dup3\n        /* \"#utility.yul\":9052:9070   */\n      add\n        /* \"#utility.yul\":9044:9070   */\n      swap1\n      pop\n        /* \"#utility.yul\":9116:9125   */\n      dup2\n        /* \"#utility.yul\":9110:9114   */\n      dup2\n        /* \"#utility.yul\":9106:9126   */\n      sub\n        /* \"#utility.yul\":9102:9103   */\n      0x00\n        /* \"#utility.yul\":9091:9100   */\n      dup4\n        /* \"#utility.yul\":9087:9104   */\n      add\n        /* \"#utility.yul\":9080:9127   */\n      mstore\n        /* \"#utility.yul\":9144:9275   */\n      tag_276\n        /* \"#utility.yul\":9270:9274   */\n      dup2\n        /* \"#utility.yul\":9144:9275   */\n      tag_171\n      jump\t// in\n    tag_276:\n        /* \"#utility.yul\":9136:9275   */\n      swap1\n      pop\n        /* \"#utility.yul\":8863:9282   */\n      swap2\n      swap1\n      pop\n      jump\t// out\n        /* \"#utility.yul\":9288:9482   */\n    tag_77:\n        /* \"#utility.yul\":9328:9332   */\n      0x00\n        /* \"#utility.yul\":9348:9368   */\n      tag_278\n        /* \"#utility.yul\":9366:9367   */\n      dup3\n        /* \"#utility.yul\":9348:9368   */\n      tag_153\n      jump\t// in\n    tag_278:\n        /* \"#utility.yul\":9343:9368   */\n      swap2\n      pop\n        /* \"#utility.yul\":9382:9402   */\n      tag_279\n        /* \"#utility.yul\":9400:9401   */\n      dup4\n        /* \"#utility.yul\":9382:9402   */\n      tag_153\n      jump\t// in\n    tag_279:\n        /* \"#utility.yul\":9377:9402   */\n      swap3\n      pop\n        /* \"#utility.yul\":9426:9427   */\n      dup3\n        /* \"#utility.yul\":9423:9424   */\n      dup3\n        /* \"#utility.yul\":9419:9428   */\n      sub\n        /* \"#utility.yul\":9411:9428   */\n      swap1\n      pop\n        /* \"#utility.yul\":9450:9451   */\n      dup2\n        /* \"#utility.yul\":9444:9448   */\n      dup2\n        /* \"#utility.yul\":9441:9452   */\n      gt\n        /* \"#utility.yul\":9438:9475   */\n      iszero\n      tag_280\n      jumpi\n        /* \"#utility.yul\":9455:9473   */\n      tag_281\n      tag_169\n      jump\t// in\n    tag_281:\n        /* \"#utility.yul\":9438:9475   */\n    tag_280:\n        /* \"#utility.yul\":9288:9482   */\n      swap3\n      swap2\n      pop\n      pop\n      jump\t// out\n        /* \"#utility.yul\":9488:9713   */\n    tag_172:\n        /* \"#utility.yul\":9628:9662   */\n      0x5468697320746f6b656e20646f6573206e6f74206578697374206f6e20746869\n        /* \"#utility.yul\":9624:9625   */\n      0x00\n        /* \"#utility.yul\":9616:9622   */\n      dup3\n        /* \"#utility.yul\":9612:9626   */\n      add\n        /* \"#utility.yul\":9605:9663   */\n      mstore\n        /* \"#utility.yul\":9697:9705   */\n      0x7320706f6f6c0000000000000000000000000000000000000000000000000000\n        /* \"#utility.yul\":9692:9694   */\n      0x20\n        /* \"#utility.yul\":9684:9690   */\n      dup3\n        /* \"#utility.yul\":9680:9695   */\n      add\n        /* \"#utility.yul\":9673:9706   */\n      mstore\n        /* \"#utility.yul\":9488:9713   */\n      pop\n      jump\t// out\n        /* \"#utility.yul\":9719:10085   */\n    tag_173:\n        /* \"#utility.yul\":9861:9864   */\n      0x00\n        /* \"#utility.yul\":9882:9949   */\n      tag_284\n        /* \"#utility.yul\":9946:9948   */\n      0x26\n        /* \"#utility.yul\":9941:9944   */\n      dup4\n        /* \"#utility.yul\":9882:9949   */\n      tag_159\n      jump\t// in\n    tag_284:\n        /* \"#utility.yul\":9875:9949   */\n      swap2\n      pop\n        /* \"#utility.yul\":9958:10051   */\n      tag_285\n        /* \"#utility.yul\":10047:10050   */\n      dup3\n        /* \"#utility.yul\":9958:10051   */\n      tag_172\n      jump\t// in\n    tag_285:\n        /* \"#utility.yul\":10076:10078   */\n      0x40\n        /* \"#utility.yul\":10071:10074   */\n      dup3\n        /* \"#utility.yul\":10067:10079   */\n      add\n        /* \"#utility.yul\":10060:10079   */\n      swap1\n      pop\n        /* \"#utility.yul\":9719:10085   */\n      swap2\n      swap1\n      pop\n      jump\t// out\n        /* \"#utility.yul\":10091:10510   */\n    tag_85:\n        /* \"#utility.yul\":10257:10261   */\n      0x00\n        /* \"#utility.yul\":10295:10297   */\n      0x20\n        /* \"#utility.yul\":10284:10293   */\n      dup3\n        /* \"#utility.yul\":10280:10298   */\n      add\n        /* \"#utility.yul\":10272:10298   */\n      swap1\n      pop\n        /* \"#utility.yul\":10344:10353   */\n      dup2\n        /* \"#utility.yul\":10338:10342   */\n      dup2\n        /* \"#utility.yul\":10334:10354   */\n      sub\n        /* \"#utility.yul\":10330:10331   */\n      0x00\n        /* \"#utility.yul\":10319:10328   */\n      dup4\n        /* \"#utility.yul\":10315:10332   */\n      add\n        /* \"#utility.yul\":10308:10355   */\n      mstore\n        /* \"#utility.yul\":10372:10503   */\n      tag_287\n        /* \"#utility.yul\":10498:10502   */\n      dup2\n        /* \"#utility.yul\":10372:10503   */\n      tag_173\n      jump\t// in\n    tag_287:\n        /* \"#utility.yul\":10364:10503   */\n      swap1\n      pop\n        /* \"#utility.yul\":10091:10510   */\n      swap2\n      swap1\n      pop\n      jump\t// out\n        /* \"#utility.yul\":10516:10741   */\n    tag_174:\n        /* \"#utility.yul\":10656:10690   */\n      0x7468697320746f6b656e20646f6573206e6f74206578697374206f6e20746869\n        /* \"#utility.yul\":10652:10653   */\n      0x00\n        /* \"#utility.yul\":10644:10650   */\n      dup3\n        /* \"#utility.yul\":10640:10654   */\n      add\n        /* \"#utility.yul\":10633:10691   */\n      mstore\n        /* \"#utility.yul\":10725:10733   */\n      0x7320706f6f6c0000000000000000000000000000000000000000000000000000\n        /* \"#utility.yul\":10720:10722   */\n      0x20\n        /* \"#utility.yul\":10712:10718   */\n      dup3\n        /* \"#utility.yul\":10708:10723   */\n      add\n        /* \"#utility.yul\":10701:10734   */\n      mstore\n        /* \"#utility.yul\":10516:10741   */\n      pop\n      jump\t// out\n        /* \"#utility.yul\":10747:11113   */\n    tag_175:\n        /* \"#utility.yul\":10889:10892   */\n      0x00\n        /* \"#utility.yul\":10910:10977   */\n      tag_290\n        /* \"#utility.yul\":10974:10976   */\n      0x26\n        /* \"#utility.yul\":10969:10972   */\n      dup4\n        /* \"#utility.yul\":10910:10977   */\n      tag_159\n      jump\t// in\n    tag_290:\n        /* \"#utility.yul\":10903:10977   */\n      swap2\n      pop\n        /* \"#utility.yul\":10986:11079   */\n      tag_291\n        /* \"#utility.yul\":11075:11078   */\n      dup3\n        /* \"#utility.yul\":10986:11079   */\n      tag_174\n      jump\t// in\n    tag_291:\n        /* \"#utility.yul\":11104:11106   */\n      0x40\n        /* \"#utility.yul\":11099:11102   */\n      dup3\n        /* \"#utility.yul\":11095:11107   */\n      add\n        /* \"#utility.yul\":11088:11107   */\n      swap1\n      pop\n        /* \"#utility.yul\":10747:11113   */\n      swap2\n      swap1\n      pop\n      jump\t// out\n        /* \"#utility.yul\":11119:11538   */\n    tag_92:\n        /* \"#utility.yul\":11285:11289   */\n      0x00\n        /* \"#utility.yul\":11323:11325   */\n      0x20\n        /* \"#utility.yul\":11312:11321   */\n      dup3\n        /* \"#utility.yul\":11308:11326   */\n      add\n        /* \"#utility.yul\":11300:11326   */\n      swap1\n      pop\n        /* \"#utility.yul\":11372:11381   */\n      dup2\n        /* \"#utility.yul\":11366:11370   */\n      dup2\n        /* \"#utility.yul\":11362:11382   */\n      sub\n        /* \"#utility.yul\":11358:11359   */\n      0x00\n        /* \"#utility.yul\":11347:11356   */\n      dup4\n        /* \"#utility.yul\":11343:11360   */\n      add\n        /* \"#utility.yul\":11336:11383   */\n      mstore\n        /* \"#utility.yul\":11400:11531   */\n      tag_293\n        /* \"#utility.yul\":11526:11530   */\n      dup2\n        /* \"#utility.yul\":11400:11531   */\n      tag_175\n      jump\t// in\n    tag_293:\n        /* \"#utility.yul\":11392:11531   */\n      swap1\n      pop\n        /* \"#utility.yul\":11119:11538   */\n      swap2\n      swap1\n      pop\n      jump\t// out\n        /* \"#utility.yul\":11544:11724   */\n    tag_176:\n        /* \"#utility.yul\":11592:11669   */\n      0x4e487b7100000000000000000000000000000000000000000000000000000000\n        /* \"#utility.yul\":11589:11590   */\n      0x00\n        /* \"#utility.yul\":11582:11670   */\n      mstore\n        /* \"#utility.yul\":11689:11693   */\n      0x12\n        /* \"#utility.yul\":11686:11687   */\n      0x04\n        /* \"#utility.yul\":11679:11694   */\n      mstore\n        /* \"#utility.yul\":11713:11717   */\n      0x24\n        /* \"#utility.yul\":11710:11711   */\n      0x00\n        /* \"#utility.yul\":11703:11718   */\n      revert\n        /* \"#utility.yul\":11730:11915   */\n    tag_102:\n        /* \"#utility.yul\":11770:11771   */\n      0x00\n        /* \"#utility.yul\":11787:11807   */\n      tag_296\n        /* \"#utility.yul\":11805:11806   */\n      dup3\n        /* \"#utility.yul\":11787:11807   */\n      tag_153\n      jump\t// in\n    tag_296:\n        /* \"#utility.yul\":11782:11807   */\n      swap2\n      pop\n        /* \"#utility.yul\":11821:11841   */\n      tag_297\n        /* \"#utility.yul\":11839:11840   */\n      dup4\n        /* \"#utility.yul\":11821:11841   */\n      tag_153\n      jump\t// in\n    tag_297:\n        /* \"#utility.yul\":11816:11841   */\n      swap3\n      pop\n        /* \"#utility.yul\":11860:11861   */\n      dup3\n        /* \"#utility.yul\":11850:11885   */\n      tag_298\n      jumpi\n        /* \"#utility.yul\":11865:11883   */\n      tag_299\n      tag_176\n      jump\t// in\n    tag_299:\n        /* \"#utility.yul\":11850:11885   */\n    tag_298:\n        /* \"#utility.yul\":11907:11908   */\n      dup3\n        /* \"#utility.yul\":11904:11905   */\n      dup3\n        /* \"#utility.yul\":11900:11909   */\n      div\n        /* \"#utility.yul\":11895:11909   */\n      swap1\n      pop\n        /* \"#utility.yul\":11730:11915   */\n      swap3\n      swap2\n      pop\n      pop\n      jump\t// out\n        /* \"#utility.yul\":11921:12154   */\n    tag_177:\n        /* \"#utility.yul\":12061:12095   */\n      0x5573657220646f6573206e6f74206861766520656e6f75676820666f72207468\n        /* \"#utility.yul\":12057:12058   */\n      0x00\n        /* \"#utility.yul\":12049:12055   */\n      dup3\n        /* \"#utility.yul\":12045:12059   */\n      add\n        /* \"#utility.yul\":12038:12096   */\n      mstore\n        /* \"#utility.yul\":12130:12146   */\n      0x6973207472616e73616374696f6e000000000000000000000000000000000000\n        /* \"#utility.yul\":12125:12127   */\n      0x20\n        /* \"#utility.yul\":12117:12123   */\n      dup3\n        /* \"#utility.yul\":12113:12128   */\n      add\n        /* \"#utility.yul\":12106:12147   */\n      mstore\n        /* \"#utility.yul\":11921:12154   */\n      pop\n      jump\t// out\n        /* \"#utility.yul\":12160:12526   */\n    tag_178:\n        /* \"#utility.yul\":12302:12305   */\n      0x00\n        /* \"#utility.yul\":12323:12390   */\n      tag_302\n        /* \"#utility.yul\":12387:12389   */\n      0x2e\n        /* \"#utility.yul\":12382:12385   */\n      dup4\n        /* \"#utility.yul\":12323:12390   */\n      tag_159\n      jump\t// in\n    tag_302:\n        /* \"#utility.yul\":12316:12390   */\n      swap2\n      pop\n        /* \"#utility.yul\":12399:12492   */\n      tag_303\n        /* \"#utility.yul\":12488:12491   */\n      dup3\n        /* \"#utility.yul\":12399:12492   */\n      tag_177\n      jump\t// in\n    tag_303:\n        /* \"#utility.yul\":12517:12519   */\n      0x40\n        /* \"#utility.yul\":12512:12515   */\n      dup3\n        /* \"#utility.yul\":12508:12520   */\n      add\n        /* \"#utility.yul\":12501:12520   */\n      swap1\n      pop\n        /* \"#utility.yul\":12160:12526   */\n      swap2\n      swap1\n      pop\n      jump\t// out\n        /* \"#utility.yul\":12532:12951   */\n    tag_117:\n        /* \"#utility.yul\":12698:12702   */\n      0x00\n        /* \"#utility.yul\":12736:12738   */\n      0x20\n        /* \"#utility.yul\":12725:12734   */\n      dup3\n        /* \"#utility.yul\":12721:12739   */\n      add\n        /* \"#utility.yul\":12713:12739   */\n      swap1\n      pop\n        /* \"#utility.yul\":12785:12794   */\n      dup2\n        /* \"#utility.yul\":12779:12783   */\n      dup2\n        /* \"#utility.yul\":12775:12795   */\n      sub\n        /* \"#utility.yul\":12771:12772   */\n      0x00\n        /* \"#utility.yul\":12760:12769   */\n      dup4\n        /* \"#utility.yul\":12756:12773   */\n      add\n        /* \"#utility.yul\":12749:12796   */\n      mstore\n        /* \"#utility.yul\":12813:12944   */\n      tag_305\n        /* \"#utility.yul\":12939:12943   */\n      dup2\n        /* \"#utility.yul\":12813:12944   */\n      tag_178\n      jump\t// in\n    tag_305:\n        /* \"#utility.yul\":12805:12944   */\n      swap1\n      pop\n        /* \"#utility.yul\":12532:12951   */\n      swap2\n      swap1\n      pop\n      jump\t// out\n        /* \"#utility.yul\":12957:13367   */\n    tag_128:\n        /* \"#utility.yul\":12997:13004   */\n      0x00\n        /* \"#utility.yul\":13020:13040   */\n      tag_307\n        /* \"#utility.yul\":13038:13039   */\n      dup3\n        /* \"#utility.yul\":13020:13040   */\n      tag_153\n      jump\t// in\n    tag_307:\n        /* \"#utility.yul\":13015:13040   */\n      swap2\n      pop\n        /* \"#utility.yul\":13054:13074   */\n      tag_308\n        /* \"#utility.yul\":13072:13073   */\n      dup4\n        /* \"#utility.yul\":13054:13074   */\n      tag_153\n      jump\t// in\n    tag_308:\n        /* \"#utility.yul\":13049:13074   */\n      swap3\n      pop\n        /* \"#utility.yul\":13109:13110   */\n      dup3\n        /* \"#utility.yul\":13106:13107   */\n      dup3\n        /* \"#utility.yul\":13102:13111   */\n      mul\n        /* \"#utility.yul\":13131:13161   */\n      tag_309\n        /* \"#utility.yul\":13149:13160   */\n      dup2\n        /* \"#utility.yul\":13131:13161   */\n      tag_153\n      jump\t// in\n    tag_309:\n        /* \"#utility.yul\":13120:13161   */\n      swap2\n      pop\n        /* \"#utility.yul\":13310:13311   */\n      dup3\n        /* \"#utility.yul\":13301:13308   */\n      dup3\n        /* \"#utility.yul\":13297:13312   */\n      div\n        /* \"#utility.yul\":13294:13295   */\n      dup5\n        /* \"#utility.yul\":13291:13313   */\n      eq\n        /* \"#utility.yul\":13271:13272   */\n      dup4\n        /* \"#utility.yul\":13264:13273   */\n      iszero\n        /* \"#utility.yul\":13244:13327   */\n      or\n        /* \"#utility.yul\":13221:13360   */\n      tag_310\n      jumpi\n        /* \"#utility.yul\":13340:13358   */\n      tag_311\n      tag_169\n      jump\t// in\n    tag_311:\n        /* \"#utility.yul\":13221:13360   */\n    tag_310:\n        /* \"#utility.yul\":13005:13367   */\n      pop\n        /* \"#utility.yul\":12957:13367   */\n      swap3\n      swap2\n      pop\n      pop\n      jump\t// out\n\n    auxdata: 0xa264697066735822122067b94f5c5247ee1928675e382e5e055698f42c1cb0aeb1be645117304ada04a964736f6c63430008120033\n}\n",
				"bytecode": {
					"linkReferences": {},
					"object": "608060405234801561001057600080fd5b506115df806100206000396000f3fe608060405234801561001057600080fd5b50600436106100575760003560e01c806347e7ef241461005c5780635a6b26ba1461007857806382ce2b5714610094578063c23f001f146100c4578063df791e50146100f4575b600080fd5b61007660048036038101906100719190610ec0565b610110565b005b610092600480360381019061008d9190610ec0565b6104f1565b005b6100ae60048036038101906100a99190610f00565b6106ca565b6040516100bb9190610f4f565b60405180910390f35b6100de60048036038101906100d99190610f00565b610955565b6040516100eb9190610f4f565b60405180910390f35b61010e60048036038101906101099190610f6a565b61097a565b005b6000829050818173ffffffffffffffffffffffffffffffffffffffff166370a08231336040518263ffffffff1660e01b815260040161014f9190610fcc565b602060405180830381865afa15801561016c573d6000803e3d6000fd5b505050506040513d601f19601f820116820180604052508101906101909190610ffc565b10156101d1576040517f08c379a00000000000000000000000000000000000000000000000000000000081526004016101c8906110ac565b60405180910390fd5b818173ffffffffffffffffffffffffffffffffffffffff1663dd62ed3e33306040518363ffffffff1660e01b815260040161020d9291906110cc565b602060405180830381865afa15801561022a573d6000803e3d6000fd5b505050506040513d601f19601f8201168201806040525081019061024e9190610ffc565b106102d9578073ffffffffffffffffffffffffffffffffffffffff166323b872dd3330856040518463ffffffff1660e01b8152600401610290939291906110f5565b6020604051808303816000875af11580156102af573d6000803e3d6000fd5b505050506040513d601f19601f820116820180604052508101906102d39190611164565b506104ec565b8073ffffffffffffffffffffffffffffffffffffffff1663095ea7b33060006040518363ffffffff1660e01b81526004016103159291906111d6565b6020604051808303816000875af1158015610334573d6000803e3d6000fd5b505050506040513d601f19601f820116820180604052508101906103589190611164565b508073ffffffffffffffffffffffffffffffffffffffff1663095ea7b330846040518363ffffffff1660e01b81526004016103949291906111ff565b6020604051808303816000875af11580156103b3573d6000803e3d6000fd5b505050506040513d601f19601f820116820180604052508101906103d79190611164565b508073ffffffffffffffffffffffffffffffffffffffff166323b872dd3330856040518463ffffffff1660e01b8152600401610415939291906110f5565b6020604051808303816000875af1158015610434573d6000803e3d6000fd5b505050506040513d601f19601f820116820180604052508101906104589190611164565b50816000803373ffffffffffffffffffffffffffffffffffffffff1673ffffffffffffffffffffffffffffffffffffffff16815260200190815260200160002060008573ffffffffffffffffffffffffffffffffffffffff1673ffffffffffffffffffffffffffffffffffffffff16815260200190815260200160002060008282546104e49190611257565b925050819055505b505050565b6000829050816000803373ffffffffffffffffffffffffffffffffffffffff1673ffffffffffffffffffffffffffffffffffffffff16815260200190815260200160002060008573ffffffffffffffffffffffffffffffffffffffff1673ffffffffffffffffffffffffffffffffffffffff1681526020019081526020016000205410156105b4576040517f08c379a00000000000000000000000000000000000000000000000000000000081526004016105ab906112fd565b60405180910390fd5b8073ffffffffffffffffffffffffffffffffffffffff1663a9059cbb33846040518363ffffffff1660e01b81526004016105ef9291906111ff565b6020604051808303816000875af115801561060e573d6000803e3d6000fd5b505050506040513d601f19601f820116820180604052508101906106329190611164565b50816000803373ffffffffffffffffffffffffffffffffffffffff1673ffffffffffffffffffffffffffffffffffffffff16815260200190815260200160002060008573ffffffffffffffffffffffffffffffffffffffff1673ffffffffffffffffffffffffffffffffffffffff16815260200190815260200160002060008282546106be919061131d565b92505081905550505050565b600080839050600083905060008273ffffffffffffffffffffffffffffffffffffffff166370a08231306040518263ffffffff1660e01b81526004016107109190610fcc565b602060405180830381865afa15801561072d573d6000803e3d6000fd5b505050506040513d601f19601f820116820180604052508101906107519190610ffc565b03610791576040517f08c379a0000000000000000000000000000000000000000000000000000000008152600401610788906113c3565b60405180910390fd5b60008173ffffffffffffffffffffffffffffffffffffffff166370a08231306040518263ffffffff1660e01b81526004016107cc9190610fcc565b602060405180830381865afa1580156107e9573d6000803e3d6000fd5b505050506040513d601f19601f8201168201806040525081019061080d9190610ffc565b0361084d576040517f08c379a000000000000000000000000000000000000000000000000000000000815260040161084490611455565b60405180910390fd5b8073ffffffffffffffffffffffffffffffffffffffff166370a08231306040518263ffffffff1660e01b81526004016108869190610fcc565b602060405180830381865afa1580156108a3573d6000803e3d6000fd5b505050506040513d601f19601f820116820180604052508101906108c79190610ffc565b8273ffffffffffffffffffffffffffffffffffffffff166370a08231306040518263ffffffff1660e01b81526004016109009190610fcc565b602060405180830381865afa15801561091d573d6000803e3d6000fd5b505050506040513d601f19601f820116820180604052508101906109419190610ffc565b61094b91906114a4565b9250505092915050565b6000602052816000526040600020602052806000526040600020600091509150505481565b60008390506000839050600061099086866106ca565b905060008273ffffffffffffffffffffffffffffffffffffffff166370a08231306040518263ffffffff1660e01b81526004016109cd9190610fcc565b602060405180830381865afa1580156109ea573d6000803e3d6000fd5b505050506040513d601f19601f82011682018060405250810190610a0e9190610ffc565b03610a4e576040517f08c379a0000000000000000000000000000000000000000000000000000000008152600401610a4590611455565b60405180910390fd5b838373ffffffffffffffffffffffffffffffffffffffff166370a08231336040518263ffffffff1660e01b8152600401610a889190610fcc565b602060405180830381865afa158015610aa5573d6000803e3d6000fd5b505050506040513d601f19601f82011682018060405250810190610ac99190610ffc565b1015610b0a576040517f08c379a0000000000000000000000000000000000000000000000000000000008152600401610b0190611547565b60405180910390fd5b838373ffffffffffffffffffffffffffffffffffffffff1663dd62ed3e33306040518363ffffffff1660e01b8152600401610b469291906110cc565b602060405180830381865afa158015610b63573d6000803e3d6000fd5b505050506040513d601f19601f82011682018060405250810190610b879190610ffc565b10610c9e578273ffffffffffffffffffffffffffffffffffffffff166323b872dd3330876040518463ffffffff1660e01b8152600401610bc9939291906110f5565b6020604051808303816000875af1158015610be8573d6000803e3d6000fd5b505050506040513d601f19601f82011682018060405250810190610c0c9190611164565b508173ffffffffffffffffffffffffffffffffffffffff166323b872dd30338488610c379190611567565b6040518463ffffffff1660e01b8152600401610c55939291906110f5565b6020604051808303816000875af1158015610c74573d6000803e3d6000fd5b505050506040513d601f19601f82011682018060405250810190610c989190611164565b50610e1f565b8273ffffffffffffffffffffffffffffffffffffffff1663095ea7b33060006040518363ffffffff1660e01b8152600401610cda9291906111d6565b6020604051808303816000875af1158015610cf9573d6000803e3d6000fd5b505050506040513d601f19601f82011682018060405250810190610d1d9190611164565b508273ffffffffffffffffffffffffffffffffffffffff1663095ea7b330866040518363ffffffff1660e01b8152600401610d599291906111ff565b6020604051808303816000875af1158015610d78573d6000803e3d6000fd5b505050506040513d601f19601f82011682018060405250810190610d9c9190611164565b508273ffffffffffffffffffffffffffffffffffffffff166323b872dd3330876040518463ffffffff1660e01b8152600401610dda939291906110f5565b6020604051808303816000875af1158015610df9573d6000803e3d6000fd5b505050506040513d601f19601f82011682018060405250810190610e1d9190611164565b505b505050505050565b600080fd5b600073ffffffffffffffffffffffffffffffffffffffff82169050919050565b6000610e5782610e2c565b9050919050565b610e6781610e4c565b8114610e7257600080fd5b50565b600081359050610e8481610e5e565b92915050565b6000819050919050565b610e9d81610e8a565b8114610ea857600080fd5b50565b600081359050610eba81610e94565b92915050565b60008060408385031215610ed757610ed6610e27565b5b6000610ee585828601610e75565b9250506020610ef685828601610eab565b9150509250929050565b60008060408385031215610f1757610f16610e27565b5b6000610f2585828601610e75565b9250506020610f3685828601610e75565b9150509250929050565b610f4981610e8a565b82525050565b6000602082019050610f646000830184610f40565b92915050565b600080600060608486031215610f8357610f82610e27565b5b6000610f9186828701610e75565b9350506020610fa286828701610e75565b9250506040610fb386828701610eab565b9150509250925092565b610fc681610e4c565b82525050565b6000602082019050610fe16000830184610fbd565b92915050565b600081519050610ff681610e94565b92915050565b60006020828403121561101257611011610e27565b5b600061102084828501610fe7565b91505092915050565b600082825260208201905092915050565b7f596f7520646f6e2774206861766520656e6f75676820746f6b656e7320746f2060008201527f7377617020776974680000000000000000000000000000000000000000000000602082015250565b6000611096602983611029565b91506110a18261103a565b604082019050919050565b600060208201905081810360008301526110c581611089565b9050919050565b60006040820190506110e16000830185610fbd565b6110ee6020830184610fbd565b9392505050565b600060608201905061110a6000830186610fbd565b6111176020830185610fbd565b6111246040830184610f40565b949350505050565b60008115159050919050565b6111418161112c565b811461114c57600080fd5b50565b60008151905061115e81611138565b92915050565b60006020828403121561117a57611179610e27565b5b60006111888482850161114f565b91505092915050565b6000819050919050565b6000819050919050565b60006111c06111bb6111b684611191565b61119b565b610e8a565b9050919050565b6111d0816111a5565b82525050565b60006040820190506111eb6000830185610fbd565b6111f860208301846111c7565b9392505050565b60006040820190506112146000830185610fbd565b6112216020830184610f40565b9392505050565b7f4e487b7100000000000000000000000000000000000000000000000000000000600052601160045260246000fd5b600061126282610e8a565b915061126d83610e8a565b925082820190508082111561128557611284611228565b5b92915050565b7f7573657220646f6573206e6f74206861766520656e6f756768206465706f736960008201527f7420666f722074686973207769746864726177616c0000000000000000000000602082015250565b60006112e7603583611029565b91506112f28261128b565b604082019050919050565b60006020820190508181036000830152611316816112da565b9050919050565b600061132882610e8a565b915061133383610e8a565b925082820390508181111561134b5761134a611228565b5b92915050565b7f5468697320746f6b656e20646f6573206e6f74206578697374206f6e2074686960008201527f7320706f6f6c0000000000000000000000000000000000000000000000000000602082015250565b60006113ad602683611029565b91506113b882611351565b604082019050919050565b600060208201905081810360008301526113dc816113a0565b9050919050565b7f7468697320746f6b656e20646f6573206e6f74206578697374206f6e2074686960008201527f7320706f6f6c0000000000000000000000000000000000000000000000000000602082015250565b600061143f602683611029565b915061144a826113e3565b604082019050919050565b6000602082019050818103600083015261146e81611432565b9050919050565b7f4e487b7100000000000000000000000000000000000000000000000000000000600052601260045260246000fd5b60006114af82610e8a565b91506114ba83610e8a565b9250826114ca576114c9611475565b5b828204905092915050565b7f5573657220646f6573206e6f74206861766520656e6f75676820666f7220746860008201527f6973207472616e73616374696f6e000000000000000000000000000000000000602082015250565b6000611531602e83611029565b915061153c826114d5565b604082019050919050565b6000602082019050818103600083015261156081611524565b9050919050565b600061157282610e8a565b915061157d83610e8a565b925082820261158b81610e8a565b915082820484148315176115a2576115a1611228565b5b509291505056fea264697066735822122067b94f5c5247ee1928675e382e5e055698f42c1cb0aeb1be645117304ada04a964736f6c63430008120033",
					"opcodes": "PUSH1 0x80 PUSH1 0x40 MSTORE CALLVALUE DUP1 ISZERO PUSH2 0x10 JUMPI PUSH1 0x0 DUP1 REVERT JUMPDEST POP PUSH2 0x15DF DUP1 PUSH2 0x20 PUSH1 0x0 CODECOPY PUSH1 0x0 RETURN INVALID PUSH1 0x80 PUSH1 0x40 MSTORE CALLVALUE DUP1 ISZERO PUSH2 0x10 JUMPI PUSH1 0x0 DUP1 REVERT JUMPDEST POP PUSH1 0x4 CALLDATASIZE LT PUSH2 0x57 JUMPI PUSH1 0x0 CALLDATALOAD PUSH1 0xE0 SHR DUP1 PUSH4 0x47E7EF24 EQ PUSH2 0x5C JUMPI DUP1 PUSH4 0x5A6B26BA EQ PUSH2 0x78 JUMPI DUP1 PUSH4 0x82CE2B57 EQ PUSH2 0x94 JUMPI DUP1 PUSH4 0xC23F001F EQ PUSH2 0xC4 JUMPI DUP1 PUSH4 0xDF791E50 EQ PUSH2 0xF4 JUMPI JUMPDEST PUSH1 0x0 DUP1 REVERT JUMPDEST PUSH2 0x76 PUSH1 0x4 DUP1 CALLDATASIZE SUB DUP2 ADD SWAP1 PUSH2 0x71 SWAP2 SWAP1 PUSH2 0xEC0 JUMP JUMPDEST PUSH2 0x110 JUMP JUMPDEST STOP JUMPDEST PUSH2 0x92 PUSH1 0x4 DUP1 CALLDATASIZE SUB DUP2 ADD SWAP1 PUSH2 0x8D SWAP2 SWAP1 PUSH2 0xEC0 JUMP JUMPDEST PUSH2 0x4F1 JUMP JUMPDEST STOP JUMPDEST PUSH2 0xAE PUSH1 0x4 DUP1 CALLDATASIZE SUB DUP2 ADD SWAP1 PUSH2 0xA9 SWAP2 SWAP1 PUSH2 0xF00 JUMP JUMPDEST PUSH2 0x6CA JUMP JUMPDEST PUSH1 0x40 MLOAD PUSH2 0xBB SWAP2 SWAP1 PUSH2 0xF4F JUMP JUMPDEST PUSH1 0x40 MLOAD DUP1 SWAP2 SUB SWAP1 RETURN JUMPDEST PUSH2 0xDE PUSH1 0x4 DUP1 CALLDATASIZE SUB DUP2 ADD SWAP1 PUSH2 0xD9 SWAP2 SWAP1 PUSH2 0xF00 JUMP JUMPDEST PUSH2 0x955 JUMP JUMPDEST PUSH1 0x40 MLOAD PUSH2 0xEB SWAP2 SWAP1 PUSH2 0xF4F JUMP JUMPDEST PUSH1 0x40 MLOAD DUP1 SWAP2 SUB SWAP1 RETURN JUMPDEST PUSH2 0x10E PUSH1 0x4 DUP1 CALLDATASIZE SUB DUP2 ADD SWAP1 PUSH2 0x109 SWAP2 SWAP1 PUSH2 0xF6A JUMP JUMPDEST PUSH2 0x97A JUMP JUMPDEST STOP JUMPDEST PUSH1 0x0 DUP3 SWAP1 POP DUP2 DUP2 PUSH20 0xFFFFFFFFFFFFFFFFFFFFFFFFFFFFFFFFFFFFFFFF AND PUSH4 0x70A08231 CALLER PUSH1 0x40 MLOAD DUP3 PUSH4 0xFFFFFFFF AND PUSH1 0xE0 SHL DUP2 MSTORE PUSH1 0x4 ADD PUSH2 0x14F SWAP2 SWAP1 PUSH2 0xFCC JUMP JUMPDEST PUSH1 0x20 PUSH1 0x40 MLOAD DUP1 DUP4 SUB DUP2 DUP7 GAS STATICCALL ISZERO DUP1 ISZERO PUSH2 0x16C JUMPI RETURNDATASIZE PUSH1 0x0 DUP1 RETURNDATACOPY RETURNDATASIZE PUSH1 0x0 REVERT JUMPDEST POP POP POP POP PUSH1 0x40 MLOAD RETURNDATASIZE PUSH1 0x1F NOT PUSH1 0x1F DUP3 ADD AND DUP3 ADD DUP1 PUSH1 0x40 MSTORE POP DUP2 ADD SWAP1 PUSH2 0x190 SWAP2 SWAP1 PUSH2 0xFFC JUMP JUMPDEST LT ISZERO PUSH2 0x1D1 JUMPI PUSH1 0x40 MLOAD PUSH32 0x8C379A000000000000000000000000000000000000000000000000000000000 DUP2 MSTORE PUSH1 0x4 ADD PUSH2 0x1C8 SWAP1 PUSH2 0x10AC JUMP JUMPDEST PUSH1 0x40 MLOAD DUP1 SWAP2 SUB SWAP1 REVERT JUMPDEST DUP2 DUP2 PUSH20 0xFFFFFFFFFFFFFFFFFFFFFFFFFFFFFFFFFFFFFFFF AND PUSH4 0xDD62ED3E CALLER ADDRESS PUSH1 0x40 MLOAD DUP4 PUSH4 0xFFFFFFFF AND PUSH1 0xE0 SHL DUP2 MSTORE PUSH1 0x4 ADD PUSH2 0x20D SWAP3 SWAP2 SWAP1 PUSH2 0x10CC JUMP JUMPDEST PUSH1 0x20 PUSH1 0x40 MLOAD DUP1 DUP4 SUB DUP2 DUP7 GAS STATICCALL ISZERO DUP1 ISZERO PUSH2 0x22A JUMPI RETURNDATASIZE PUSH1 0x0 DUP1 RETURNDATACOPY RETURNDATASIZE PUSH1 0x0 REVERT JUMPDEST POP POP POP POP PUSH1 0x40 MLOAD RETURNDATASIZE PUSH1 0x1F NOT PUSH1 0x1F DUP3 ADD AND DUP3 ADD DUP1 PUSH1 0x40 MSTORE POP DUP2 ADD SWAP1 PUSH2 0x24E SWAP2 SWAP1 PUSH2 0xFFC JUMP JUMPDEST LT PUSH2 0x2D9 JUMPI DUP1 PUSH20 0xFFFFFFFFFFFFFFFFFFFFFFFFFFFFFFFFFFFFFFFF AND PUSH4 0x23B872DD CALLER ADDRESS DUP6 PUSH1 0x40 MLOAD DUP5 PUSH4 0xFFFFFFFF AND PUSH1 0xE0 SHL DUP2 MSTORE PUSH1 0x4 ADD PUSH2 0x290 SWAP4 SWAP3 SWAP2 SWAP1 PUSH2 0x10F5 JUMP JUMPDEST PUSH1 0x20 PUSH1 0x40 MLOAD DUP1 DUP4 SUB DUP2 PUSH1 0x0 DUP8 GAS CALL ISZERO DUP1 ISZERO PUSH2 0x2AF JUMPI RETURNDATASIZE PUSH1 0x0 DUP1 RETURNDATACOPY RETURNDATASIZE PUSH1 0x0 REVERT JUMPDEST POP POP POP POP PUSH1 0x40 MLOAD RETURNDATASIZE PUSH1 0x1F NOT PUSH1 0x1F DUP3 ADD AND DUP3 ADD DUP1 PUSH1 0x40 MSTORE POP DUP2 ADD SWAP1 PUSH2 0x2D3 SWAP2 SWAP1 PUSH2 0x1164 JUMP JUMPDEST POP PUSH2 0x4EC JUMP JUMPDEST DUP1 PUSH20 0xFFFFFFFFFFFFFFFFFFFFFFFFFFFFFFFFFFFFFFFF AND PUSH4 0x95EA7B3 ADDRESS PUSH1 0x0 PUSH1 0x40 MLOAD DUP4 PUSH4 0xFFFFFFFF AND PUSH1 0xE0 SHL DUP2 MSTORE PUSH1 0x4 ADD PUSH2 0x315 SWAP3 SWAP2 SWAP1 PUSH2 0x11D6 JUMP JUMPDEST PUSH1 0x20 PUSH1 0x40 MLOAD DUP1 DUP4 SUB DUP2 PUSH1 0x0 DUP8 GAS CALL ISZERO DUP1 ISZERO PUSH2 0x334 JUMPI RETURNDATASIZE PUSH1 0x0 DUP1 RETURNDATACOPY RETURNDATASIZE PUSH1 0x0 REVERT JUMPDEST POP POP POP POP PUSH1 0x40 MLOAD RETURNDATASIZE PUSH1 0x1F NOT PUSH1 0x1F DUP3 ADD AND DUP3 ADD DUP1 PUSH1 0x40 MSTORE POP DUP2 ADD SWAP1 PUSH2 0x358 SWAP2 SWAP1 PUSH2 0x1164 JUMP JUMPDEST POP DUP1 PUSH20 0xFFFFFFFFFFFFFFFFFFFFFFFFFFFFFFFFFFFFFFFF AND PUSH4 0x95EA7B3 ADDRESS DUP5 PUSH1 0x40 MLOAD DUP4 PUSH4 0xFFFFFFFF AND PUSH1 0xE0 SHL DUP2 MSTORE PUSH1 0x4 ADD PUSH2 0x394 SWAP3 SWAP2 SWAP1 PUSH2 0x11FF JUMP JUMPDEST PUSH1 0x20 PUSH1 0x40 MLOAD DUP1 DUP4 SUB DUP2 PUSH1 0x0 DUP8 GAS CALL ISZERO DUP1 ISZERO PUSH2 0x3B3 JUMPI RETURNDATASIZE PUSH1 0x0 DUP1 RETURNDATACOPY RETURNDATASIZE PUSH1 0x0 REVERT JUMPDEST POP POP POP POP PUSH1 0x40 MLOAD RETURNDATASIZE PUSH1 0x1F NOT PUSH1 0x1F DUP3 ADD AND DUP3 ADD DUP1 PUSH1 0x40 MSTORE POP DUP2 ADD SWAP1 PUSH2 0x3D7 SWAP2 SWAP1 PUSH2 0x1164 JUMP JUMPDEST POP DUP1 PUSH20 0xFFFFFFFFFFFFFFFFFFFFFFFFFFFFFFFFFFFFFFFF AND PUSH4 0x23B872DD CALLER ADDRESS DUP6 PUSH1 0x40 MLOAD DUP5 PUSH4 0xFFFFFFFF AND PUSH1 0xE0 SHL DUP2 MSTORE PUSH1 0x4 ADD PUSH2 0x415 SWAP4 SWAP3 SWAP2 SWAP1 PUSH2 0x10F5 JUMP JUMPDEST PUSH1 0x20 PUSH1 0x40 MLOAD DUP1 DUP4 SUB DUP2 PUSH1 0x0 DUP8 GAS CALL ISZERO DUP1 ISZERO PUSH2 0x434 JUMPI RETURNDATASIZE PUSH1 0x0 DUP1 RETURNDATACOPY RETURNDATASIZE PUSH1 0x0 REVERT JUMPDEST POP POP POP POP PUSH1 0x40 MLOAD RETURNDATASIZE PUSH1 0x1F NOT PUSH1 0x1F DUP3 ADD AND DUP3 ADD DUP1 PUSH1 0x40 MSTORE POP DUP2 ADD SWAP1 PUSH2 0x458 SWAP2 SWAP1 PUSH2 0x1164 JUMP JUMPDEST POP DUP2 PUSH1 0x0 DUP1 CALLER PUSH20 0xFFFFFFFFFFFFFFFFFFFFFFFFFFFFFFFFFFFFFFFF AND PUSH20 0xFFFFFFFFFFFFFFFFFFFFFFFFFFFFFFFFFFFFFFFF AND DUP2 MSTORE PUSH1 0x20 ADD SWAP1 DUP2 MSTORE PUSH1 0x20 ADD PUSH1 0x0 KECCAK256 PUSH1 0x0 DUP6 PUSH20 0xFFFFFFFFFFFFFFFFFFFFFFFFFFFFFFFFFFFFFFFF AND PUSH20 0xFFFFFFFFFFFFFFFFFFFFFFFFFFFFFFFFFFFFFFFF AND DUP2 MSTORE PUSH1 0x20 ADD SWAP1 DUP2 MSTORE PUSH1 0x20 ADD PUSH1 0x0 KECCAK256 PUSH1 0x0 DUP3 DUP3 SLOAD PUSH2 0x4E4 SWAP2 SWAP1 PUSH2 0x1257 JUMP JUMPDEST SWAP3 POP POP DUP2 SWAP1 SSTORE POP JUMPDEST POP POP POP JUMP JUMPDEST PUSH1 0x0 DUP3 SWAP1 POP DUP2 PUSH1 0x0 DUP1 CALLER PUSH20 0xFFFFFFFFFFFFFFFFFFFFFFFFFFFFFFFFFFFFFFFF AND PUSH20 0xFFFFFFFFFFFFFFFFFFFFFFFFFFFFFFFFFFFFFFFF AND DUP2 MSTORE PUSH1 0x20 ADD SWAP1 DUP2 MSTORE PUSH1 0x20 ADD PUSH1 0x0 KECCAK256 PUSH1 0x0 DUP6 PUSH20 0xFFFFFFFFFFFFFFFFFFFFFFFFFFFFFFFFFFFFFFFF AND PUSH20 0xFFFFFFFFFFFFFFFFFFFFFFFFFFFFFFFFFFFFFFFF AND DUP2 MSTORE PUSH1 0x20 ADD SWAP1 DUP2 MSTORE PUSH1 0x20 ADD PUSH1 0x0 KECCAK256 SLOAD LT ISZERO PUSH2 0x5B4 JUMPI PUSH1 0x40 MLOAD PUSH32 0x8C379A000000000000000000000000000000000000000000000000000000000 DUP2 MSTORE PUSH1 0x4 ADD PUSH2 0x5AB SWAP1 PUSH2 0x12FD JUMP JUMPDEST PUSH1 0x40 MLOAD DUP1 SWAP2 SUB SWAP1 REVERT JUMPDEST DUP1 PUSH20 0xFFFFFFFFFFFFFFFFFFFFFFFFFFFFFFFFFFFFFFFF AND PUSH4 0xA9059CBB CALLER DUP5 PUSH1 0x40 MLOAD DUP4 PUSH4 0xFFFFFFFF AND PUSH1 0xE0 SHL DUP2 MSTORE PUSH1 0x4 ADD PUSH2 0x5EF SWAP3 SWAP2 SWAP1 PUSH2 0x11FF JUMP JUMPDEST PUSH1 0x20 PUSH1 0x40 MLOAD DUP1 DUP4 SUB DUP2 PUSH1 0x0 DUP8 GAS CALL ISZERO DUP1 ISZERO PUSH2 0x60E JUMPI RETURNDATASIZE PUSH1 0x0 DUP1 RETURNDATACOPY RETURNDATASIZE PUSH1 0x0 REVERT JUMPDEST POP POP POP POP PUSH1 0x40 MLOAD RETURNDATASIZE PUSH1 0x1F NOT PUSH1 0x1F DUP3 ADD AND DUP3 ADD DUP1 PUSH1 0x40 MSTORE POP DUP2 ADD SWAP1 PUSH2 0x632 SWAP2 SWAP1 PUSH2 0x1164 JUMP JUMPDEST POP DUP2 PUSH1 0x0 DUP1 CALLER PUSH20 0xFFFFFFFFFFFFFFFFFFFFFFFFFFFFFFFFFFFFFFFF AND PUSH20 0xFFFFFFFFFFFFFFFFFFFFFFFFFFFFFFFFFFFFFFFF AND DUP2 MSTORE PUSH1 0x20 ADD SWAP1 DUP2 MSTORE PUSH1 0x20 ADD PUSH1 0x0 KECCAK256 PUSH1 0x0 DUP6 PUSH20 0xFFFFFFFFFFFFFFFFFFFFFFFFFFFFFFFFFFFFFFFF AND PUSH20 0xFFFFFFFFFFFFFFFFFFFFFFFFFFFFFFFFFFFFFFFF AND DUP2 MSTORE PUSH1 0x20 ADD SWAP1 DUP2 MSTORE PUSH1 0x20 ADD PUSH1 0x0 KECCAK256 PUSH1 0x0 DUP3 DUP3 SLOAD PUSH2 0x6BE SWAP2 SWAP1 PUSH2 0x131D JUMP JUMPDEST SWAP3 POP POP DUP2 SWAP1 SSTORE POP POP POP POP JUMP JUMPDEST PUSH1 0x0 DUP1 DUP4 SWAP1 POP PUSH1 0x0 DUP4 SWAP1 POP PUSH1 0x0 DUP3 PUSH20 0xFFFFFFFFFFFFFFFFFFFFFFFFFFFFFFFFFFFFFFFF AND PUSH4 0x70A08231 ADDRESS PUSH1 0x40 MLOAD DUP3 PUSH4 0xFFFFFFFF AND PUSH1 0xE0 SHL DUP2 MSTORE PUSH1 0x4 ADD PUSH2 0x710 SWAP2 SWAP1 PUSH2 0xFCC JUMP JUMPDEST PUSH1 0x20 PUSH1 0x40 MLOAD DUP1 DUP4 SUB DUP2 DUP7 GAS STATICCALL ISZERO DUP1 ISZERO PUSH2 0x72D JUMPI RETURNDATASIZE PUSH1 0x0 DUP1 RETURNDATACOPY RETURNDATASIZE PUSH1 0x0 REVERT JUMPDEST POP POP POP POP PUSH1 0x40 MLOAD RETURNDATASIZE PUSH1 0x1F NOT PUSH1 0x1F DUP3 ADD AND DUP3 ADD DUP1 PUSH1 0x40 MSTORE POP DUP2 ADD SWAP1 PUSH2 0x751 SWAP2 SWAP1 PUSH2 0xFFC JUMP JUMPDEST SUB PUSH2 0x791 JUMPI PUSH1 0x40 MLOAD PUSH32 0x8C379A000000000000000000000000000000000000000000000000000000000 DUP2 MSTORE PUSH1 0x4 ADD PUSH2 0x788 SWAP1 PUSH2 0x13C3 JUMP JUMPDEST PUSH1 0x40 MLOAD DUP1 SWAP2 SUB SWAP1 REVERT JUMPDEST PUSH1 0x0 DUP2 PUSH20 0xFFFFFFFFFFFFFFFFFFFFFFFFFFFFFFFFFFFFFFFF AND PUSH4 0x70A08231 ADDRESS PUSH1 0x40 MLOAD DUP3 PUSH4 0xFFFFFFFF AND PUSH1 0xE0 SHL DUP2 MSTORE PUSH1 0x4 ADD PUSH2 0x7CC SWAP2 SWAP1 PUSH2 0xFCC JUMP JUMPDEST PUSH1 0x20 PUSH1 0x40 MLOAD DUP1 DUP4 SUB DUP2 DUP7 GAS STATICCALL ISZERO DUP1 ISZERO PUSH2 0x7E9 JUMPI RETURNDATASIZE PUSH1 0x0 DUP1 RETURNDATACOPY RETURNDATASIZE PUSH1 0x0 REVERT JUMPDEST POP POP POP POP PUSH1 0x40 MLOAD RETURNDATASIZE PUSH1 0x1F NOT PUSH1 0x1F DUP3 ADD AND DUP3 ADD DUP1 PUSH1 0x40 MSTORE POP DUP2 ADD SWAP1 PUSH2 0x80D SWAP2 SWAP1 PUSH2 0xFFC JUMP JUMPDEST SUB PUSH2 0x84D JUMPI PUSH1 0x40 MLOAD PUSH32 0x8C379A000000000000000000000000000000000000000000000000000000000 DUP2 MSTORE PUSH1 0x4 ADD PUSH2 0x844 SWAP1 PUSH2 0x1455 JUMP JUMPDEST PUSH1 0x40 MLOAD DUP1 SWAP2 SUB SWAP1 REVERT JUMPDEST DUP1 PUSH20 0xFFFFFFFFFFFFFFFFFFFFFFFFFFFFFFFFFFFFFFFF AND PUSH4 0x70A08231 ADDRESS PUSH1 0x40 MLOAD DUP3 PUSH4 0xFFFFFFFF AND PUSH1 0xE0 SHL DUP2 MSTORE PUSH1 0x4 ADD PUSH2 0x886 SWAP2 SWAP1 PUSH2 0xFCC JUMP JUMPDEST PUSH1 0x20 PUSH1 0x40 MLOAD DUP1 DUP4 SUB DUP2 DUP7 GAS STATICCALL ISZERO DUP1 ISZERO PUSH2 0x8A3 JUMPI RETURNDATASIZE PUSH1 0x0 DUP1 RETURNDATACOPY RETURNDATASIZE PUSH1 0x0 REVERT JUMPDEST POP POP POP POP PUSH1 0x40 MLOAD RETURNDATASIZE PUSH1 0x1F NOT PUSH1 0x1F DUP3 ADD AND DUP3 ADD DUP1 PUSH1 0x40 MSTORE POP DUP2 ADD SWAP1 PUSH2 0x8C7 SWAP2 SWAP1 PUSH2 0xFFC JUMP JUMPDEST DUP3 PUSH20 0xFFFFFFFFFFFFFFFFFFFFFFFFFFFFFFFFFFFFFFFF AND PUSH4 0x70A08231 ADDRESS PUSH1 0x40 MLOAD DUP3 PUSH4 0xFFFFFFFF AND PUSH1 0xE0 SHL DUP2 MSTORE PUSH1 0x4 ADD PUSH2 0x900 SWAP2 SWAP1 PUSH2 0xFCC JUMP JUMPDEST PUSH1 0x20 PUSH1 0x40 MLOAD DUP1 DUP4 SUB DUP2 DUP7 GAS STATICCALL ISZERO DUP1 ISZERO PUSH2 0x91D JUMPI RETURNDATASIZE PUSH1 0x0 DUP1 RETURNDATACOPY RETURNDATASIZE PUSH1 0x0 REVERT JUMPDEST POP POP POP POP PUSH1 0x40 MLOAD RETURNDATASIZE PUSH1 0x1F NOT PUSH1 0x1F DUP3 ADD AND DUP3 ADD DUP1 PUSH1 0x40 MSTORE POP DUP2 ADD SWAP1 PUSH2 0x941 SWAP2 SWAP1 PUSH2 0xFFC JUMP JUMPDEST PUSH2 0x94B SWAP2 SWAP1 PUSH2 0x14A4 JUMP JUMPDEST SWAP3 POP POP POP SWAP3 SWAP2 POP POP JUMP JUMPDEST PUSH1 0x0 PUSH1 0x20 MSTORE DUP2 PUSH1 0x0 MSTORE PUSH1 0x40 PUSH1 0x0 KECCAK256 PUSH1 0x20 MSTORE DUP1 PUSH1 0x0 MSTORE PUSH1 0x40 PUSH1 0x0 KECCAK256 PUSH1 0x0 SWAP2 POP SWAP2 POP POP SLOAD DUP2 JUMP JUMPDEST PUSH1 0x0 DUP4 SWAP1 POP PUSH1 0x0 DUP4 SWAP1 POP PUSH1 0x0 PUSH2 0x990 DUP7 DUP7 PUSH2 0x6CA JUMP JUMPDEST SWAP1 POP PUSH1 0x0 DUP3 PUSH20 0xFFFFFFFFFFFFFFFFFFFFFFFFFFFFFFFFFFFFFFFF AND PUSH4 0x70A08231 ADDRESS PUSH1 0x40 MLOAD DUP3 PUSH4 0xFFFFFFFF AND PUSH1 0xE0 SHL DUP2 MSTORE PUSH1 0x4 ADD PUSH2 0x9CD SWAP2 SWAP1 PUSH2 0xFCC JUMP JUMPDEST PUSH1 0x20 PUSH1 0x40 MLOAD DUP1 DUP4 SUB DUP2 DUP7 GAS STATICCALL ISZERO DUP1 ISZERO PUSH2 0x9EA JUMPI RETURNDATASIZE PUSH1 0x0 DUP1 RETURNDATACOPY RETURNDATASIZE PUSH1 0x0 REVERT JUMPDEST POP POP POP POP PUSH1 0x40 MLOAD RETURNDATASIZE PUSH1 0x1F NOT PUSH1 0x1F DUP3 ADD AND DUP3 ADD DUP1 PUSH1 0x40 MSTORE POP DUP2 ADD SWAP1 PUSH2 0xA0E SWAP2 SWAP1 PUSH2 0xFFC JUMP JUMPDEST SUB PUSH2 0xA4E JUMPI PUSH1 0x40 MLOAD PUSH32 0x8C379A000000000000000000000000000000000000000000000000000000000 DUP2 MSTORE PUSH1 0x4 ADD PUSH2 0xA45 SWAP1 PUSH2 0x1455 JUMP JUMPDEST PUSH1 0x40 MLOAD DUP1 SWAP2 SUB SWAP1 REVERT JUMPDEST DUP4 DUP4 PUSH20 0xFFFFFFFFFFFFFFFFFFFFFFFFFFFFFFFFFFFFFFFF AND PUSH4 0x70A08231 CALLER PUSH1 0x40 MLOAD DUP3 PUSH4 0xFFFFFFFF AND PUSH1 0xE0 SHL DUP2 MSTORE PUSH1 0x4 ADD PUSH2 0xA88 SWAP2 SWAP1 PUSH2 0xFCC JUMP JUMPDEST PUSH1 0x20 PUSH1 0x40 MLOAD DUP1 DUP4 SUB DUP2 DUP7 GAS STATICCALL ISZERO DUP1 ISZERO PUSH2 0xAA5 JUMPI RETURNDATASIZE PUSH1 0x0 DUP1 RETURNDATACOPY RETURNDATASIZE PUSH1 0x0 REVERT JUMPDEST POP POP POP POP PUSH1 0x40 MLOAD RETURNDATASIZE PUSH1 0x1F NOT PUSH1 0x1F DUP3 ADD AND DUP3 ADD DUP1 PUSH1 0x40 MSTORE POP DUP2 ADD SWAP1 PUSH2 0xAC9 SWAP2 SWAP1 PUSH2 0xFFC JUMP JUMPDEST LT ISZERO PUSH2 0xB0A JUMPI PUSH1 0x40 MLOAD PUSH32 0x8C379A000000000000000000000000000000000000000000000000000000000 DUP2 MSTORE PUSH1 0x4 ADD PUSH2 0xB01 SWAP1 PUSH2 0x1547 JUMP JUMPDEST PUSH1 0x40 MLOAD DUP1 SWAP2 SUB SWAP1 REVERT JUMPDEST DUP4 DUP4 PUSH20 0xFFFFFFFFFFFFFFFFFFFFFFFFFFFFFFFFFFFFFFFF AND PUSH4 0xDD62ED3E CALLER ADDRESS PUSH1 0x40 MLOAD DUP4 PUSH4 0xFFFFFFFF AND PUSH1 0xE0 SHL DUP2 MSTORE PUSH1 0x4 ADD PUSH2 0xB46 SWAP3 SWAP2 SWAP1 PUSH2 0x10CC JUMP JUMPDEST PUSH1 0x20 PUSH1 0x40 MLOAD DUP1 DUP4 SUB DUP2 DUP7 GAS STATICCALL ISZERO DUP1 ISZERO PUSH2 0xB63 JUMPI RETURNDATASIZE PUSH1 0x0 DUP1 RETURNDATACOPY RETURNDATASIZE PUSH1 0x0 REVERT JUMPDEST POP POP POP POP PUSH1 0x40 MLOAD RETURNDATASIZE PUSH1 0x1F NOT PUSH1 0x1F DUP3 ADD AND DUP3 ADD DUP1 PUSH1 0x40 MSTORE POP DUP2 ADD SWAP1 PUSH2 0xB87 SWAP2 SWAP1 PUSH2 0xFFC JUMP JUMPDEST LT PUSH2 0xC9E JUMPI DUP3 PUSH20 0xFFFFFFFFFFFFFFFFFFFFFFFFFFFFFFFFFFFFFFFF AND PUSH4 0x23B872DD CALLER ADDRESS DUP8 PUSH1 0x40 MLOAD DUP5 PUSH4 0xFFFFFFFF AND PUSH1 0xE0 SHL DUP2 MSTORE PUSH1 0x4 ADD PUSH2 0xBC9 SWAP4 SWAP3 SWAP2 SWAP1 PUSH2 0x10F5 JUMP JUMPDEST PUSH1 0x20 PUSH1 0x40 MLOAD DUP1 DUP4 SUB DUP2 PUSH1 0x0 DUP8 GAS CALL ISZERO DUP1 ISZERO PUSH2 0xBE8 JUMPI RETURNDATASIZE PUSH1 0x0 DUP1 RETURNDATACOPY RETURNDATASIZE PUSH1 0x0 REVERT JUMPDEST POP POP POP POP PUSH1 0x40 MLOAD RETURNDATASIZE PUSH1 0x1F NOT PUSH1 0x1F DUP3 ADD AND DUP3 ADD DUP1 PUSH1 0x40 MSTORE POP DUP2 ADD SWAP1 PUSH2 0xC0C SWAP2 SWAP1 PUSH2 0x1164 JUMP JUMPDEST POP DUP2 PUSH20 0xFFFFFFFFFFFFFFFFFFFFFFFFFFFFFFFFFFFFFFFF AND PUSH4 0x23B872DD ADDRESS CALLER DUP5 DUP9 PUSH2 0xC37 SWAP2 SWAP1 PUSH2 0x1567 JUMP JUMPDEST PUSH1 0x40 MLOAD DUP5 PUSH4 0xFFFFFFFF AND PUSH1 0xE0 SHL DUP2 MSTORE PUSH1 0x4 ADD PUSH2 0xC55 SWAP4 SWAP3 SWAP2 SWAP1 PUSH2 0x10F5 JUMP JUMPDEST PUSH1 0x20 PUSH1 0x40 MLOAD DUP1 DUP4 SUB DUP2 PUSH1 0x0 DUP8 GAS CALL ISZERO DUP1 ISZERO PUSH2 0xC74 JUMPI RETURNDATASIZE PUSH1 0x0 DUP1 RETURNDATACOPY RETURNDATASIZE PUSH1 0x0 REVERT JUMPDEST POP POP POP POP PUSH1 0x40 MLOAD RETURNDATASIZE PUSH1 0x1F NOT PUSH1 0x1F DUP3 ADD AND DUP3 ADD DUP1 PUSH1 0x40 MSTORE POP DUP2 ADD SWAP1 PUSH2 0xC98 SWAP2 SWAP1 PUSH2 0x1164 JUMP JUMPDEST POP PUSH2 0xE1F JUMP JUMPDEST DUP3 PUSH20 0xFFFFFFFFFFFFFFFFFFFFFFFFFFFFFFFFFFFFFFFF AND PUSH4 0x95EA7B3 ADDRESS PUSH1 0x0 PUSH1 0x40 MLOAD DUP4 PUSH4 0xFFFFFFFF AND PUSH1 0xE0 SHL DUP2 MSTORE PUSH1 0x4 ADD PUSH2 0xCDA SWAP3 SWAP2 SWAP1 PUSH2 0x11D6 JUMP JUMPDEST PUSH1 0x20 PUSH1 0x40 MLOAD DUP1 DUP4 SUB DUP2 PUSH1 0x0 DUP8 GAS CALL ISZERO DUP1 ISZERO PUSH2 0xCF9 JUMPI RETURNDATASIZE PUSH1 0x0 DUP1 RETURNDATACOPY RETURNDATASIZE PUSH1 0x0 REVERT JUMPDEST POP POP POP POP PUSH1 0x40 MLOAD RETURNDATASIZE PUSH1 0x1F NOT PUSH1 0x1F DUP3 ADD AND DUP3 ADD DUP1 PUSH1 0x40 MSTORE POP DUP2 ADD SWAP1 PUSH2 0xD1D SWAP2 SWAP1 PUSH2 0x1164 JUMP JUMPDEST POP DUP3 PUSH20 0xFFFFFFFFFFFFFFFFFFFFFFFFFFFFFFFFFFFFFFFF AND PUSH4 0x95EA7B3 ADDRESS DUP7 PUSH1 0x40 MLOAD DUP4 PUSH4 0xFFFFFFFF AND PUSH1 0xE0 SHL DUP2 MSTORE PUSH1 0x4 ADD PUSH2 0xD59 SWAP3 SWAP2 SWAP1 PUSH2 0x11FF JUMP JUMPDEST PUSH1 0x20 PUSH1 0x40 MLOAD DUP1 DUP4 SUB DUP2 PUSH1 0x0 DUP8 GAS CALL ISZERO DUP1 ISZERO PUSH2 0xD78 JUMPI RETURNDATASIZE PUSH1 0x0 DUP1 RETURNDATACOPY RETURNDATASIZE PUSH1 0x0 REVERT JUMPDEST POP POP POP POP PUSH1 0x40 MLOAD RETURNDATASIZE PUSH1 0x1F NOT PUSH1 0x1F DUP3 ADD AND DUP3 ADD DUP1 PUSH1 0x40 MSTORE POP DUP2 ADD SWAP1 PUSH2 0xD9C SWAP2 SWAP1 PUSH2 0x1164 JUMP JUMPDEST POP DUP3 PUSH20 0xFFFFFFFFFFFFFFFFFFFFFFFFFFFFFFFFFFFFFFFF AND PUSH4 0x23B872DD CALLER ADDRESS DUP8 PUSH1 0x40 MLOAD DUP5 PUSH4 0xFFFFFFFF AND PUSH1 0xE0 SHL DUP2 MSTORE PUSH1 0x4 ADD PUSH2 0xDDA SWAP4 SWAP3 SWAP2 SWAP1 PUSH2 0x10F5 JUMP JUMPDEST PUSH1 0x20 PUSH1 0x40 MLOAD DUP1 DUP4 SUB DUP2 PUSH1 0x0 DUP8 GAS CALL ISZERO DUP1 ISZERO PUSH2 0xDF9 JUMPI RETURNDATASIZE PUSH1 0x0 DUP1 RETURNDATACOPY RETURNDATASIZE PUSH1 0x0 REVERT JUMPDEST POP POP POP POP PUSH1 0x40 MLOAD RETURNDATASIZE PUSH1 0x1F NOT PUSH1 0x1F DUP3 ADD AND DUP3 ADD DUP1 PUSH1 0x40 MSTORE POP DUP2 ADD SWAP1 PUSH2 0xE1D SWAP2 SWAP1 PUSH2 0x1164 JUMP JUMPDEST POP JUMPDEST POP POP POP POP POP POP JUMP JUMPDEST PUSH1 0x0 DUP1 REVERT JUMPDEST PUSH1 0x0 PUSH20 0xFFFFFFFFFFFFFFFFFFFFFFFFFFFFFFFFFFFFFFFF DUP3 AND SWAP1 POP SWAP2 SWAP1 POP JUMP JUMPDEST PUSH1 0x0 PUSH2 0xE57 DUP3 PUSH2 0xE2C JUMP JUMPDEST SWAP1 POP SWAP2 SWAP1 POP JUMP JUMPDEST PUSH2 0xE67 DUP2 PUSH2 0xE4C JUMP JUMPDEST DUP2 EQ PUSH2 0xE72 JUMPI PUSH1 0x0 DUP1 REVERT JUMPDEST POP JUMP JUMPDEST PUSH1 0x0 DUP2 CALLDATALOAD SWAP1 POP PUSH2 0xE84 DUP2 PUSH2 0xE5E JUMP JUMPDEST SWAP3 SWAP2 POP POP JUMP JUMPDEST PUSH1 0x0 DUP2 SWAP1 POP SWAP2 SWAP1 POP JUMP JUMPDEST PUSH2 0xE9D DUP2 PUSH2 0xE8A JUMP JUMPDEST DUP2 EQ PUSH2 0xEA8 JUMPI PUSH1 0x0 DUP1 REVERT JUMPDEST POP JUMP JUMPDEST PUSH1 0x0 DUP2 CALLDATALOAD SWAP1 POP PUSH2 0xEBA DUP2 PUSH2 0xE94 JUMP JUMPDEST SWAP3 SWAP2 POP POP JUMP JUMPDEST PUSH1 0x0 DUP1 PUSH1 0x40 DUP4 DUP6 SUB SLT ISZERO PUSH2 0xED7 JUMPI PUSH2 0xED6 PUSH2 0xE27 JUMP JUMPDEST JUMPDEST PUSH1 0x0 PUSH2 0xEE5 DUP6 DUP3 DUP7 ADD PUSH2 0xE75 JUMP JUMPDEST SWAP3 POP POP PUSH1 0x20 PUSH2 0xEF6 DUP6 DUP3 DUP7 ADD PUSH2 0xEAB JUMP JUMPDEST SWAP2 POP POP SWAP3 POP SWAP3 SWAP1 POP JUMP JUMPDEST PUSH1 0x0 DUP1 PUSH1 0x40 DUP4 DUP6 SUB SLT ISZERO PUSH2 0xF17 JUMPI PUSH2 0xF16 PUSH2 0xE27 JUMP JUMPDEST JUMPDEST PUSH1 0x0 PUSH2 0xF25 DUP6 DUP3 DUP7 ADD PUSH2 0xE75 JUMP JUMPDEST SWAP3 POP POP PUSH1 0x20 PUSH2 0xF36 DUP6 DUP3 DUP7 ADD PUSH2 0xE75 JUMP JUMPDEST SWAP2 POP POP SWAP3 POP SWAP3 SWAP1 POP JUMP JUMPDEST PUSH2 0xF49 DUP2 PUSH2 0xE8A JUMP JUMPDEST DUP3 MSTORE POP POP JUMP JUMPDEST PUSH1 0x0 PUSH1 0x20 DUP3 ADD SWAP1 POP PUSH2 0xF64 PUSH1 0x0 DUP4 ADD DUP5 PUSH2 0xF40 JUMP JUMPDEST SWAP3 SWAP2 POP POP JUMP JUMPDEST PUSH1 0x0 DUP1 PUSH1 0x0 PUSH1 0x60 DUP5 DUP7 SUB SLT ISZERO PUSH2 0xF83 JUMPI PUSH2 0xF82 PUSH2 0xE27 JUMP JUMPDEST JUMPDEST PUSH1 0x0 PUSH2 0xF91 DUP7 DUP3 DUP8 ADD PUSH2 0xE75 JUMP JUMPDEST SWAP4 POP POP PUSH1 0x20 PUSH2 0xFA2 DUP7 DUP3 DUP8 ADD PUSH2 0xE75 JUMP JUMPDEST SWAP3 POP POP PUSH1 0x40 PUSH2 0xFB3 DUP7 DUP3 DUP8 ADD PUSH2 0xEAB JUMP JUMPDEST SWAP2 POP POP SWAP3 POP SWAP3 POP SWAP3 JUMP JUMPDEST PUSH2 0xFC6 DUP2 PUSH2 0xE4C JUMP JUMPDEST DUP3 MSTORE POP POP JUMP JUMPDEST PUSH1 0x0 PUSH1 0x20 DUP3 ADD SWAP1 POP PUSH2 0xFE1 PUSH1 0x0 DUP4 ADD DUP5 PUSH2 0xFBD JUMP JUMPDEST SWAP3 SWAP2 POP POP JUMP JUMPDEST PUSH1 0x0 DUP2 MLOAD SWAP1 POP PUSH2 0xFF6 DUP2 PUSH2 0xE94 JUMP JUMPDEST SWAP3 SWAP2 POP POP JUMP JUMPDEST PUSH1 0x0 PUSH1 0x20 DUP3 DUP5 SUB SLT ISZERO PUSH2 0x1012 JUMPI PUSH2 0x1011 PUSH2 0xE27 JUMP JUMPDEST JUMPDEST PUSH1 0x0 PUSH2 0x1020 DUP5 DUP3 DUP6 ADD PUSH2 0xFE7 JUMP JUMPDEST SWAP2 POP POP SWAP3 SWAP2 POP POP JUMP JUMPDEST PUSH1 0x0 DUP3 DUP3 MSTORE PUSH1 0x20 DUP3 ADD SWAP1 POP SWAP3 SWAP2 POP POP JUMP JUMPDEST PUSH32 0x596F7520646F6E2774206861766520656E6F75676820746F6B656E7320746F20 PUSH1 0x0 DUP3 ADD MSTORE PUSH32 0x7377617020776974680000000000000000000000000000000000000000000000 PUSH1 0x20 DUP3 ADD MSTORE POP JUMP JUMPDEST PUSH1 0x0 PUSH2 0x1096 PUSH1 0x29 DUP4 PUSH2 0x1029 JUMP JUMPDEST SWAP2 POP PUSH2 0x10A1 DUP3 PUSH2 0x103A JUMP JUMPDEST PUSH1 0x40 DUP3 ADD SWAP1 POP SWAP2 SWAP1 POP JUMP JUMPDEST PUSH1 0x0 PUSH1 0x20 DUP3 ADD SWAP1 POP DUP2 DUP2 SUB PUSH1 0x0 DUP4 ADD MSTORE PUSH2 0x10C5 DUP2 PUSH2 0x1089 JUMP JUMPDEST SWAP1 POP SWAP2 SWAP1 POP JUMP JUMPDEST PUSH1 0x0 PUSH1 0x40 DUP3 ADD SWAP1 POP PUSH2 0x10E1 PUSH1 0x0 DUP4 ADD DUP6 PUSH2 0xFBD JUMP JUMPDEST PUSH2 0x10EE PUSH1 0x20 DUP4 ADD DUP5 PUSH2 0xFBD JUMP JUMPDEST SWAP4 SWAP3 POP POP POP JUMP JUMPDEST PUSH1 0x0 PUSH1 0x60 DUP3 ADD SWAP1 POP PUSH2 0x110A PUSH1 0x0 DUP4 ADD DUP7 PUSH2 0xFBD JUMP JUMPDEST PUSH2 0x1117 PUSH1 0x20 DUP4 ADD DUP6 PUSH2 0xFBD JUMP JUMPDEST PUSH2 0x1124 PUSH1 0x40 DUP4 ADD DUP5 PUSH2 0xF40 JUMP JUMPDEST SWAP5 SWAP4 POP POP POP POP JUMP JUMPDEST PUSH1 0x0 DUP2 ISZERO ISZERO SWAP1 POP SWAP2 SWAP1 POP JUMP JUMPDEST PUSH2 0x1141 DUP2 PUSH2 0x112C JUMP JUMPDEST DUP2 EQ PUSH2 0x114C JUMPI PUSH1 0x0 DUP1 REVERT JUMPDEST POP JUMP JUMPDEST PUSH1 0x0 DUP2 MLOAD SWAP1 POP PUSH2 0x115E DUP2 PUSH2 0x1138 JUMP JUMPDEST SWAP3 SWAP2 POP POP JUMP JUMPDEST PUSH1 0x0 PUSH1 0x20 DUP3 DUP5 SUB SLT ISZERO PUSH2 0x117A JUMPI PUSH2 0x1179 PUSH2 0xE27 JUMP JUMPDEST JUMPDEST PUSH1 0x0 PUSH2 0x1188 DUP5 DUP3 DUP6 ADD PUSH2 0x114F JUMP JUMPDEST SWAP2 POP POP SWAP3 SWAP2 POP POP JUMP JUMPDEST PUSH1 0x0 DUP2 SWAP1 POP SWAP2 SWAP1 POP JUMP JUMPDEST PUSH1 0x0 DUP2 SWAP1 POP SWAP2 SWAP1 POP JUMP JUMPDEST PUSH1 0x0 PUSH2 0x11C0 PUSH2 0x11BB PUSH2 0x11B6 DUP5 PUSH2 0x1191 JUMP JUMPDEST PUSH2 0x119B JUMP JUMPDEST PUSH2 0xE8A JUMP JUMPDEST SWAP1 POP SWAP2 SWAP1 POP JUMP JUMPDEST PUSH2 0x11D0 DUP2 PUSH2 0x11A5 JUMP JUMPDEST DUP3 MSTORE POP POP JUMP JUMPDEST PUSH1 0x0 PUSH1 0x40 DUP3 ADD SWAP1 POP PUSH2 0x11EB PUSH1 0x0 DUP4 ADD DUP6 PUSH2 0xFBD JUMP JUMPDEST PUSH2 0x11F8 PUSH1 0x20 DUP4 ADD DUP5 PUSH2 0x11C7 JUMP JUMPDEST SWAP4 SWAP3 POP POP POP JUMP JUMPDEST PUSH1 0x0 PUSH1 0x40 DUP3 ADD SWAP1 POP PUSH2 0x1214 PUSH1 0x0 DUP4 ADD DUP6 PUSH2 0xFBD JUMP JUMPDEST PUSH2 0x1221 PUSH1 0x20 DUP4 ADD DUP5 PUSH2 0xF40 JUMP JUMPDEST SWAP4 SWAP3 POP POP POP JUMP JUMPDEST PUSH32 0x4E487B7100000000000000000000000000000000000000000000000000000000 PUSH1 0x0 MSTORE PUSH1 0x11 PUSH1 0x4 MSTORE PUSH1 0x24 PUSH1 0x0 REVERT JUMPDEST PUSH1 0x0 PUSH2 0x1262 DUP3 PUSH2 0xE8A JUMP JUMPDEST SWAP2 POP PUSH2 0x126D DUP4 PUSH2 0xE8A JUMP JUMPDEST SWAP3 POP DUP3 DUP3 ADD SWAP1 POP DUP1 DUP3 GT ISZERO PUSH2 0x1285 JUMPI PUSH2 0x1284 PUSH2 0x1228 JUMP JUMPDEST JUMPDEST SWAP3 SWAP2 POP POP JUMP JUMPDEST PUSH32 0x7573657220646F6573206E6F74206861766520656E6F756768206465706F7369 PUSH1 0x0 DUP3 ADD MSTORE PUSH32 0x7420666F722074686973207769746864726177616C0000000000000000000000 PUSH1 0x20 DUP3 ADD MSTORE POP JUMP JUMPDEST PUSH1 0x0 PUSH2 0x12E7 PUSH1 0x35 DUP4 PUSH2 0x1029 JUMP JUMPDEST SWAP2 POP PUSH2 0x12F2 DUP3 PUSH2 0x128B JUMP JUMPDEST PUSH1 0x40 DUP3 ADD SWAP1 POP SWAP2 SWAP1 POP JUMP JUMPDEST PUSH1 0x0 PUSH1 0x20 DUP3 ADD SWAP1 POP DUP2 DUP2 SUB PUSH1 0x0 DUP4 ADD MSTORE PUSH2 0x1316 DUP2 PUSH2 0x12DA JUMP JUMPDEST SWAP1 POP SWAP2 SWAP1 POP JUMP JUMPDEST PUSH1 0x0 PUSH2 0x1328 DUP3 PUSH2 0xE8A JUMP JUMPDEST SWAP2 POP PUSH2 0x1333 DUP4 PUSH2 0xE8A JUMP JUMPDEST SWAP3 POP DUP3 DUP3 SUB SWAP1 POP DUP2 DUP2 GT ISZERO PUSH2 0x134B JUMPI PUSH2 0x134A PUSH2 0x1228 JUMP JUMPDEST JUMPDEST SWAP3 SWAP2 POP POP JUMP JUMPDEST PUSH32 0x5468697320746F6B656E20646F6573206E6F74206578697374206F6E20746869 PUSH1 0x0 DUP3 ADD MSTORE PUSH32 0x7320706F6F6C0000000000000000000000000000000000000000000000000000 PUSH1 0x20 DUP3 ADD MSTORE POP JUMP JUMPDEST PUSH1 0x0 PUSH2 0x13AD PUSH1 0x26 DUP4 PUSH2 0x1029 JUMP JUMPDEST SWAP2 POP PUSH2 0x13B8 DUP3 PUSH2 0x1351 JUMP JUMPDEST PUSH1 0x40 DUP3 ADD SWAP1 POP SWAP2 SWAP1 POP JUMP JUMPDEST PUSH1 0x0 PUSH1 0x20 DUP3 ADD SWAP1 POP DUP2 DUP2 SUB PUSH1 0x0 DUP4 ADD MSTORE PUSH2 0x13DC DUP2 PUSH2 0x13A0 JUMP JUMPDEST SWAP1 POP SWAP2 SWAP1 POP JUMP JUMPDEST PUSH32 0x7468697320746F6B656E20646F6573206E6F74206578697374206F6E20746869 PUSH1 0x0 DUP3 ADD MSTORE PUSH32 0x7320706F6F6C0000000000000000000000000000000000000000000000000000 PUSH1 0x20 DUP3 ADD MSTORE POP JUMP JUMPDEST PUSH1 0x0 PUSH2 0x143F PUSH1 0x26 DUP4 PUSH2 0x1029 JUMP JUMPDEST SWAP2 POP PUSH2 0x144A DUP3 PUSH2 0x13E3 JUMP JUMPDEST PUSH1 0x40 DUP3 ADD SWAP1 POP SWAP2 SWAP1 POP JUMP JUMPDEST PUSH1 0x0 PUSH1 0x20 DUP3 ADD SWAP1 POP DUP2 DUP2 SUB PUSH1 0x0 DUP4 ADD MSTORE PUSH2 0x146E DUP2 PUSH2 0x1432 JUMP JUMPDEST SWAP1 POP SWAP2 SWAP1 POP JUMP JUMPDEST PUSH32 0x4E487B7100000000000000000000000000000000000000000000000000000000 PUSH1 0x0 MSTORE PUSH1 0x12 PUSH1 0x4 MSTORE PUSH1 0x24 PUSH1 0x0 REVERT JUMPDEST PUSH1 0x0 PUSH2 0x14AF DUP3 PUSH2 0xE8A JUMP JUMPDEST SWAP2 POP PUSH2 0x14BA DUP4 PUSH2 0xE8A JUMP JUMPDEST SWAP3 POP DUP3 PUSH2 0x14CA JUMPI PUSH2 0x14C9 PUSH2 0x1475 JUMP JUMPDEST JUMPDEST DUP3 DUP3 DIV SWAP1 POP SWAP3 SWAP2 POP POP JUMP JUMPDEST PUSH32 0x5573657220646F6573206E6F74206861766520656E6F75676820666F72207468 PUSH1 0x0 DUP3 ADD MSTORE PUSH32 0x6973207472616E73616374696F6E000000000000000000000000000000000000 PUSH1 0x20 DUP3 ADD MSTORE POP JUMP JUMPDEST PUSH1 0x0 PUSH2 0x1531 PUSH1 0x2E DUP4 PUSH2 0x1029 JUMP JUMPDEST SWAP2 POP PUSH2 0x153C DUP3 PUSH2 0x14D5 JUMP JUMPDEST PUSH1 0x40 DUP3 ADD SWAP1 POP SWAP2 SWAP1 POP JUMP JUMPDEST PUSH1 0x0 PUSH1 0x20 DUP3 ADD SWAP1 POP DUP2 DUP2 SUB PUSH1 0x0 DUP4 ADD MSTORE PUSH2 0x1560 DUP2 PUSH2 0x1524 JUMP JUMPDEST SWAP1 POP SWAP2 SWAP1 POP JUMP JUMPDEST PUSH1 0x0 PUSH2 0x1572 DUP3 PUSH2 0xE8A JUMP JUMPDEST SWAP2 POP PUSH2 0x157D DUP4 PUSH2 0xE8A JUMP JUMPDEST SWAP3 POP DUP3 DUP3 MUL PUSH2 0x158B DUP2 PUSH2 0xE8A JUMP JUMPDEST SWAP2 POP DUP3 DUP3 DIV DUP5 EQ DUP4 ISZERO OR PUSH2 0x15A2 JUMPI PUSH2 0x15A1 PUSH2 0x1228 JUMP JUMPDEST JUMPDEST POP SWAP3 SWAP2 POP POP JUMP INVALID LOG2 PUSH5 0x6970667358 0x22 SLT KECCAK256 PUSH8 0xB94F5C5247EE1928 PUSH8 0x5E382E5E055698F4 0x2C SHR 0xB0 0xAE 0xB1 0xBE PUSH5 0x5117304ADA DIV 0xA9 PUSH5 0x736F6C6343 STOP ADDMOD SLT STOP CALLER "
				},
				"gasEstimates": {
					"creation": {
						"codeDepositCost": "1119800",
						"executionCost": "1160",
						"totalCost": "1120960"
					},
					"external": {
						"balances(address,address)": "infinite",
						"deposit(address,uint256)": "infinite",
						"swap(address,address,uint256)": "infinite",
						"swapRates(address,address)": "infinite",
						"withdrawal(address,uint256)": "infinite"
					}
				},
				"methodIdentifiers": {
					"balances(address,address)": "c23f001f",
					"deposit(address,uint256)": "47e7ef24",
					"swap(address,address,uint256)": "df791e50",
					"swapRates(address,address)": "82ce2b57",
					"withdrawal(address,uint256)": "5a6b26ba"
				}
			},
			"storageLayout": {
				"storage": [
					{
						"astId": 112,
						"contract": "pool.sol:Pool",
						"label": "balances",
						"offset": 0,
						"slot": "0",
						"type": "t_mapping(t_address,t_mapping(t_address,t_uint256))"
					}
				],
				"types": {
					"t_address": {
						"encoding": "inplace",
						"label": "address",
						"numberOfBytes": "20"
					},
					"t_mapping(t_address,t_mapping(t_address,t_uint256))": {
						"encoding": "mapping",
						"key": "t_address",
						"label": "mapping(address => mapping(address => uint256))",
						"numberOfBytes": "32",
						"value": "t_mapping(t_address,t_uint256)"
					},
					"t_mapping(t_address,t_uint256)": {
						"encoding": "mapping",
						"key": "t_address",
						"label": "mapping(address => uint256)",
						"numberOfBytes": "32",
						"value": "t_uint256"
					},
					"t_uint256": {
						"encoding": "inplace",
						"label": "uint256",
						"numberOfBytes": "32"
					}
				}
			},
			"userdoc": {
				"kind": "user",
				"methods": {},
				"version": 1
			}
		}
	}
}