{
	"pool.sol": {
		"Pool": {
			"abi": [
				{
					"inputs": [
						{
							"internalType": "address",
							"name": "user",
							"type": "address"
						},
						{
							"internalType": "address",
							"name": "token",
							"type": "address"
						}
					],
					"name": "balanceOf",
					"outputs": [
						{
							"internalType": "uint256",
							"name": "",
							"type": "uint256"
						}
					],
					"stateMutability": "view",
					"type": "function"
				},
				{
					"inputs": [
						{
							"internalType": "address",
							"name": "",
							"type": "address"
						},
						{
							"internalType": "address",
							"name": "",
							"type": "address"
						}
					],
					"name": "balances",
					"outputs": [
						{
							"internalType": "uint256",
							"name": "",
							"type": "uint256"
						}
					],
					"stateMutability": "view",
					"type": "function"
				},
				{
					"inputs": [
						{
							"internalType": "address",
							"name": "tokenAddr",
							"type": "address"
						},
						{
							"internalType": "uint256",
							"name": "amount",
							"type": "uint256"
						}
					],
					"name": "deposit",
					"outputs": [],
					"stateMutability": "nonpayable",
					"type": "function"
				},
				{
					"inputs": [
						{
							"internalType": "address",
							"name": "from",
							"type": "address"
						},
						{
							"internalType": "address",
							"name": "to",
							"type": "address"
						},
						{
							"internalType": "uint256",
							"name": "amount",
							"type": "uint256"
						}
					],
					"name": "swap",
					"outputs": [],
					"stateMutability": "nonpayable",
					"type": "function"
				},
				{
					"inputs": [
						{
							"internalType": "address",
							"name": "from",
							"type": "address"
						},
						{
							"internalType": "address",
							"name": "to",
							"type": "address"
						}
					],
					"name": "swapRates",
					"outputs": [
						{
							"internalType": "uint256",
							"name": "",
							"type": "uint256"
						}
					],
					"stateMutability": "view",
					"type": "function"
				},
				{
					"inputs": [
						{
							"internalType": "address",
							"name": "tokenAddr",
							"type": "address"
						},
						{
							"internalType": "uint256",
							"name": "amount",
							"type": "uint256"
						}
					],
					"name": "withdrawal",
					"outputs": [],
					"stateMutability": "nonpayable",
					"type": "function"
				}
			],
			"devdoc": {
				"kind": "dev",
				"methods": {},
				"version": 1
			},
			"evm": {
				"assembly": "    /* \"pool.sol\":559:2542  contract Pool is pool{... */\n  mstore(0x40, 0x80)\n  callvalue\n  dup1\n  iszero\n  tag_1\n  jumpi\n  0x00\n  dup1\n  revert\ntag_1:\n  pop\n  dataSize(sub_0)\n  dup1\n  dataOffset(sub_0)\n  0x00\n  codecopy\n  0x00\n  return\nstop\n\nsub_0: assembly {\n        /* \"pool.sol\":559:2542  contract Pool is pool{... */\n      mstore(0x40, 0x80)\n      callvalue\n      dup1\n      iszero\n      tag_1\n      jumpi\n      0x00\n      dup1\n      revert\n    tag_1:\n      pop\n      jumpi(tag_2, lt(calldatasize, 0x04))\n      shr(0xe0, calldataload(0x00))\n      dup1\n      0x47e7ef24\n      eq\n      tag_3\n      jumpi\n      dup1\n      0x5a6b26ba\n      eq\n      tag_4\n      jumpi\n      dup1\n      0x82ce2b57\n      eq\n      tag_5\n      jumpi\n      dup1\n      0xc23f001f\n      eq\n      tag_6\n      jumpi\n      dup1\n      0xdf791e50\n      eq\n      tag_7\n      jumpi\n      dup1\n      0xf7888aec\n      eq\n      tag_8\n      jumpi\n    tag_2:\n      0x00\n      dup1\n      revert\n        /* \"pool.sol\":654:989  function deposit(address tokenAddr, uint amount) external {... */\n    tag_3:\n      tag_9\n      0x04\n      dup1\n      calldatasize\n      sub\n      dup2\n      add\n      swap1\n      tag_10\n      swap2\n      swap1\n      tag_11\n      jump\t// in\n    tag_10:\n      tag_12\n      jump\t// in\n    tag_9:\n      stop\n        /* \"pool.sol\":995:1341  function withdrawal(address tokenAddr, uint amount) external{... */\n    tag_4:\n      tag_13\n      0x04\n      dup1\n      calldatasize\n      sub\n      dup2\n      add\n      swap1\n      tag_14\n      swap2\n      swap1\n      tag_11\n      jump\t// in\n    tag_14:\n      tag_15\n      jump\t// in\n    tag_13:\n      stop\n        /* \"pool.sol\":1347:1790  function swapRates(address from, address to) view public returns (uint256){... */\n    tag_5:\n      tag_16\n      0x04\n      dup1\n      calldatasize\n      sub\n      dup2\n      add\n      swap1\n      tag_17\n      swap2\n      swap1\n      tag_18\n      jump\t// in\n    tag_17:\n      tag_19\n      jump\t// in\n    tag_16:\n      mload(0x40)\n      tag_20\n      swap2\n      swap1\n      tag_21\n      jump\t// in\n    tag_20:\n      mload(0x40)\n      dup1\n      swap2\n      sub\n      swap1\n      return\n        /* \"pool.sol\":587:647  mapping(address => mapping(address => uint)) public balances */\n    tag_6:\n      tag_22\n      0x04\n      dup1\n      calldatasize\n      sub\n      dup2\n      add\n      swap1\n      tag_23\n      swap2\n      swap1\n      tag_18\n      jump\t// in\n    tag_23:\n      tag_24\n      jump\t// in\n    tag_22:\n      mload(0x40)\n      tag_25\n      swap2\n      swap1\n      tag_21\n      jump\t// in\n    tag_25:\n      mload(0x40)\n      dup1\n      swap2\n      sub\n      swap1\n      return\n        /* \"pool.sol\":1797:2410  function swap(address from, address to, uint amount ) external{... */\n    tag_7:\n      tag_26\n      0x04\n      dup1\n      calldatasize\n      sub\n      dup2\n      add\n      swap1\n      tag_27\n      swap2\n      swap1\n      tag_28\n      jump\t// in\n    tag_27:\n      tag_29\n      jump\t// in\n    tag_26:\n      stop\n        /* \"pool.sol\":2416:2540  function balanceOf(address user, address token) external view returns (uint256){... */\n    tag_8:\n      tag_30\n      0x04\n      dup1\n      calldatasize\n      sub\n      dup2\n      add\n      swap1\n      tag_31\n      swap2\n      swap1\n      tag_18\n      jump\t// in\n    tag_31:\n      tag_32\n      jump\t// in\n    tag_30:\n      mload(0x40)\n      tag_33\n      swap2\n      swap1\n      tag_21\n      jump\t// in\n    tag_33:\n      mload(0x40)\n      dup1\n      swap2\n      sub\n      swap1\n      return\n        /* \"pool.sol\":654:989  function deposit(address tokenAddr, uint amount) external {... */\n    tag_12:\n        /* \"pool.sol\":722:734  IERC20 token */\n      0x00\n        /* \"pool.sol\":744:753  tokenAddr */\n      dup3\n        /* \"pool.sol\":722:754  IERC20 token = IERC20(tokenAddr) */\n      swap1\n      pop\n        /* \"pool.sol\":803:809  amount */\n      dup2\n        /* \"pool.sol\":772:777  token */\n      dup2\n        /* \"pool.sol\":772:787  token.balanceOf */\n      0xffffffffffffffffffffffffffffffffffffffff\n      and\n      0x70a08231\n        /* \"pool.sol\":788:798  msg.sender */\n      caller\n        /* \"pool.sol\":772:799  token.balanceOf(msg.sender) */\n      mload(0x40)\n      dup3\n      0xffffffff\n      and\n      0xe0\n      shl\n      dup2\n      mstore\n      0x04\n      add\n      tag_35\n      swap2\n      swap1\n      tag_36\n      jump\t// in\n    tag_35:\n      0x20\n      mload(0x40)\n      dup1\n      dup4\n      sub\n      dup2\n      dup7\n      gas\n      staticcall\n      iszero\n      dup1\n      iszero\n      tag_38\n      jumpi\n      returndatasize\n      0x00\n      dup1\n      returndatacopy\n      revert(0x00, returndatasize)\n    tag_38:\n      pop\n      pop\n      pop\n      pop\n      mload(0x40)\n      returndatasize\n      not(0x1f)\n      0x1f\n      dup3\n      add\n      and\n      dup3\n      add\n      dup1\n      0x40\n      mstore\n      pop\n      dup2\n      add\n      swap1\n      tag_39\n      swap2\n      swap1\n      tag_40\n      jump\t// in\n    tag_39:\n        /* \"pool.sol\":772:809  token.balanceOf(msg.sender) >= amount */\n      lt\n      iszero\n        /* \"pool.sol\":764:835  require(token.balanceOf(msg.sender) >= amount, \"Insufficient balances\") */\n      tag_41\n      jumpi\n      mload(0x40)\n      0x08c379a000000000000000000000000000000000000000000000000000000000\n      dup2\n      mstore\n      0x04\n      add\n      tag_42\n      swap1\n      tag_43\n      jump\t// in\n    tag_42:\n      mload(0x40)\n      dup1\n      swap2\n      sub\n      swap1\n      revert\n    tag_41:\n        /* \"pool.sol\":853:858  token */\n      dup1\n        /* \"pool.sol\":853:871  token.transferFrom */\n      0xffffffffffffffffffffffffffffffffffffffff\n      and\n      0x23b872dd\n        /* \"pool.sol\":872:882  msg.sender */\n      caller\n        /* \"pool.sol\":891:895  this */\n      address\n        /* \"pool.sol\":898:904  amount */\n      dup6\n        /* \"pool.sol\":853:905  token.transferFrom(msg.sender,address(this), amount) */\n      mload(0x40)\n      dup5\n      0xffffffff\n      and\n      0xe0\n      shl\n      dup2\n      mstore\n      0x04\n      add\n      tag_44\n      swap4\n      swap3\n      swap2\n      swap1\n      tag_45\n      jump\t// in\n    tag_44:\n      0x20\n      mload(0x40)\n      dup1\n      dup4\n      sub\n      dup2\n      0x00\n      dup8\n      gas\n      call\n      iszero\n      dup1\n      iszero\n      tag_47\n      jumpi\n      returndatasize\n      0x00\n      dup1\n      returndatacopy\n      revert(0x00, returndatasize)\n    tag_47:\n      pop\n      pop\n      pop\n      pop\n      mload(0x40)\n      returndatasize\n      not(0x1f)\n      0x1f\n      dup3\n      add\n      and\n      dup3\n      add\n      dup1\n      0x40\n      mstore\n      pop\n      dup2\n      add\n      swap1\n      tag_48\n      swap2\n      swap1\n      tag_49\n      jump\t// in\n    tag_48:\n        /* \"pool.sol\":845:931  require(token.transferFrom(msg.sender,address(this), amount), \"Deposit tokens failed\") */\n      tag_50\n      jumpi\n      mload(0x40)\n      0x08c379a000000000000000000000000000000000000000000000000000000000\n      dup2\n      mstore\n      0x04\n      add\n      tag_51\n      swap1\n      tag_52\n      jump\t// in\n    tag_51:\n      mload(0x40)\n      dup1\n      swap2\n      sub\n      swap1\n      revert\n    tag_50:\n        /* \"pool.sol\":976:982  amount */\n      dup2\n        /* \"pool.sol\":941:949  balances */\n      0x00\n        /* \"pool.sol\":941:961  balances[msg.sender] */\n      dup1\n        /* \"pool.sol\":950:960  msg.sender */\n      caller\n        /* \"pool.sol\":941:961  balances[msg.sender] */\n      0xffffffffffffffffffffffffffffffffffffffff\n      and\n      0xffffffffffffffffffffffffffffffffffffffff\n      and\n      dup2\n      mstore\n      0x20\n      add\n      swap1\n      dup2\n      mstore\n      0x20\n      add\n      0x00\n      keccak256\n        /* \"pool.sol\":941:972  balances[msg.sender][tokenAddr] */\n      0x00\n        /* \"pool.sol\":962:971  tokenAddr */\n      dup6\n        /* \"pool.sol\":941:972  balances[msg.sender][tokenAddr] */\n      0xffffffffffffffffffffffffffffffffffffffff\n      and\n      0xffffffffffffffffffffffffffffffffffffffff\n      and\n      dup2\n      mstore\n      0x20\n      add\n      swap1\n      dup2\n      mstore\n      0x20\n      add\n      0x00\n      keccak256\n      0x00\n        /* \"pool.sol\":941:982  balances[msg.sender][tokenAddr] += amount */\n      dup3\n      dup3\n      sload\n      tag_53\n      swap2\n      swap1\n      tag_54\n      jump\t// in\n    tag_53:\n      swap3\n      pop\n      pop\n      dup2\n      swap1\n      sstore\n      pop\n        /* \"pool.sol\":712:989  {... */\n      pop\n        /* \"pool.sol\":654:989  function deposit(address tokenAddr, uint amount) external {... */\n      pop\n      pop\n      jump\t// out\n        /* \"pool.sol\":995:1341  function withdrawal(address tokenAddr, uint amount) external{... */\n    tag_15:\n        /* \"pool.sol\":1065:1077  IERC20 token */\n      0x00\n        /* \"pool.sol\":1087:1096  tokenAddr */\n      dup3\n        /* \"pool.sol\":1065:1097  IERC20 token = IERC20(tokenAddr) */\n      swap1\n      pop\n        /* \"pool.sol\":1151:1157  amount */\n      dup2\n        /* \"pool.sol\":1116:1124  balances */\n      0x00\n        /* \"pool.sol\":1116:1136  balances[msg.sender] */\n      dup1\n        /* \"pool.sol\":1125:1135  msg.sender */\n      caller\n        /* \"pool.sol\":1116:1136  balances[msg.sender] */\n      0xffffffffffffffffffffffffffffffffffffffff\n      and\n      0xffffffffffffffffffffffffffffffffffffffff\n      and\n      dup2\n      mstore\n      0x20\n      add\n      swap1\n      dup2\n      mstore\n      0x20\n      add\n      0x00\n      keccak256\n        /* \"pool.sol\":1116:1147  balances[msg.sender][tokenAddr] */\n      0x00\n        /* \"pool.sol\":1137:1146  tokenAddr */\n      dup6\n        /* \"pool.sol\":1116:1147  balances[msg.sender][tokenAddr] */\n      0xffffffffffffffffffffffffffffffffffffffff\n      and\n      0xffffffffffffffffffffffffffffffffffffffff\n      and\n      dup2\n      mstore\n      0x20\n      add\n      swap1\n      dup2\n      mstore\n      0x20\n      add\n      0x00\n      keccak256\n      sload\n        /* \"pool.sol\":1116:1157  balances[msg.sender][tokenAddr] >= amount */\n      lt\n      iszero\n        /* \"pool.sol\":1108:1196  require(balances[msg.sender][tokenAddr] >= amount,\"Insufficient balance for withdrawal\") */\n      tag_56\n      jumpi\n      mload(0x40)\n      0x08c379a000000000000000000000000000000000000000000000000000000000\n      dup2\n      mstore\n      0x04\n      add\n      tag_57\n      swap1\n      tag_58\n      jump\t// in\n    tag_57:\n      mload(0x40)\n      dup1\n      swap2\n      sub\n      swap1\n      revert\n    tag_56:\n        /* \"pool.sol\":1223:1228  token */\n      dup1\n        /* \"pool.sol\":1223:1237  token.transfer */\n      0xffffffffffffffffffffffffffffffffffffffff\n      and\n      0xa9059cbb\n        /* \"pool.sol\":1238:1248  msg.sender */\n      caller\n        /* \"pool.sol\":1250:1256  amount */\n      dup5\n        /* \"pool.sol\":1223:1257  token.transfer(msg.sender, amount) */\n      mload(0x40)\n      dup4\n      0xffffffff\n      and\n      0xe0\n      shl\n      dup2\n      mstore\n      0x04\n      add\n      tag_59\n      swap3\n      swap2\n      swap1\n      tag_60\n      jump\t// in\n    tag_59:\n      0x20\n      mload(0x40)\n      dup1\n      dup4\n      sub\n      dup2\n      0x00\n      dup8\n      gas\n      call\n      iszero\n      dup1\n      iszero\n      tag_62\n      jumpi\n      returndatasize\n      0x00\n      dup1\n      returndatacopy\n      revert(0x00, returndatasize)\n    tag_62:\n      pop\n      pop\n      pop\n      pop\n      mload(0x40)\n      returndatasize\n      not(0x1f)\n      0x1f\n      dup3\n      add\n      and\n      dup3\n      add\n      dup1\n      0x40\n      mstore\n      pop\n      dup2\n      add\n      swap1\n      tag_63\n      swap2\n      swap1\n      tag_49\n      jump\t// in\n    tag_63:\n        /* \"pool.sol\":1215:1283  require(token.transfer(msg.sender, amount), \"Witdraw tokens failed\") */\n      tag_64\n      jumpi\n      mload(0x40)\n      0x08c379a000000000000000000000000000000000000000000000000000000000\n      dup2\n      mstore\n      0x04\n      add\n      tag_65\n      swap1\n      tag_66\n      jump\t// in\n    tag_65:\n      mload(0x40)\n      dup1\n      swap2\n      sub\n      swap1\n      revert\n    tag_64:\n        /* \"pool.sol\":1328:1334  amount */\n      dup2\n        /* \"pool.sol\":1293:1301  balances */\n      0x00\n        /* \"pool.sol\":1293:1313  balances[msg.sender] */\n      dup1\n        /* \"pool.sol\":1302:1312  msg.sender */\n      caller\n        /* \"pool.sol\":1293:1313  balances[msg.sender] */\n      0xffffffffffffffffffffffffffffffffffffffff\n      and\n      0xffffffffffffffffffffffffffffffffffffffff\n      and\n      dup2\n      mstore\n      0x20\n      add\n      swap1\n      dup2\n      mstore\n      0x20\n      add\n      0x00\n      keccak256\n        /* \"pool.sol\":1293:1324  balances[msg.sender][tokenAddr] */\n      0x00\n        /* \"pool.sol\":1314:1323  tokenAddr */\n      dup6\n        /* \"pool.sol\":1293:1324  balances[msg.sender][tokenAddr] */\n      0xffffffffffffffffffffffffffffffffffffffff\n      and\n      0xffffffffffffffffffffffffffffffffffffffff\n      and\n      dup2\n      mstore\n      0x20\n      add\n      swap1\n      dup2\n      mstore\n      0x20\n      add\n      0x00\n      keccak256\n      0x00\n        /* \"pool.sol\":1293:1334  balances[msg.sender][tokenAddr] -= amount */\n      dup3\n      dup3\n      sload\n      tag_67\n      swap2\n      swap1\n      tag_68\n      jump\t// in\n    tag_67:\n      swap3\n      pop\n      pop\n      dup2\n      swap1\n      sstore\n      pop\n        /* \"pool.sol\":1055:1341  {... */\n      pop\n        /* \"pool.sol\":995:1341  function withdrawal(address tokenAddr, uint amount) external{... */\n      pop\n      pop\n      jump\t// out\n        /* \"pool.sol\":1347:1790  function swapRates(address from, address to) view public returns (uint256){... */\n    tag_19:\n        /* \"pool.sol\":1413:1420  uint256 */\n      0x00\n        /* \"pool.sol\":1431:1447  IERC20 fromToken */\n      dup1\n        /* \"pool.sol\":1457:1461  from */\n      dup4\n        /* \"pool.sol\":1431:1462  IERC20 fromToken = IERC20(from) */\n      swap1\n      pop\n        /* \"pool.sol\":1472:1486  IERC20 toToken */\n      0x00\n        /* \"pool.sol\":1496:1498  to */\n      dup4\n        /* \"pool.sol\":1472:1499  IERC20 toToken = IERC20(to) */\n      swap1\n      pop\n        /* \"pool.sol\":1556:1557  0 */\n      0x00\n        /* \"pool.sol\":1518:1527  fromToken */\n      dup3\n        /* \"pool.sol\":1518:1537  fromToken.balanceOf */\n      0xffffffffffffffffffffffffffffffffffffffff\n      and\n      0x70a08231\n        /* \"pool.sol\":1546:1550  this */\n      address\n        /* \"pool.sol\":1518:1552  fromToken.balanceOf(address(this)) */\n      mload(0x40)\n      dup3\n      0xffffffff\n      and\n      0xe0\n      shl\n      dup2\n      mstore\n      0x04\n      add\n      tag_70\n      swap2\n      swap1\n      tag_36\n      jump\t// in\n    tag_70:\n      0x20\n      mload(0x40)\n      dup1\n      dup4\n      sub\n      dup2\n      dup7\n      gas\n      staticcall\n      iszero\n      dup1\n      iszero\n      tag_72\n      jumpi\n      returndatasize\n      0x00\n      dup1\n      returndatacopy\n      revert(0x00, returndatasize)\n    tag_72:\n      pop\n      pop\n      pop\n      pop\n      mload(0x40)\n      returndatasize\n      not(0x1f)\n      0x1f\n      dup3\n      add\n      and\n      dup3\n      add\n      dup1\n      0x40\n      mstore\n      pop\n      dup2\n      add\n      swap1\n      tag_73\n      swap2\n      swap1\n      tag_40\n      jump\t// in\n    tag_73:\n        /* \"pool.sol\":1518:1557  fromToken.balanceOf(address(this)) != 0 */\n      sub\n        /* \"pool.sol\":1510:1600  require(fromToken.balanceOf(address(this)) != 0, \"This token does not exist on this pool\") */\n      tag_74\n      jumpi\n      mload(0x40)\n      0x08c379a000000000000000000000000000000000000000000000000000000000\n      dup2\n      mstore\n      0x04\n      add\n      tag_75\n      swap1\n      tag_76\n      jump\t// in\n    tag_75:\n      mload(0x40)\n      dup1\n      swap2\n      sub\n      swap1\n      revert\n    tag_74:\n        /* \"pool.sol\":1654:1655  0 */\n      0x00\n        /* \"pool.sol\":1618:1625  toToken */\n      dup2\n        /* \"pool.sol\":1618:1635  toToken.balanceOf */\n      0xffffffffffffffffffffffffffffffffffffffff\n      and\n      0x70a08231\n        /* \"pool.sol\":1644:1648  this */\n      address\n        /* \"pool.sol\":1618:1650  toToken.balanceOf(address(this)) */\n      mload(0x40)\n      dup3\n      0xffffffff\n      and\n      0xe0\n      shl\n      dup2\n      mstore\n      0x04\n      add\n      tag_77\n      swap2\n      swap1\n      tag_36\n      jump\t// in\n    tag_77:\n      0x20\n      mload(0x40)\n      dup1\n      dup4\n      sub\n      dup2\n      dup7\n      gas\n      staticcall\n      iszero\n      dup1\n      iszero\n      tag_79\n      jumpi\n      returndatasize\n      0x00\n      dup1\n      returndatacopy\n      revert(0x00, returndatasize)\n    tag_79:\n      pop\n      pop\n      pop\n      pop\n      mload(0x40)\n      returndatasize\n      not(0x1f)\n      0x1f\n      dup3\n      add\n      and\n      dup3\n      add\n      dup1\n      0x40\n      mstore\n      pop\n      dup2\n      add\n      swap1\n      tag_80\n      swap2\n      swap1\n      tag_40\n      jump\t// in\n    tag_80:\n        /* \"pool.sol\":1618:1655  toToken.balanceOf(address(this)) != 0 */\n      sub\n        /* \"pool.sol\":1610:1698  require(toToken.balanceOf(address(this)) != 0, \"this token does not exist on this pool\") */\n      tag_81\n      jumpi\n      mload(0x40)\n      0x08c379a000000000000000000000000000000000000000000000000000000000\n      dup2\n      mstore\n      0x04\n      add\n      tag_82\n      swap1\n      tag_83\n      jump\t// in\n    tag_82:\n      mload(0x40)\n      dup1\n      swap2\n      sub\n      swap1\n      revert\n    tag_81:\n        /* \"pool.sol\":1749:1758  fromToken */\n      dup2\n        /* \"pool.sol\":1749:1768  fromToken.balanceOf */\n      0xffffffffffffffffffffffffffffffffffffffff\n      and\n      0x70a08231\n        /* \"pool.sol\":1777:1781  this */\n      address\n        /* \"pool.sol\":1749:1783  fromToken.balanceOf(address(this)) */\n      mload(0x40)\n      dup3\n      0xffffffff\n      and\n      0xe0\n      shl\n      dup2\n      mstore\n      0x04\n      add\n      tag_84\n      swap2\n      swap1\n      tag_36\n      jump\t// in\n    tag_84:\n      0x20\n      mload(0x40)\n      dup1\n      dup4\n      sub\n      dup2\n      dup7\n      gas\n      staticcall\n      iszero\n      dup1\n      iszero\n      tag_86\n      jumpi\n      returndatasize\n      0x00\n      dup1\n      returndatacopy\n      revert(0x00, returndatasize)\n    tag_86:\n      pop\n      pop\n      pop\n      pop\n      mload(0x40)\n      returndatasize\n      not(0x1f)\n      0x1f\n      dup3\n      add\n      and\n      dup3\n      add\n      dup1\n      0x40\n      mstore\n      pop\n      dup2\n      add\n      swap1\n      tag_87\n      swap2\n      swap1\n      tag_40\n      jump\t// in\n    tag_87:\n        /* \"pool.sol\":1716:1723  toToken */\n      dup2\n        /* \"pool.sol\":1716:1733  toToken.balanceOf */\n      0xffffffffffffffffffffffffffffffffffffffff\n      and\n      0x70a08231\n        /* \"pool.sol\":1742:1746  this */\n      address\n        /* \"pool.sol\":1716:1748  toToken.balanceOf(address(this)) */\n      mload(0x40)\n      dup3\n      0xffffffff\n      and\n      0xe0\n      shl\n      dup2\n      mstore\n      0x04\n      add\n      tag_88\n      swap2\n      swap1\n      tag_36\n      jump\t// in\n    tag_88:\n      0x20\n      mload(0x40)\n      dup1\n      dup4\n      sub\n      dup2\n      dup7\n      gas\n      staticcall\n      iszero\n      dup1\n      iszero\n      tag_90\n      jumpi\n      returndatasize\n      0x00\n      dup1\n      returndatacopy\n      revert(0x00, returndatasize)\n    tag_90:\n      pop\n      pop\n      pop\n      pop\n      mload(0x40)\n      returndatasize\n      not(0x1f)\n      0x1f\n      dup3\n      add\n      and\n      dup3\n      add\n      dup1\n      0x40\n      mstore\n      pop\n      dup2\n      add\n      swap1\n      tag_91\n      swap2\n      swap1\n      tag_40\n      jump\t// in\n    tag_91:\n        /* \"pool.sol\":1716:1783  toToken.balanceOf(address(this))/fromToken.balanceOf(address(this)) */\n      tag_92\n      swap2\n      swap1\n      tag_93\n      jump\t// in\n    tag_92:\n        /* \"pool.sol\":1709:1783  return toToken.balanceOf(address(this))/fromToken.balanceOf(address(this)) */\n      swap3\n      pop\n      pop\n      pop\n        /* \"pool.sol\":1347:1790  function swapRates(address from, address to) view public returns (uint256){... */\n      swap3\n      swap2\n      pop\n      pop\n      jump\t// out\n        /* \"pool.sol\":587:647  mapping(address => mapping(address => uint)) public balances */\n    tag_24:\n      mstore(0x20, 0x00)\n      dup2\n      0x00\n      mstore\n      mstore(0x20, keccak256(0x00, 0x40))\n      dup1\n      0x00\n      mstore\n      keccak256(0x00, 0x40)\n      0x00\n      swap2\n      pop\n      swap2\n      pop\n      pop\n      sload\n      dup2\n      jump\t// out\n        /* \"pool.sol\":1797:2410  function swap(address from, address to, uint amount ) external{... */\n    tag_29:\n        /* \"pool.sol\":1869:1885  IERC20 fromToken */\n      0x00\n        /* \"pool.sol\":1895:1899  from */\n      dup4\n        /* \"pool.sol\":1869:1900  IERC20 fromToken = IERC20(from) */\n      swap1\n      pop\n        /* \"pool.sol\":1910:1924  IERC20 toToken */\n      0x00\n        /* \"pool.sol\":1934:1936  to */\n      dup4\n        /* \"pool.sol\":1910:1937  IERC20 toToken = IERC20(to) */\n      swap1\n      pop\n        /* \"pool.sol\":1947:1960  uint256 rates */\n      0x00\n        /* \"pool.sol\":1963:1982  swapRates(from, to) */\n      tag_95\n        /* \"pool.sol\":1973:1977  from */\n      dup7\n        /* \"pool.sol\":1979:1981  to */\n      dup7\n        /* \"pool.sol\":1963:1972  swapRates */\n      tag_19\n        /* \"pool.sol\":1963:1982  swapRates(from, to) */\n      jump\t// in\n    tag_95:\n        /* \"pool.sol\":1947:1982  uint256 rates = swapRates(from, to) */\n      swap1\n      pop\n        /* \"pool.sol\":2044:2049  rates */\n      dup1\n        /* \"pool.sol\":2037:2043  amount */\n      dup5\n        /* \"pool.sol\":2037:2049  amount*rates */\n      tag_96\n      swap2\n      swap1\n      tag_97\n      jump\t// in\n    tag_96:\n        /* \"pool.sol\":2001:2008  toToken */\n      dup3\n        /* \"pool.sol\":2001:2018  toToken.balanceOf */\n      0xffffffffffffffffffffffffffffffffffffffff\n      and\n      0x70a08231\n        /* \"pool.sol\":2027:2031  this */\n      address\n        /* \"pool.sol\":2001:2033  toToken.balanceOf(address(this)) */\n      mload(0x40)\n      dup3\n      0xffffffff\n      and\n      0xe0\n      shl\n      dup2\n      mstore\n      0x04\n      add\n      tag_98\n      swap2\n      swap1\n      tag_36\n      jump\t// in\n    tag_98:\n      0x20\n      mload(0x40)\n      dup1\n      dup4\n      sub\n      dup2\n      dup7\n      gas\n      staticcall\n      iszero\n      dup1\n      iszero\n      tag_100\n      jumpi\n      returndatasize\n      0x00\n      dup1\n      returndatacopy\n      revert(0x00, returndatasize)\n    tag_100:\n      pop\n      pop\n      pop\n      pop\n      mload(0x40)\n      returndatasize\n      not(0x1f)\n      0x1f\n      dup3\n      add\n      and\n      dup3\n      add\n      dup1\n      0x40\n      mstore\n      pop\n      dup2\n      add\n      swap1\n      tag_101\n      swap2\n      swap1\n      tag_40\n      jump\t// in\n    tag_101:\n        /* \"pool.sol\":2001:2049  toToken.balanceOf(address(this)) >= amount*rates */\n      lt\n      iszero\n        /* \"pool.sol\":1993:2106  require(toToken.balanceOf(address(this)) >= amount*rates, \"Not enough token on the contract for the transaction\") */\n      tag_102\n      jumpi\n      mload(0x40)\n      0x08c379a000000000000000000000000000000000000000000000000000000000\n      dup2\n      mstore\n      0x04\n      add\n      tag_103\n      swap1\n      tag_104\n      jump\t// in\n    tag_103:\n      mload(0x40)\n      dup1\n      swap2\n      sub\n      swap1\n      revert\n    tag_102:\n        /* \"pool.sol\":2159:2165  amount */\n      dup4\n        /* \"pool.sol\":2124:2133  fromToken */\n      dup4\n        /* \"pool.sol\":2124:2143  fromToken.balanceOf */\n      0xffffffffffffffffffffffffffffffffffffffff\n      and\n      0x70a08231\n        /* \"pool.sol\":2144:2154  msg.sender */\n      caller\n        /* \"pool.sol\":2124:2155  fromToken.balanceOf(msg.sender) */\n      mload(0x40)\n      dup3\n      0xffffffff\n      and\n      0xe0\n      shl\n      dup2\n      mstore\n      0x04\n      add\n      tag_105\n      swap2\n      swap1\n      tag_36\n      jump\t// in\n    tag_105:\n      0x20\n      mload(0x40)\n      dup1\n      dup4\n      sub\n      dup2\n      dup7\n      gas\n      staticcall\n      iszero\n      dup1\n      iszero\n      tag_107\n      jumpi\n      returndatasize\n      0x00\n      dup1\n      returndatacopy\n      revert(0x00, returndatasize)\n    tag_107:\n      pop\n      pop\n      pop\n      pop\n      mload(0x40)\n      returndatasize\n      not(0x1f)\n      0x1f\n      dup3\n      add\n      and\n      dup3\n      add\n      dup1\n      0x40\n      mstore\n      pop\n      dup2\n      add\n      swap1\n      tag_108\n      swap2\n      swap1\n      tag_40\n      jump\t// in\n    tag_108:\n        /* \"pool.sol\":2124:2165  fromToken.balanceOf(msg.sender) >= amount */\n      lt\n      iszero\n        /* \"pool.sol\":2116:2216  require(fromToken.balanceOf(msg.sender) >= amount, \"User does not have enough for this transaction\") */\n      tag_109\n      jumpi\n      mload(0x40)\n      0x08c379a000000000000000000000000000000000000000000000000000000000\n      dup2\n      mstore\n      0x04\n      add\n      tag_110\n      swap1\n      tag_111\n      jump\t// in\n    tag_110:\n      mload(0x40)\n      dup1\n      swap2\n      sub\n      swap1\n      revert\n    tag_109:\n        /* \"pool.sol\":2235:2244  fromToken */\n      dup3\n        /* \"pool.sol\":2235:2257  fromToken.transferFrom */\n      0xffffffffffffffffffffffffffffffffffffffff\n      and\n      0x23b872dd\n        /* \"pool.sol\":2258:2268  msg.sender */\n      caller\n        /* \"pool.sol\":2278:2282  this */\n      address\n        /* \"pool.sol\":2285:2291  amount */\n      dup8\n        /* \"pool.sol\":2235:2292  fromToken.transferFrom(msg.sender, address(this), amount) */\n      mload(0x40)\n      dup5\n      0xffffffff\n      and\n      0xe0\n      shl\n      dup2\n      mstore\n      0x04\n      add\n      tag_112\n      swap4\n      swap3\n      swap2\n      swap1\n      tag_45\n      jump\t// in\n    tag_112:\n      0x20\n      mload(0x40)\n      dup1\n      dup4\n      sub\n      dup2\n      0x00\n      dup8\n      gas\n      call\n      iszero\n      dup1\n      iszero\n      tag_114\n      jumpi\n      returndatasize\n      0x00\n      dup1\n      returndatacopy\n      revert(0x00, returndatasize)\n    tag_114:\n      pop\n      pop\n      pop\n      pop\n      mload(0x40)\n      returndatasize\n      not(0x1f)\n      0x1f\n      dup3\n      add\n      and\n      dup3\n      add\n      dup1\n      0x40\n      mstore\n      pop\n      dup2\n      add\n      swap1\n      tag_115\n      swap2\n      swap1\n      tag_49\n      jump\t// in\n    tag_115:\n        /* \"pool.sol\":2227:2319  require(fromToken.transferFrom(msg.sender, address(this), amount), \"Cannot withdraw tokens\") */\n      tag_116\n      jumpi\n      mload(0x40)\n      0x08c379a000000000000000000000000000000000000000000000000000000000\n      dup2\n      mstore\n      0x04\n      add\n      tag_117\n      swap1\n      tag_118\n      jump\t// in\n    tag_117:\n      mload(0x40)\n      dup1\n      swap2\n      sub\n      swap1\n      revert\n    tag_116:\n        /* \"pool.sol\":2337:2344  toToken */\n      dup2\n        /* \"pool.sol\":2337:2353  toToken.transfer */\n      0xffffffffffffffffffffffffffffffffffffffff\n      and\n      0xa9059cbb\n        /* \"pool.sol\":2355:2365  msg.sender */\n      caller\n        /* \"pool.sol\":2374:2379  rates */\n      dup4\n        /* \"pool.sol\":2367:2373  amount */\n      dup8\n        /* \"pool.sol\":2367:2379  amount*rates */\n      tag_119\n      swap2\n      swap1\n      tag_97\n      jump\t// in\n    tag_119:\n        /* \"pool.sol\":2337:2380  toToken.transfer( msg.sender, amount*rates) */\n      mload(0x40)\n      dup4\n      0xffffffff\n      and\n      0xe0\n      shl\n      dup2\n      mstore\n      0x04\n      add\n      tag_120\n      swap3\n      swap2\n      swap1\n      tag_60\n      jump\t// in\n    tag_120:\n      0x20\n      mload(0x40)\n      dup1\n      dup4\n      sub\n      dup2\n      0x00\n      dup8\n      gas\n      call\n      iszero\n      dup1\n      iszero\n      tag_122\n      jumpi\n      returndatasize\n      0x00\n      dup1\n      returndatacopy\n      revert(0x00, returndatasize)\n    tag_122:\n      pop\n      pop\n      pop\n      pop\n      mload(0x40)\n      returndatasize\n      not(0x1f)\n      0x1f\n      dup3\n      add\n      and\n      dup3\n      add\n      dup1\n      0x40\n      mstore\n      pop\n      dup2\n      add\n      swap1\n      tag_123\n      swap2\n      swap1\n      tag_49\n      jump\t// in\n    tag_123:\n        /* \"pool.sol\":2329:2403  require(toToken.transfer( msg.sender, amount*rates), \"Cannot send tokens\") */\n      tag_124\n      jumpi\n      mload(0x40)\n      0x08c379a000000000000000000000000000000000000000000000000000000000\n      dup2\n      mstore\n      0x04\n      add\n      tag_125\n      swap1\n      tag_126\n      jump\t// in\n    tag_125:\n      mload(0x40)\n      dup1\n      swap2\n      sub\n      swap1\n      revert\n    tag_124:\n        /* \"pool.sol\":1859:2410  {... */\n      pop\n      pop\n      pop\n        /* \"pool.sol\":1797:2410  function swap(address from, address to, uint amount ) external{... */\n      pop\n      pop\n      pop\n      jump\t// out\n        /* \"pool.sol\":2416:2540  function balanceOf(address user, address token) external view returns (uint256){... */\n    tag_32:\n        /* \"pool.sol\":2487:2494  uint256 */\n      0x00\n        /* \"pool.sol\":2512:2520  balances */\n      dup1\n        /* \"pool.sol\":2512:2526  balances[user] */\n      0x00\n        /* \"pool.sol\":2521:2525  user */\n      dup5\n        /* \"pool.sol\":2512:2526  balances[user] */\n      0xffffffffffffffffffffffffffffffffffffffff\n      and\n      0xffffffffffffffffffffffffffffffffffffffff\n      and\n      dup2\n      mstore\n      0x20\n      add\n      swap1\n      dup2\n      mstore\n      0x20\n      add\n      0x00\n      keccak256\n        /* \"pool.sol\":2512:2533  balances[user][token] */\n      0x00\n        /* \"pool.sol\":2527:2532  token */\n      dup4\n        /* \"pool.sol\":2512:2533  balances[user][token] */\n      0xffffffffffffffffffffffffffffffffffffffff\n      and\n      0xffffffffffffffffffffffffffffffffffffffff\n      and\n      dup2\n      mstore\n      0x20\n      add\n      swap1\n      dup2\n      mstore\n      0x20\n      add\n      0x00\n      keccak256\n      sload\n        /* \"pool.sol\":2505:2533  return balances[user][token] */\n      swap1\n      pop\n        /* \"pool.sol\":2416:2540  function balanceOf(address user, address token) external view returns (uint256){... */\n      swap3\n      swap2\n      pop\n      pop\n      jump\t// out\n        /* \"#utility.yul\":88:205   */\n    tag_129:\n        /* \"#utility.yul\":197:198   */\n      0x00\n        /* \"#utility.yul\":194:195   */\n      dup1\n        /* \"#utility.yul\":187:199   */\n      revert\n        /* \"#utility.yul\":334:460   */\n    tag_131:\n        /* \"#utility.yul\":371:378   */\n      0x00\n        /* \"#utility.yul\":411:453   */\n      0xffffffffffffffffffffffffffffffffffffffff\n        /* \"#utility.yul\":404:409   */\n      dup3\n        /* \"#utility.yul\":400:454   */\n      and\n        /* \"#utility.yul\":389:454   */\n      swap1\n      pop\n        /* \"#utility.yul\":334:460   */\n      swap2\n      swap1\n      pop\n      jump\t// out\n        /* \"#utility.yul\":466:562   */\n    tag_132:\n        /* \"#utility.yul\":503:510   */\n      0x00\n        /* \"#utility.yul\":532:556   */\n      tag_173\n        /* \"#utility.yul\":550:555   */\n      dup3\n        /* \"#utility.yul\":532:556   */\n      tag_131\n      jump\t// in\n    tag_173:\n        /* \"#utility.yul\":521:556   */\n      swap1\n      pop\n        /* \"#utility.yul\":466:562   */\n      swap2\n      swap1\n      pop\n      jump\t// out\n        /* \"#utility.yul\":568:690   */\n    tag_133:\n        /* \"#utility.yul\":641:665   */\n      tag_175\n        /* \"#utility.yul\":659:664   */\n      dup2\n        /* \"#utility.yul\":641:665   */\n      tag_132\n      jump\t// in\n    tag_175:\n        /* \"#utility.yul\":634:639   */\n      dup2\n        /* \"#utility.yul\":631:666   */\n      eq\n        /* \"#utility.yul\":621:684   */\n      tag_176\n      jumpi\n        /* \"#utility.yul\":680:681   */\n      0x00\n        /* \"#utility.yul\":677:678   */\n      dup1\n        /* \"#utility.yul\":670:682   */\n      revert\n        /* \"#utility.yul\":621:684   */\n    tag_176:\n        /* \"#utility.yul\":568:690   */\n      pop\n      jump\t// out\n        /* \"#utility.yul\":696:835   */\n    tag_134:\n        /* \"#utility.yul\":742:747   */\n      0x00\n        /* \"#utility.yul\":780:786   */\n      dup2\n        /* \"#utility.yul\":767:787   */\n      calldataload\n        /* \"#utility.yul\":758:787   */\n      swap1\n      pop\n        /* \"#utility.yul\":796:829   */\n      tag_178\n        /* \"#utility.yul\":823:828   */\n      dup2\n        /* \"#utility.yul\":796:829   */\n      tag_133\n      jump\t// in\n    tag_178:\n        /* \"#utility.yul\":696:835   */\n      swap3\n      swap2\n      pop\n      pop\n      jump\t// out\n        /* \"#utility.yul\":841:918   */\n    tag_135:\n        /* \"#utility.yul\":878:885   */\n      0x00\n        /* \"#utility.yul\":907:912   */\n      dup2\n        /* \"#utility.yul\":896:912   */\n      swap1\n      pop\n        /* \"#utility.yul\":841:918   */\n      swap2\n      swap1\n      pop\n      jump\t// out\n        /* \"#utility.yul\":924:1046   */\n    tag_136:\n        /* \"#utility.yul\":997:1021   */\n      tag_181\n        /* \"#utility.yul\":1015:1020   */\n      dup2\n        /* \"#utility.yul\":997:1021   */\n      tag_135\n      jump\t// in\n    tag_181:\n        /* \"#utility.yul\":990:995   */\n      dup2\n        /* \"#utility.yul\":987:1022   */\n      eq\n        /* \"#utility.yul\":977:1040   */\n      tag_182\n      jumpi\n        /* \"#utility.yul\":1036:1037   */\n      0x00\n        /* \"#utility.yul\":1033:1034   */\n      dup1\n        /* \"#utility.yul\":1026:1038   */\n      revert\n        /* \"#utility.yul\":977:1040   */\n    tag_182:\n        /* \"#utility.yul\":924:1046   */\n      pop\n      jump\t// out\n        /* \"#utility.yul\":1052:1191   */\n    tag_137:\n        /* \"#utility.yul\":1098:1103   */\n      0x00\n        /* \"#utility.yul\":1136:1142   */\n      dup2\n        /* \"#utility.yul\":1123:1143   */\n      calldataload\n        /* \"#utility.yul\":1114:1143   */\n      swap1\n      pop\n        /* \"#utility.yul\":1152:1185   */\n      tag_184\n        /* \"#utility.yul\":1179:1184   */\n      dup2\n        /* \"#utility.yul\":1152:1185   */\n      tag_136\n      jump\t// in\n    tag_184:\n        /* \"#utility.yul\":1052:1191   */\n      swap3\n      swap2\n      pop\n      pop\n      jump\t// out\n        /* \"#utility.yul\":1197:1671   */\n    tag_11:\n        /* \"#utility.yul\":1265:1271   */\n      0x00\n        /* \"#utility.yul\":1273:1279   */\n      dup1\n        /* \"#utility.yul\":1322:1324   */\n      0x40\n        /* \"#utility.yul\":1310:1319   */\n      dup4\n        /* \"#utility.yul\":1301:1308   */\n      dup6\n        /* \"#utility.yul\":1297:1320   */\n      sub\n        /* \"#utility.yul\":1293:1325   */\n      slt\n        /* \"#utility.yul\":1290:1409   */\n      iszero\n      tag_186\n      jumpi\n        /* \"#utility.yul\":1328:1407   */\n      tag_187\n      tag_129\n      jump\t// in\n    tag_187:\n        /* \"#utility.yul\":1290:1409   */\n    tag_186:\n        /* \"#utility.yul\":1448:1449   */\n      0x00\n        /* \"#utility.yul\":1473:1526   */\n      tag_188\n        /* \"#utility.yul\":1518:1525   */\n      dup6\n        /* \"#utility.yul\":1509:1515   */\n      dup3\n        /* \"#utility.yul\":1498:1507   */\n      dup7\n        /* \"#utility.yul\":1494:1516   */\n      add\n        /* \"#utility.yul\":1473:1526   */\n      tag_134\n      jump\t// in\n    tag_188:\n        /* \"#utility.yul\":1463:1526   */\n      swap3\n      pop\n        /* \"#utility.yul\":1419:1536   */\n      pop\n        /* \"#utility.yul\":1575:1577   */\n      0x20\n        /* \"#utility.yul\":1601:1654   */\n      tag_189\n        /* \"#utility.yul\":1646:1653   */\n      dup6\n        /* \"#utility.yul\":1637:1643   */\n      dup3\n        /* \"#utility.yul\":1626:1635   */\n      dup7\n        /* \"#utility.yul\":1622:1644   */\n      add\n        /* \"#utility.yul\":1601:1654   */\n      tag_137\n      jump\t// in\n    tag_189:\n        /* \"#utility.yul\":1591:1654   */\n      swap2\n      pop\n        /* \"#utility.yul\":1546:1664   */\n      pop\n        /* \"#utility.yul\":1197:1671   */\n      swap3\n      pop\n      swap3\n      swap1\n      pop\n      jump\t// out\n        /* \"#utility.yul\":1677:2151   */\n    tag_18:\n        /* \"#utility.yul\":1745:1751   */\n      0x00\n        /* \"#utility.yul\":1753:1759   */\n      dup1\n        /* \"#utility.yul\":1802:1804   */\n      0x40\n        /* \"#utility.yul\":1790:1799   */\n      dup4\n        /* \"#utility.yul\":1781:1788   */\n      dup6\n        /* \"#utility.yul\":1777:1800   */\n      sub\n        /* \"#utility.yul\":1773:1805   */\n      slt\n        /* \"#utility.yul\":1770:1889   */\n      iszero\n      tag_191\n      jumpi\n        /* \"#utility.yul\":1808:1887   */\n      tag_192\n      tag_129\n      jump\t// in\n    tag_192:\n        /* \"#utility.yul\":1770:1889   */\n    tag_191:\n        /* \"#utility.yul\":1928:1929   */\n      0x00\n        /* \"#utility.yul\":1953:2006   */\n      tag_193\n        /* \"#utility.yul\":1998:2005   */\n      dup6\n        /* \"#utility.yul\":1989:1995   */\n      dup3\n        /* \"#utility.yul\":1978:1987   */\n      dup7\n        /* \"#utility.yul\":1974:1996   */\n      add\n        /* \"#utility.yul\":1953:2006   */\n      tag_134\n      jump\t// in\n    tag_193:\n        /* \"#utility.yul\":1943:2006   */\n      swap3\n      pop\n        /* \"#utility.yul\":1899:2016   */\n      pop\n        /* \"#utility.yul\":2055:2057   */\n      0x20\n        /* \"#utility.yul\":2081:2134   */\n      tag_194\n        /* \"#utility.yul\":2126:2133   */\n      dup6\n        /* \"#utility.yul\":2117:2123   */\n      dup3\n        /* \"#utility.yul\":2106:2115   */\n      dup7\n        /* \"#utility.yul\":2102:2124   */\n      add\n        /* \"#utility.yul\":2081:2134   */\n      tag_134\n      jump\t// in\n    tag_194:\n        /* \"#utility.yul\":2071:2134   */\n      swap2\n      pop\n        /* \"#utility.yul\":2026:2144   */\n      pop\n        /* \"#utility.yul\":1677:2151   */\n      swap3\n      pop\n      swap3\n      swap1\n      pop\n      jump\t// out\n        /* \"#utility.yul\":2157:2275   */\n    tag_138:\n        /* \"#utility.yul\":2244:2268   */\n      tag_196\n        /* \"#utility.yul\":2262:2267   */\n      dup2\n        /* \"#utility.yul\":2244:2268   */\n      tag_135\n      jump\t// in\n    tag_196:\n        /* \"#utility.yul\":2239:2242   */\n      dup3\n        /* \"#utility.yul\":2232:2269   */\n      mstore\n        /* \"#utility.yul\":2157:2275   */\n      pop\n      pop\n      jump\t// out\n        /* \"#utility.yul\":2281:2503   */\n    tag_21:\n        /* \"#utility.yul\":2374:2378   */\n      0x00\n        /* \"#utility.yul\":2412:2414   */\n      0x20\n        /* \"#utility.yul\":2401:2410   */\n      dup3\n        /* \"#utility.yul\":2397:2415   */\n      add\n        /* \"#utility.yul\":2389:2415   */\n      swap1\n      pop\n        /* \"#utility.yul\":2425:2496   */\n      tag_198\n        /* \"#utility.yul\":2493:2494   */\n      0x00\n        /* \"#utility.yul\":2482:2491   */\n      dup4\n        /* \"#utility.yul\":2478:2495   */\n      add\n        /* \"#utility.yul\":2469:2475   */\n      dup5\n        /* \"#utility.yul\":2425:2496   */\n      tag_138\n      jump\t// in\n    tag_198:\n        /* \"#utility.yul\":2281:2503   */\n      swap3\n      swap2\n      pop\n      pop\n      jump\t// out\n        /* \"#utility.yul\":2509:3128   */\n    tag_28:\n        /* \"#utility.yul\":2586:2592   */\n      0x00\n        /* \"#utility.yul\":2594:2600   */\n      dup1\n        /* \"#utility.yul\":2602:2608   */\n      0x00\n        /* \"#utility.yul\":2651:2653   */\n      0x60\n        /* \"#utility.yul\":2639:2648   */\n      dup5\n        /* \"#utility.yul\":2630:2637   */\n      dup7\n        /* \"#utility.yul\":2626:2649   */\n      sub\n        /* \"#utility.yul\":2622:2654   */\n      slt\n        /* \"#utility.yul\":2619:2738   */\n      iszero\n      tag_200\n      jumpi\n        /* \"#utility.yul\":2657:2736   */\n      tag_201\n      tag_129\n      jump\t// in\n    tag_201:\n        /* \"#utility.yul\":2619:2738   */\n    tag_200:\n        /* \"#utility.yul\":2777:2778   */\n      0x00\n        /* \"#utility.yul\":2802:2855   */\n      tag_202\n        /* \"#utility.yul\":2847:2854   */\n      dup7\n        /* \"#utility.yul\":2838:2844   */\n      dup3\n        /* \"#utility.yul\":2827:2836   */\n      dup8\n        /* \"#utility.yul\":2823:2845   */\n      add\n        /* \"#utility.yul\":2802:2855   */\n      tag_134\n      jump\t// in\n    tag_202:\n        /* \"#utility.yul\":2792:2855   */\n      swap4\n      pop\n        /* \"#utility.yul\":2748:2865   */\n      pop\n        /* \"#utility.yul\":2904:2906   */\n      0x20\n        /* \"#utility.yul\":2930:2983   */\n      tag_203\n        /* \"#utility.yul\":2975:2982   */\n      dup7\n        /* \"#utility.yul\":2966:2972   */\n      dup3\n        /* \"#utility.yul\":2955:2964   */\n      dup8\n        /* \"#utility.yul\":2951:2973   */\n      add\n        /* \"#utility.yul\":2930:2983   */\n      tag_134\n      jump\t// in\n    tag_203:\n        /* \"#utility.yul\":2920:2983   */\n      swap3\n      pop\n        /* \"#utility.yul\":2875:2993   */\n      pop\n        /* \"#utility.yul\":3032:3034   */\n      0x40\n        /* \"#utility.yul\":3058:3111   */\n      tag_204\n        /* \"#utility.yul\":3103:3110   */\n      dup7\n        /* \"#utility.yul\":3094:3100   */\n      dup3\n        /* \"#utility.yul\":3083:3092   */\n      dup8\n        /* \"#utility.yul\":3079:3101   */\n      add\n        /* \"#utility.yul\":3058:3111   */\n      tag_137\n      jump\t// in\n    tag_204:\n        /* \"#utility.yul\":3048:3111   */\n      swap2\n      pop\n        /* \"#utility.yul\":3003:3121   */\n      pop\n        /* \"#utility.yul\":2509:3128   */\n      swap3\n      pop\n      swap3\n      pop\n      swap3\n      jump\t// out\n        /* \"#utility.yul\":3134:3252   */\n    tag_139:\n        /* \"#utility.yul\":3221:3245   */\n      tag_206\n        /* \"#utility.yul\":3239:3244   */\n      dup2\n        /* \"#utility.yul\":3221:3245   */\n      tag_132\n      jump\t// in\n    tag_206:\n        /* \"#utility.yul\":3216:3219   */\n      dup3\n        /* \"#utility.yul\":3209:3246   */\n      mstore\n        /* \"#utility.yul\":3134:3252   */\n      pop\n      pop\n      jump\t// out\n        /* \"#utility.yul\":3258:3480   */\n    tag_36:\n        /* \"#utility.yul\":3351:3355   */\n      0x00\n        /* \"#utility.yul\":3389:3391   */\n      0x20\n        /* \"#utility.yul\":3378:3387   */\n      dup3\n        /* \"#utility.yul\":3374:3392   */\n      add\n        /* \"#utility.yul\":3366:3392   */\n      swap1\n      pop\n        /* \"#utility.yul\":3402:3473   */\n      tag_208\n        /* \"#utility.yul\":3470:3471   */\n      0x00\n        /* \"#utility.yul\":3459:3468   */\n      dup4\n        /* \"#utility.yul\":3455:3472   */\n      add\n        /* \"#utility.yul\":3446:3452   */\n      dup5\n        /* \"#utility.yul\":3402:3473   */\n      tag_139\n      jump\t// in\n    tag_208:\n        /* \"#utility.yul\":3258:3480   */\n      swap3\n      swap2\n      pop\n      pop\n      jump\t// out\n        /* \"#utility.yul\":3486:3629   */\n    tag_140:\n        /* \"#utility.yul\":3543:3548   */\n      0x00\n        /* \"#utility.yul\":3574:3580   */\n      dup2\n        /* \"#utility.yul\":3568:3581   */\n      mload\n        /* \"#utility.yul\":3559:3581   */\n      swap1\n      pop\n        /* \"#utility.yul\":3590:3623   */\n      tag_210\n        /* \"#utility.yul\":3617:3622   */\n      dup2\n        /* \"#utility.yul\":3590:3623   */\n      tag_136\n      jump\t// in\n    tag_210:\n        /* \"#utility.yul\":3486:3629   */\n      swap3\n      swap2\n      pop\n      pop\n      jump\t// out\n        /* \"#utility.yul\":3635:3986   */\n    tag_40:\n        /* \"#utility.yul\":3705:3711   */\n      0x00\n        /* \"#utility.yul\":3754:3756   */\n      0x20\n        /* \"#utility.yul\":3742:3751   */\n      dup3\n        /* \"#utility.yul\":3733:3740   */\n      dup5\n        /* \"#utility.yul\":3729:3752   */\n      sub\n        /* \"#utility.yul\":3725:3757   */\n      slt\n        /* \"#utility.yul\":3722:3841   */\n      iszero\n      tag_212\n      jumpi\n        /* \"#utility.yul\":3760:3839   */\n      tag_213\n      tag_129\n      jump\t// in\n    tag_213:\n        /* \"#utility.yul\":3722:3841   */\n    tag_212:\n        /* \"#utility.yul\":3880:3881   */\n      0x00\n        /* \"#utility.yul\":3905:3969   */\n      tag_214\n        /* \"#utility.yul\":3961:3968   */\n      dup5\n        /* \"#utility.yul\":3952:3958   */\n      dup3\n        /* \"#utility.yul\":3941:3950   */\n      dup6\n        /* \"#utility.yul\":3937:3959   */\n      add\n        /* \"#utility.yul\":3905:3969   */\n      tag_140\n      jump\t// in\n    tag_214:\n        /* \"#utility.yul\":3895:3969   */\n      swap2\n      pop\n        /* \"#utility.yul\":3851:3979   */\n      pop\n        /* \"#utility.yul\":3635:3986   */\n      swap3\n      swap2\n      pop\n      pop\n      jump\t// out\n        /* \"#utility.yul\":3992:4161   */\n    tag_141:\n        /* \"#utility.yul\":4076:4087   */\n      0x00\n        /* \"#utility.yul\":4110:4116   */\n      dup3\n        /* \"#utility.yul\":4105:4108   */\n      dup3\n        /* \"#utility.yul\":4098:4117   */\n      mstore\n        /* \"#utility.yul\":4150:4154   */\n      0x20\n        /* \"#utility.yul\":4145:4148   */\n      dup3\n        /* \"#utility.yul\":4141:4155   */\n      add\n        /* \"#utility.yul\":4126:4155   */\n      swap1\n      pop\n        /* \"#utility.yul\":3992:4161   */\n      swap3\n      swap2\n      pop\n      pop\n      jump\t// out\n        /* \"#utility.yul\":4167:4338   */\n    tag_142:\n        /* \"#utility.yul\":4307:4330   */\n      0x496e73756666696369656e742062616c616e6365730000000000000000000000\n        /* \"#utility.yul\":4303:4304   */\n      0x00\n        /* \"#utility.yul\":4295:4301   */\n      dup3\n        /* \"#utility.yul\":4291:4305   */\n      add\n        /* \"#utility.yul\":4284:4331   */\n      mstore\n        /* \"#utility.yul\":4167:4338   */\n      pop\n      jump\t// out\n        /* \"#utility.yul\":4344:4710   */\n    tag_143:\n        /* \"#utility.yul\":4486:4489   */\n      0x00\n        /* \"#utility.yul\":4507:4574   */\n      tag_218\n        /* \"#utility.yul\":4571:4573   */\n      0x15\n        /* \"#utility.yul\":4566:4569   */\n      dup4\n        /* \"#utility.yul\":4507:4574   */\n      tag_141\n      jump\t// in\n    tag_218:\n        /* \"#utility.yul\":4500:4574   */\n      swap2\n      pop\n        /* \"#utility.yul\":4583:4676   */\n      tag_219\n        /* \"#utility.yul\":4672:4675   */\n      dup3\n        /* \"#utility.yul\":4583:4676   */\n      tag_142\n      jump\t// in\n    tag_219:\n        /* \"#utility.yul\":4701:4703   */\n      0x20\n        /* \"#utility.yul\":4696:4699   */\n      dup3\n        /* \"#utility.yul\":4692:4704   */\n      add\n        /* \"#utility.yul\":4685:4704   */\n      swap1\n      pop\n        /* \"#utility.yul\":4344:4710   */\n      swap2\n      swap1\n      pop\n      jump\t// out\n        /* \"#utility.yul\":4716:5135   */\n    tag_43:\n        /* \"#utility.yul\":4882:4886   */\n      0x00\n        /* \"#utility.yul\":4920:4922   */\n      0x20\n        /* \"#utility.yul\":4909:4918   */\n      dup3\n        /* \"#utility.yul\":4905:4923   */\n      add\n        /* \"#utility.yul\":4897:4923   */\n      swap1\n      pop\n        /* \"#utility.yul\":4969:4978   */\n      dup2\n        /* \"#utility.yul\":4963:4967   */\n      dup2\n        /* \"#utility.yul\":4959:4979   */\n      sub\n        /* \"#utility.yul\":4955:4956   */\n      0x00\n        /* \"#utility.yul\":4944:4953   */\n      dup4\n        /* \"#utility.yul\":4940:4957   */\n      add\n        /* \"#utility.yul\":4933:4980   */\n      mstore\n        /* \"#utility.yul\":4997:5128   */\n      tag_221\n        /* \"#utility.yul\":5123:5127   */\n      dup2\n        /* \"#utility.yul\":4997:5128   */\n      tag_143\n      jump\t// in\n    tag_221:\n        /* \"#utility.yul\":4989:5128   */\n      swap1\n      pop\n        /* \"#utility.yul\":4716:5135   */\n      swap2\n      swap1\n      pop\n      jump\t// out\n        /* \"#utility.yul\":5141:5583   */\n    tag_45:\n        /* \"#utility.yul\":5290:5294   */\n      0x00\n        /* \"#utility.yul\":5328:5330   */\n      0x60\n        /* \"#utility.yul\":5317:5326   */\n      dup3\n        /* \"#utility.yul\":5313:5331   */\n      add\n        /* \"#utility.yul\":5305:5331   */\n      swap1\n      pop\n        /* \"#utility.yul\":5341:5412   */\n      tag_223\n        /* \"#utility.yul\":5409:5410   */\n      0x00\n        /* \"#utility.yul\":5398:5407   */\n      dup4\n        /* \"#utility.yul\":5394:5411   */\n      add\n        /* \"#utility.yul\":5385:5391   */\n      dup7\n        /* \"#utility.yul\":5341:5412   */\n      tag_139\n      jump\t// in\n    tag_223:\n        /* \"#utility.yul\":5422:5494   */\n      tag_224\n        /* \"#utility.yul\":5490:5492   */\n      0x20\n        /* \"#utility.yul\":5479:5488   */\n      dup4\n        /* \"#utility.yul\":5475:5493   */\n      add\n        /* \"#utility.yul\":5466:5472   */\n      dup6\n        /* \"#utility.yul\":5422:5494   */\n      tag_139\n      jump\t// in\n    tag_224:\n        /* \"#utility.yul\":5504:5576   */\n      tag_225\n        /* \"#utility.yul\":5572:5574   */\n      0x40\n        /* \"#utility.yul\":5561:5570   */\n      dup4\n        /* \"#utility.yul\":5557:5575   */\n      add\n        /* \"#utility.yul\":5548:5554   */\n      dup5\n        /* \"#utility.yul\":5504:5576   */\n      tag_138\n      jump\t// in\n    tag_225:\n        /* \"#utility.yul\":5141:5583   */\n      swap5\n      swap4\n      pop\n      pop\n      pop\n      pop\n      jump\t// out\n        /* \"#utility.yul\":5589:5679   */\n    tag_144:\n        /* \"#utility.yul\":5623:5630   */\n      0x00\n        /* \"#utility.yul\":5666:5671   */\n      dup2\n        /* \"#utility.yul\":5659:5672   */\n      iszero\n        /* \"#utility.yul\":5652:5673   */\n      iszero\n        /* \"#utility.yul\":5641:5673   */\n      swap1\n      pop\n        /* \"#utility.yul\":5589:5679   */\n      swap2\n      swap1\n      pop\n      jump\t// out\n        /* \"#utility.yul\":5685:5801   */\n    tag_145:\n        /* \"#utility.yul\":5755:5776   */\n      tag_228\n        /* \"#utility.yul\":5770:5775   */\n      dup2\n        /* \"#utility.yul\":5755:5776   */\n      tag_144\n      jump\t// in\n    tag_228:\n        /* \"#utility.yul\":5748:5753   */\n      dup2\n        /* \"#utility.yul\":5745:5777   */\n      eq\n        /* \"#utility.yul\":5735:5795   */\n      tag_229\n      jumpi\n        /* \"#utility.yul\":5791:5792   */\n      0x00\n        /* \"#utility.yul\":5788:5789   */\n      dup1\n        /* \"#utility.yul\":5781:5793   */\n      revert\n        /* \"#utility.yul\":5735:5795   */\n    tag_229:\n        /* \"#utility.yul\":5685:5801   */\n      pop\n      jump\t// out\n        /* \"#utility.yul\":5807:5944   */\n    tag_146:\n        /* \"#utility.yul\":5861:5866   */\n      0x00\n        /* \"#utility.yul\":5892:5898   */\n      dup2\n        /* \"#utility.yul\":5886:5899   */\n      mload\n        /* \"#utility.yul\":5877:5899   */\n      swap1\n      pop\n        /* \"#utility.yul\":5908:5938   */\n      tag_231\n        /* \"#utility.yul\":5932:5937   */\n      dup2\n        /* \"#utility.yul\":5908:5938   */\n      tag_145\n      jump\t// in\n    tag_231:\n        /* \"#utility.yul\":5807:5944   */\n      swap3\n      swap2\n      pop\n      pop\n      jump\t// out\n        /* \"#utility.yul\":5950:6295   */\n    tag_49:\n        /* \"#utility.yul\":6017:6023   */\n      0x00\n        /* \"#utility.yul\":6066:6068   */\n      0x20\n        /* \"#utility.yul\":6054:6063   */\n      dup3\n        /* \"#utility.yul\":6045:6052   */\n      dup5\n        /* \"#utility.yul\":6041:6064   */\n      sub\n        /* \"#utility.yul\":6037:6069   */\n      slt\n        /* \"#utility.yul\":6034:6153   */\n      iszero\n      tag_233\n      jumpi\n        /* \"#utility.yul\":6072:6151   */\n      tag_234\n      tag_129\n      jump\t// in\n    tag_234:\n        /* \"#utility.yul\":6034:6153   */\n    tag_233:\n        /* \"#utility.yul\":6192:6193   */\n      0x00\n        /* \"#utility.yul\":6217:6278   */\n      tag_235\n        /* \"#utility.yul\":6270:6277   */\n      dup5\n        /* \"#utility.yul\":6261:6267   */\n      dup3\n        /* \"#utility.yul\":6250:6259   */\n      dup6\n        /* \"#utility.yul\":6246:6268   */\n      add\n        /* \"#utility.yul\":6217:6278   */\n      tag_146\n      jump\t// in\n    tag_235:\n        /* \"#utility.yul\":6207:6278   */\n      swap2\n      pop\n        /* \"#utility.yul\":6163:6288   */\n      pop\n        /* \"#utility.yul\":5950:6295   */\n      swap3\n      swap2\n      pop\n      pop\n      jump\t// out\n        /* \"#utility.yul\":6301:6472   */\n    tag_147:\n        /* \"#utility.yul\":6441:6464   */\n      0x4465706f73697420746f6b656e73206661696c65640000000000000000000000\n        /* \"#utility.yul\":6437:6438   */\n      0x00\n        /* \"#utility.yul\":6429:6435   */\n      dup3\n        /* \"#utility.yul\":6425:6439   */\n      add\n        /* \"#utility.yul\":6418:6465   */\n      mstore\n        /* \"#utility.yul\":6301:6472   */\n      pop\n      jump\t// out\n        /* \"#utility.yul\":6478:6844   */\n    tag_148:\n        /* \"#utility.yul\":6620:6623   */\n      0x00\n        /* \"#utility.yul\":6641:6708   */\n      tag_238\n        /* \"#utility.yul\":6705:6707   */\n      0x15\n        /* \"#utility.yul\":6700:6703   */\n      dup4\n        /* \"#utility.yul\":6641:6708   */\n      tag_141\n      jump\t// in\n    tag_238:\n        /* \"#utility.yul\":6634:6708   */\n      swap2\n      pop\n        /* \"#utility.yul\":6717:6810   */\n      tag_239\n        /* \"#utility.yul\":6806:6809   */\n      dup3\n        /* \"#utility.yul\":6717:6810   */\n      tag_147\n      jump\t// in\n    tag_239:\n        /* \"#utility.yul\":6835:6837   */\n      0x20\n        /* \"#utility.yul\":6830:6833   */\n      dup3\n        /* \"#utility.yul\":6826:6838   */\n      add\n        /* \"#utility.yul\":6819:6838   */\n      swap1\n      pop\n        /* \"#utility.yul\":6478:6844   */\n      swap2\n      swap1\n      pop\n      jump\t// out\n        /* \"#utility.yul\":6850:7269   */\n    tag_52:\n        /* \"#utility.yul\":7016:7020   */\n      0x00\n        /* \"#utility.yul\":7054:7056   */\n      0x20\n        /* \"#utility.yul\":7043:7052   */\n      dup3\n        /* \"#utility.yul\":7039:7057   */\n      add\n        /* \"#utility.yul\":7031:7057   */\n      swap1\n      pop\n        /* \"#utility.yul\":7103:7112   */\n      dup2\n        /* \"#utility.yul\":7097:7101   */\n      dup2\n        /* \"#utility.yul\":7093:7113   */\n      sub\n        /* \"#utility.yul\":7089:7090   */\n      0x00\n        /* \"#utility.yul\":7078:7087   */\n      dup4\n        /* \"#utility.yul\":7074:7091   */\n      add\n        /* \"#utility.yul\":7067:7114   */\n      mstore\n        /* \"#utility.yul\":7131:7262   */\n      tag_241\n        /* \"#utility.yul\":7257:7261   */\n      dup2\n        /* \"#utility.yul\":7131:7262   */\n      tag_148\n      jump\t// in\n    tag_241:\n        /* \"#utility.yul\":7123:7262   */\n      swap1\n      pop\n        /* \"#utility.yul\":6850:7269   */\n      swap2\n      swap1\n      pop\n      jump\t// out\n        /* \"#utility.yul\":7275:7455   */\n    tag_149:\n        /* \"#utility.yul\":7323:7400   */\n      0x4e487b7100000000000000000000000000000000000000000000000000000000\n        /* \"#utility.yul\":7320:7321   */\n      0x00\n        /* \"#utility.yul\":7313:7401   */\n      mstore\n        /* \"#utility.yul\":7420:7424   */\n      0x11\n        /* \"#utility.yul\":7417:7418   */\n      0x04\n        /* \"#utility.yul\":7410:7425   */\n      mstore\n        /* \"#utility.yul\":7444:7448   */\n      0x24\n        /* \"#utility.yul\":7441:7442   */\n      0x00\n        /* \"#utility.yul\":7434:7449   */\n      revert\n        /* \"#utility.yul\":7461:7652   */\n    tag_54:\n        /* \"#utility.yul\":7501:7504   */\n      0x00\n        /* \"#utility.yul\":7520:7540   */\n      tag_244\n        /* \"#utility.yul\":7538:7539   */\n      dup3\n        /* \"#utility.yul\":7520:7540   */\n      tag_135\n      jump\t// in\n    tag_244:\n        /* \"#utility.yul\":7515:7540   */\n      swap2\n      pop\n        /* \"#utility.yul\":7554:7574   */\n      tag_245\n        /* \"#utility.yul\":7572:7573   */\n      dup4\n        /* \"#utility.yul\":7554:7574   */\n      tag_135\n      jump\t// in\n    tag_245:\n        /* \"#utility.yul\":7549:7574   */\n      swap3\n      pop\n        /* \"#utility.yul\":7597:7598   */\n      dup3\n        /* \"#utility.yul\":7594:7595   */\n      dup3\n        /* \"#utility.yul\":7590:7599   */\n      add\n        /* \"#utility.yul\":7583:7599   */\n      swap1\n      pop\n        /* \"#utility.yul\":7618:7621   */\n      dup1\n        /* \"#utility.yul\":7615:7616   */\n      dup3\n        /* \"#utility.yul\":7612:7622   */\n      gt\n        /* \"#utility.yul\":7609:7645   */\n      iszero\n      tag_246\n      jumpi\n        /* \"#utility.yul\":7625:7643   */\n      tag_247\n      tag_149\n      jump\t// in\n    tag_247:\n        /* \"#utility.yul\":7609:7645   */\n    tag_246:\n        /* \"#utility.yul\":7461:7652   */\n      swap3\n      swap2\n      pop\n      pop\n      jump\t// out\n        /* \"#utility.yul\":7658:7880   */\n    tag_150:\n        /* \"#utility.yul\":7798:7832   */\n      0x496e73756666696369656e742062616c616e636520666f722077697468647261\n        /* \"#utility.yul\":7794:7795   */\n      0x00\n        /* \"#utility.yul\":7786:7792   */\n      dup3\n        /* \"#utility.yul\":7782:7796   */\n      add\n        /* \"#utility.yul\":7775:7833   */\n      mstore\n        /* \"#utility.yul\":7867:7872   */\n      0x77616c0000000000000000000000000000000000000000000000000000000000\n        /* \"#utility.yul\":7862:7864   */\n      0x20\n        /* \"#utility.yul\":7854:7860   */\n      dup3\n        /* \"#utility.yul\":7850:7865   */\n      add\n        /* \"#utility.yul\":7843:7873   */\n      mstore\n        /* \"#utility.yul\":7658:7880   */\n      pop\n      jump\t// out\n        /* \"#utility.yul\":7886:8252   */\n    tag_151:\n        /* \"#utility.yul\":8028:8031   */\n      0x00\n        /* \"#utility.yul\":8049:8116   */\n      tag_250\n        /* \"#utility.yul\":8113:8115   */\n      0x23\n        /* \"#utility.yul\":8108:8111   */\n      dup4\n        /* \"#utility.yul\":8049:8116   */\n      tag_141\n      jump\t// in\n    tag_250:\n        /* \"#utility.yul\":8042:8116   */\n      swap2\n      pop\n        /* \"#utility.yul\":8125:8218   */\n      tag_251\n        /* \"#utility.yul\":8214:8217   */\n      dup3\n        /* \"#utility.yul\":8125:8218   */\n      tag_150\n      jump\t// in\n    tag_251:\n        /* \"#utility.yul\":8243:8245   */\n      0x40\n        /* \"#utility.yul\":8238:8241   */\n      dup3\n        /* \"#utility.yul\":8234:8246   */\n      add\n        /* \"#utility.yul\":8227:8246   */\n      swap1\n      pop\n        /* \"#utility.yul\":7886:8252   */\n      swap2\n      swap1\n      pop\n      jump\t// out\n        /* \"#utility.yul\":8258:8677   */\n    tag_58:\n        /* \"#utility.yul\":8424:8428   */\n      0x00\n        /* \"#utility.yul\":8462:8464   */\n      0x20\n        /* \"#utility.yul\":8451:8460   */\n      dup3\n        /* \"#utility.yul\":8447:8465   */\n      add\n        /* \"#utility.yul\":8439:8465   */\n      swap1\n      pop\n        /* \"#utility.yul\":8511:8520   */\n      dup2\n        /* \"#utility.yul\":8505:8509   */\n      dup2\n        /* \"#utility.yul\":8501:8521   */\n      sub\n        /* \"#utility.yul\":8497:8498   */\n      0x00\n        /* \"#utility.yul\":8486:8495   */\n      dup4\n        /* \"#utility.yul\":8482:8499   */\n      add\n        /* \"#utility.yul\":8475:8522   */\n      mstore\n        /* \"#utility.yul\":8539:8670   */\n      tag_253\n        /* \"#utility.yul\":8665:8669   */\n      dup2\n        /* \"#utility.yul\":8539:8670   */\n      tag_151\n      jump\t// in\n    tag_253:\n        /* \"#utility.yul\":8531:8670   */\n      swap1\n      pop\n        /* \"#utility.yul\":8258:8677   */\n      swap2\n      swap1\n      pop\n      jump\t// out\n        /* \"#utility.yul\":8683:9015   */\n    tag_60:\n        /* \"#utility.yul\":8804:8808   */\n      0x00\n        /* \"#utility.yul\":8842:8844   */\n      0x40\n        /* \"#utility.yul\":8831:8840   */\n      dup3\n        /* \"#utility.yul\":8827:8845   */\n      add\n        /* \"#utility.yul\":8819:8845   */\n      swap1\n      pop\n        /* \"#utility.yul\":8855:8926   */\n      tag_255\n        /* \"#utility.yul\":8923:8924   */\n      0x00\n        /* \"#utility.yul\":8912:8921   */\n      dup4\n        /* \"#utility.yul\":8908:8925   */\n      add\n        /* \"#utility.yul\":8899:8905   */\n      dup6\n        /* \"#utility.yul\":8855:8926   */\n      tag_139\n      jump\t// in\n    tag_255:\n        /* \"#utility.yul\":8936:9008   */\n      tag_256\n        /* \"#utility.yul\":9004:9006   */\n      0x20\n        /* \"#utility.yul\":8993:9002   */\n      dup4\n        /* \"#utility.yul\":8989:9007   */\n      add\n        /* \"#utility.yul\":8980:8986   */\n      dup5\n        /* \"#utility.yul\":8936:9008   */\n      tag_138\n      jump\t// in\n    tag_256:\n        /* \"#utility.yul\":8683:9015   */\n      swap4\n      swap3\n      pop\n      pop\n      pop\n      jump\t// out\n        /* \"#utility.yul\":9021:9192   */\n    tag_152:\n        /* \"#utility.yul\":9161:9184   */\n      0x5769746472617720746f6b656e73206661696c65640000000000000000000000\n        /* \"#utility.yul\":9157:9158   */\n      0x00\n        /* \"#utility.yul\":9149:9155   */\n      dup3\n        /* \"#utility.yul\":9145:9159   */\n      add\n        /* \"#utility.yul\":9138:9185   */\n      mstore\n        /* \"#utility.yul\":9021:9192   */\n      pop\n      jump\t// out\n        /* \"#utility.yul\":9198:9564   */\n    tag_153:\n        /* \"#utility.yul\":9340:9343   */\n      0x00\n        /* \"#utility.yul\":9361:9428   */\n      tag_259\n        /* \"#utility.yul\":9425:9427   */\n      0x15\n        /* \"#utility.yul\":9420:9423   */\n      dup4\n        /* \"#utility.yul\":9361:9428   */\n      tag_141\n      jump\t// in\n    tag_259:\n        /* \"#utility.yul\":9354:9428   */\n      swap2\n      pop\n        /* \"#utility.yul\":9437:9530   */\n      tag_260\n        /* \"#utility.yul\":9526:9529   */\n      dup3\n        /* \"#utility.yul\":9437:9530   */\n      tag_152\n      jump\t// in\n    tag_260:\n        /* \"#utility.yul\":9555:9557   */\n      0x20\n        /* \"#utility.yul\":9550:9553   */\n      dup3\n        /* \"#utility.yul\":9546:9558   */\n      add\n        /* \"#utility.yul\":9539:9558   */\n      swap1\n      pop\n        /* \"#utility.yul\":9198:9564   */\n      swap2\n      swap1\n      pop\n      jump\t// out\n        /* \"#utility.yul\":9570:9989   */\n    tag_66:\n        /* \"#utility.yul\":9736:9740   */\n      0x00\n        /* \"#utility.yul\":9774:9776   */\n      0x20\n        /* \"#utility.yul\":9763:9772   */\n      dup3\n        /* \"#utility.yul\":9759:9777   */\n      add\n        /* \"#utility.yul\":9751:9777   */\n      swap1\n      pop\n        /* \"#utility.yul\":9823:9832   */\n      dup2\n        /* \"#utility.yul\":9817:9821   */\n      dup2\n        /* \"#utility.yul\":9813:9833   */\n      sub\n        /* \"#utility.yul\":9809:9810   */\n      0x00\n        /* \"#utility.yul\":9798:9807   */\n      dup4\n        /* \"#utility.yul\":9794:9811   */\n      add\n        /* \"#utility.yul\":9787:9834   */\n      mstore\n        /* \"#utility.yul\":9851:9982   */\n      tag_262\n        /* \"#utility.yul\":9977:9981   */\n      dup2\n        /* \"#utility.yul\":9851:9982   */\n      tag_153\n      jump\t// in\n    tag_262:\n        /* \"#utility.yul\":9843:9982   */\n      swap1\n      pop\n        /* \"#utility.yul\":9570:9989   */\n      swap2\n      swap1\n      pop\n      jump\t// out\n        /* \"#utility.yul\":9995:10189   */\n    tag_68:\n        /* \"#utility.yul\":10035:10039   */\n      0x00\n        /* \"#utility.yul\":10055:10075   */\n      tag_264\n        /* \"#utility.yul\":10073:10074   */\n      dup3\n        /* \"#utility.yul\":10055:10075   */\n      tag_135\n      jump\t// in\n    tag_264:\n        /* \"#utility.yul\":10050:10075   */\n      swap2\n      pop\n        /* \"#utility.yul\":10089:10109   */\n      tag_265\n        /* \"#utility.yul\":10107:10108   */\n      dup4\n        /* \"#utility.yul\":10089:10109   */\n      tag_135\n      jump\t// in\n    tag_265:\n        /* \"#utility.yul\":10084:10109   */\n      swap3\n      pop\n        /* \"#utility.yul\":10133:10134   */\n      dup3\n        /* \"#utility.yul\":10130:10131   */\n      dup3\n        /* \"#utility.yul\":10126:10135   */\n      sub\n        /* \"#utility.yul\":10118:10135   */\n      swap1\n      pop\n        /* \"#utility.yul\":10157:10158   */\n      dup2\n        /* \"#utility.yul\":10151:10155   */\n      dup2\n        /* \"#utility.yul\":10148:10159   */\n      gt\n        /* \"#utility.yul\":10145:10182   */\n      iszero\n      tag_266\n      jumpi\n        /* \"#utility.yul\":10162:10180   */\n      tag_267\n      tag_149\n      jump\t// in\n    tag_267:\n        /* \"#utility.yul\":10145:10182   */\n    tag_266:\n        /* \"#utility.yul\":9995:10189   */\n      swap3\n      swap2\n      pop\n      pop\n      jump\t// out\n        /* \"#utility.yul\":10195:10420   */\n    tag_154:\n        /* \"#utility.yul\":10335:10369   */\n      0x5468697320746f6b656e20646f6573206e6f74206578697374206f6e20746869\n        /* \"#utility.yul\":10331:10332   */\n      0x00\n        /* \"#utility.yul\":10323:10329   */\n      dup3\n        /* \"#utility.yul\":10319:10333   */\n      add\n        /* \"#utility.yul\":10312:10370   */\n      mstore\n        /* \"#utility.yul\":10404:10412   */\n      0x7320706f6f6c0000000000000000000000000000000000000000000000000000\n        /* \"#utility.yul\":10399:10401   */\n      0x20\n        /* \"#utility.yul\":10391:10397   */\n      dup3\n        /* \"#utility.yul\":10387:10402   */\n      add\n        /* \"#utility.yul\":10380:10413   */\n      mstore\n        /* \"#utility.yul\":10195:10420   */\n      pop\n      jump\t// out\n        /* \"#utility.yul\":10426:10792   */\n    tag_155:\n        /* \"#utility.yul\":10568:10571   */\n      0x00\n        /* \"#utility.yul\":10589:10656   */\n      tag_270\n        /* \"#utility.yul\":10653:10655   */\n      0x26\n        /* \"#utility.yul\":10648:10651   */\n      dup4\n        /* \"#utility.yul\":10589:10656   */\n      tag_141\n      jump\t// in\n    tag_270:\n        /* \"#utility.yul\":10582:10656   */\n      swap2\n      pop\n        /* \"#utility.yul\":10665:10758   */\n      tag_271\n        /* \"#utility.yul\":10754:10757   */\n      dup3\n        /* \"#utility.yul\":10665:10758   */\n      tag_154\n      jump\t// in\n    tag_271:\n        /* \"#utility.yul\":10783:10785   */\n      0x40\n        /* \"#utility.yul\":10778:10781   */\n      dup3\n        /* \"#utility.yul\":10774:10786   */\n      add\n        /* \"#utility.yul\":10767:10786   */\n      swap1\n      pop\n        /* \"#utility.yul\":10426:10792   */\n      swap2\n      swap1\n      pop\n      jump\t// out\n        /* \"#utility.yul\":10798:11217   */\n    tag_76:\n        /* \"#utility.yul\":10964:10968   */\n      0x00\n        /* \"#utility.yul\":11002:11004   */\n      0x20\n        /* \"#utility.yul\":10991:11000   */\n      dup3\n        /* \"#utility.yul\":10987:11005   */\n      add\n        /* \"#utility.yul\":10979:11005   */\n      swap1\n      pop\n        /* \"#utility.yul\":11051:11060   */\n      dup2\n        /* \"#utility.yul\":11045:11049   */\n      dup2\n        /* \"#utility.yul\":11041:11061   */\n      sub\n        /* \"#utility.yul\":11037:11038   */\n      0x00\n        /* \"#utility.yul\":11026:11035   */\n      dup4\n        /* \"#utility.yul\":11022:11039   */\n      add\n        /* \"#utility.yul\":11015:11062   */\n      mstore\n        /* \"#utility.yul\":11079:11210   */\n      tag_273\n        /* \"#utility.yul\":11205:11209   */\n      dup2\n        /* \"#utility.yul\":11079:11210   */\n      tag_155\n      jump\t// in\n    tag_273:\n        /* \"#utility.yul\":11071:11210   */\n      swap1\n      pop\n        /* \"#utility.yul\":10798:11217   */\n      swap2\n      swap1\n      pop\n      jump\t// out\n        /* \"#utility.yul\":11223:11448   */\n    tag_156:\n        /* \"#utility.yul\":11363:11397   */\n      0x7468697320746f6b656e20646f6573206e6f74206578697374206f6e20746869\n        /* \"#utility.yul\":11359:11360   */\n      0x00\n        /* \"#utility.yul\":11351:11357   */\n      dup3\n        /* \"#utility.yul\":11347:11361   */\n      add\n        /* \"#utility.yul\":11340:11398   */\n      mstore\n        /* \"#utility.yul\":11432:11440   */\n      0x7320706f6f6c0000000000000000000000000000000000000000000000000000\n        /* \"#utility.yul\":11427:11429   */\n      0x20\n        /* \"#utility.yul\":11419:11425   */\n      dup3\n        /* \"#utility.yul\":11415:11430   */\n      add\n        /* \"#utility.yul\":11408:11441   */\n      mstore\n        /* \"#utility.yul\":11223:11448   */\n      pop\n      jump\t// out\n        /* \"#utility.yul\":11454:11820   */\n    tag_157:\n        /* \"#utility.yul\":11596:11599   */\n      0x00\n        /* \"#utility.yul\":11617:11684   */\n      tag_276\n        /* \"#utility.yul\":11681:11683   */\n      0x26\n        /* \"#utility.yul\":11676:11679   */\n      dup4\n        /* \"#utility.yul\":11617:11684   */\n      tag_141\n      jump\t// in\n    tag_276:\n        /* \"#utility.yul\":11610:11684   */\n      swap2\n      pop\n        /* \"#utility.yul\":11693:11786   */\n      tag_277\n        /* \"#utility.yul\":11782:11785   */\n      dup3\n        /* \"#utility.yul\":11693:11786   */\n      tag_156\n      jump\t// in\n    tag_277:\n        /* \"#utility.yul\":11811:11813   */\n      0x40\n        /* \"#utility.yul\":11806:11809   */\n      dup3\n        /* \"#utility.yul\":11802:11814   */\n      add\n        /* \"#utility.yul\":11795:11814   */\n      swap1\n      pop\n        /* \"#utility.yul\":11454:11820   */\n      swap2\n      swap1\n      pop\n      jump\t// out\n        /* \"#utility.yul\":11826:12245   */\n    tag_83:\n        /* \"#utility.yul\":11992:11996   */\n      0x00\n        /* \"#utility.yul\":12030:12032   */\n      0x20\n        /* \"#utility.yul\":12019:12028   */\n      dup3\n        /* \"#utility.yul\":12015:12033   */\n      add\n        /* \"#utility.yul\":12007:12033   */\n      swap1\n      pop\n        /* \"#utility.yul\":12079:12088   */\n      dup2\n        /* \"#utility.yul\":12073:12077   */\n      dup2\n        /* \"#utility.yul\":12069:12089   */\n      sub\n        /* \"#utility.yul\":12065:12066   */\n      0x00\n        /* \"#utility.yul\":12054:12063   */\n      dup4\n        /* \"#utility.yul\":12050:12067   */\n      add\n        /* \"#utility.yul\":12043:12090   */\n      mstore\n        /* \"#utility.yul\":12107:12238   */\n      tag_279\n        /* \"#utility.yul\":12233:12237   */\n      dup2\n        /* \"#utility.yul\":12107:12238   */\n      tag_157\n      jump\t// in\n    tag_279:\n        /* \"#utility.yul\":12099:12238   */\n      swap1\n      pop\n        /* \"#utility.yul\":11826:12245   */\n      swap2\n      swap1\n      pop\n      jump\t// out\n        /* \"#utility.yul\":12251:12431   */\n    tag_158:\n        /* \"#utility.yul\":12299:12376   */\n      0x4e487b7100000000000000000000000000000000000000000000000000000000\n        /* \"#utility.yul\":12296:12297   */\n      0x00\n        /* \"#utility.yul\":12289:12377   */\n      mstore\n        /* \"#utility.yul\":12396:12400   */\n      0x12\n        /* \"#utility.yul\":12393:12394   */\n      0x04\n        /* \"#utility.yul\":12386:12401   */\n      mstore\n        /* \"#utility.yul\":12420:12424   */\n      0x24\n        /* \"#utility.yul\":12417:12418   */\n      0x00\n        /* \"#utility.yul\":12410:12425   */\n      revert\n        /* \"#utility.yul\":12437:12622   */\n    tag_93:\n        /* \"#utility.yul\":12477:12478   */\n      0x00\n        /* \"#utility.yul\":12494:12514   */\n      tag_282\n        /* \"#utility.yul\":12512:12513   */\n      dup3\n        /* \"#utility.yul\":12494:12514   */\n      tag_135\n      jump\t// in\n    tag_282:\n        /* \"#utility.yul\":12489:12514   */\n      swap2\n      pop\n        /* \"#utility.yul\":12528:12548   */\n      tag_283\n        /* \"#utility.yul\":12546:12547   */\n      dup4\n        /* \"#utility.yul\":12528:12548   */\n      tag_135\n      jump\t// in\n    tag_283:\n        /* \"#utility.yul\":12523:12548   */\n      swap3\n      pop\n        /* \"#utility.yul\":12567:12568   */\n      dup3\n        /* \"#utility.yul\":12557:12592   */\n      tag_284\n      jumpi\n        /* \"#utility.yul\":12572:12590   */\n      tag_285\n      tag_158\n      jump\t// in\n    tag_285:\n        /* \"#utility.yul\":12557:12592   */\n    tag_284:\n        /* \"#utility.yul\":12614:12615   */\n      dup3\n        /* \"#utility.yul\":12611:12612   */\n      dup3\n        /* \"#utility.yul\":12607:12616   */\n      div\n        /* \"#utility.yul\":12602:12616   */\n      swap1\n      pop\n        /* \"#utility.yul\":12437:12622   */\n      swap3\n      swap2\n      pop\n      pop\n      jump\t// out\n        /* \"#utility.yul\":12628:13038   */\n    tag_97:\n        /* \"#utility.yul\":12668:12675   */\n      0x00\n        /* \"#utility.yul\":12691:12711   */\n      tag_287\n        /* \"#utility.yul\":12709:12710   */\n      dup3\n        /* \"#utility.yul\":12691:12711   */\n      tag_135\n      jump\t// in\n    tag_287:\n        /* \"#utility.yul\":12686:12711   */\n      swap2\n      pop\n        /* \"#utility.yul\":12725:12745   */\n      tag_288\n        /* \"#utility.yul\":12743:12744   */\n      dup4\n        /* \"#utility.yul\":12725:12745   */\n      tag_135\n      jump\t// in\n    tag_288:\n        /* \"#utility.yul\":12720:12745   */\n      swap3\n      pop\n        /* \"#utility.yul\":12780:12781   */\n      dup3\n        /* \"#utility.yul\":12777:12778   */\n      dup3\n        /* \"#utility.yul\":12773:12782   */\n      mul\n        /* \"#utility.yul\":12802:12832   */\n      tag_289\n        /* \"#utility.yul\":12820:12831   */\n      dup2\n        /* \"#utility.yul\":12802:12832   */\n      tag_135\n      jump\t// in\n    tag_289:\n        /* \"#utility.yul\":12791:12832   */\n      swap2\n      pop\n        /* \"#utility.yul\":12981:12982   */\n      dup3\n        /* \"#utility.yul\":12972:12979   */\n      dup3\n        /* \"#utility.yul\":12968:12983   */\n      div\n        /* \"#utility.yul\":12965:12966   */\n      dup5\n        /* \"#utility.yul\":12962:12984   */\n      eq\n        /* \"#utility.yul\":12942:12943   */\n      dup4\n        /* \"#utility.yul\":12935:12944   */\n      iszero\n        /* \"#utility.yul\":12915:12998   */\n      or\n        /* \"#utility.yul\":12892:13031   */\n      tag_290\n      jumpi\n        /* \"#utility.yul\":13011:13029   */\n      tag_291\n      tag_149\n      jump\t// in\n    tag_291:\n        /* \"#utility.yul\":12892:13031   */\n    tag_290:\n        /* \"#utility.yul\":12676:13038   */\n      pop\n        /* \"#utility.yul\":12628:13038   */\n      swap3\n      swap2\n      pop\n      pop\n      jump\t// out\n        /* \"#utility.yul\":13044:13283   */\n    tag_159:\n        /* \"#utility.yul\":13184:13218   */\n      0x4e6f7420656e6f75676820746f6b656e206f6e2074686520636f6e7472616374\n        /* \"#utility.yul\":13180:13181   */\n      0x00\n        /* \"#utility.yul\":13172:13178   */\n      dup3\n        /* \"#utility.yul\":13168:13182   */\n      add\n        /* \"#utility.yul\":13161:13219   */\n      mstore\n        /* \"#utility.yul\":13253:13275   */\n      0x20666f7220746865207472616e73616374696f6e000000000000000000000000\n        /* \"#utility.yul\":13248:13250   */\n      0x20\n        /* \"#utility.yul\":13240:13246   */\n      dup3\n        /* \"#utility.yul\":13236:13251   */\n      add\n        /* \"#utility.yul\":13229:13276   */\n      mstore\n        /* \"#utility.yul\":13044:13283   */\n      pop\n      jump\t// out\n        /* \"#utility.yul\":13289:13655   */\n    tag_160:\n        /* \"#utility.yul\":13431:13434   */\n      0x00\n        /* \"#utility.yul\":13452:13519   */\n      tag_294\n        /* \"#utility.yul\":13516:13518   */\n      0x34\n        /* \"#utility.yul\":13511:13514   */\n      dup4\n        /* \"#utility.yul\":13452:13519   */\n      tag_141\n      jump\t// in\n    tag_294:\n        /* \"#utility.yul\":13445:13519   */\n      swap2\n      pop\n        /* \"#utility.yul\":13528:13621   */\n      tag_295\n        /* \"#utility.yul\":13617:13620   */\n      dup3\n        /* \"#utility.yul\":13528:13621   */\n      tag_159\n      jump\t// in\n    tag_295:\n        /* \"#utility.yul\":13646:13648   */\n      0x40\n        /* \"#utility.yul\":13641:13644   */\n      dup3\n        /* \"#utility.yul\":13637:13649   */\n      add\n        /* \"#utility.yul\":13630:13649   */\n      swap1\n      pop\n        /* \"#utility.yul\":13289:13655   */\n      swap2\n      swap1\n      pop\n      jump\t// out\n        /* \"#utility.yul\":13661:14080   */\n    tag_104:\n        /* \"#utility.yul\":13827:13831   */\n      0x00\n        /* \"#utility.yul\":13865:13867   */\n      0x20\n        /* \"#utility.yul\":13854:13863   */\n      dup3\n        /* \"#utility.yul\":13850:13868   */\n      add\n        /* \"#utility.yul\":13842:13868   */\n      swap1\n      pop\n        /* \"#utility.yul\":13914:13923   */\n      dup2\n        /* \"#utility.yul\":13908:13912   */\n      dup2\n        /* \"#utility.yul\":13904:13924   */\n      sub\n        /* \"#utility.yul\":13900:13901   */\n      0x00\n        /* \"#utility.yul\":13889:13898   */\n      dup4\n        /* \"#utility.yul\":13885:13902   */\n      add\n        /* \"#utility.yul\":13878:13925   */\n      mstore\n        /* \"#utility.yul\":13942:14073   */\n      tag_297\n        /* \"#utility.yul\":14068:14072   */\n      dup2\n        /* \"#utility.yul\":13942:14073   */\n      tag_160\n      jump\t// in\n    tag_297:\n        /* \"#utility.yul\":13934:14073   */\n      swap1\n      pop\n        /* \"#utility.yul\":13661:14080   */\n      swap2\n      swap1\n      pop\n      jump\t// out\n        /* \"#utility.yul\":14086:14319   */\n    tag_161:\n        /* \"#utility.yul\":14226:14260   */\n      0x5573657220646f6573206e6f74206861766520656e6f75676820666f72207468\n        /* \"#utility.yul\":14222:14223   */\n      0x00\n        /* \"#utility.yul\":14214:14220   */\n      dup3\n        /* \"#utility.yul\":14210:14224   */\n      add\n        /* \"#utility.yul\":14203:14261   */\n      mstore\n        /* \"#utility.yul\":14295:14311   */\n      0x6973207472616e73616374696f6e000000000000000000000000000000000000\n        /* \"#utility.yul\":14290:14292   */\n      0x20\n        /* \"#utility.yul\":14282:14288   */\n      dup3\n        /* \"#utility.yul\":14278:14293   */\n      add\n        /* \"#utility.yul\":14271:14312   */\n      mstore\n        /* \"#utility.yul\":14086:14319   */\n      pop\n      jump\t// out\n        /* \"#utility.yul\":14325:14691   */\n    tag_162:\n        /* \"#utility.yul\":14467:14470   */\n      0x00\n        /* \"#utility.yul\":14488:14555   */\n      tag_300\n        /* \"#utility.yul\":14552:14554   */\n      0x2e\n        /* \"#utility.yul\":14547:14550   */\n      dup4\n        /* \"#utility.yul\":14488:14555   */\n      tag_141\n      jump\t// in\n    tag_300:\n        /* \"#utility.yul\":14481:14555   */\n      swap2\n      pop\n        /* \"#utility.yul\":14564:14657   */\n      tag_301\n        /* \"#utility.yul\":14653:14656   */\n      dup3\n        /* \"#utility.yul\":14564:14657   */\n      tag_161\n      jump\t// in\n    tag_301:\n        /* \"#utility.yul\":14682:14684   */\n      0x40\n        /* \"#utility.yul\":14677:14680   */\n      dup3\n        /* \"#utility.yul\":14673:14685   */\n      add\n        /* \"#utility.yul\":14666:14685   */\n      swap1\n      pop\n        /* \"#utility.yul\":14325:14691   */\n      swap2\n      swap1\n      pop\n      jump\t// out\n        /* \"#utility.yul\":14697:15116   */\n    tag_111:\n        /* \"#utility.yul\":14863:14867   */\n      0x00\n        /* \"#utility.yul\":14901:14903   */\n      0x20\n        /* \"#utility.yul\":14890:14899   */\n      dup3\n        /* \"#utility.yul\":14886:14904   */\n      add\n        /* \"#utility.yul\":14878:14904   */\n      swap1\n      pop\n        /* \"#utility.yul\":14950:14959   */\n      dup2\n        /* \"#utility.yul\":14944:14948   */\n      dup2\n        /* \"#utility.yul\":14940:14960   */\n      sub\n        /* \"#utility.yul\":14936:14937   */\n      0x00\n        /* \"#utility.yul\":14925:14934   */\n      dup4\n        /* \"#utility.yul\":14921:14938   */\n      add\n        /* \"#utility.yul\":14914:14961   */\n      mstore\n        /* \"#utility.yul\":14978:15109   */\n      tag_303\n        /* \"#utility.yul\":15104:15108   */\n      dup2\n        /* \"#utility.yul\":14978:15109   */\n      tag_162\n      jump\t// in\n    tag_303:\n        /* \"#utility.yul\":14970:15109   */\n      swap1\n      pop\n        /* \"#utility.yul\":14697:15116   */\n      swap2\n      swap1\n      pop\n      jump\t// out\n        /* \"#utility.yul\":15122:15294   */\n    tag_163:\n        /* \"#utility.yul\":15262:15286   */\n      0x43616e6e6f7420776974686472617720746f6b656e7300000000000000000000\n        /* \"#utility.yul\":15258:15259   */\n      0x00\n        /* \"#utility.yul\":15250:15256   */\n      dup3\n        /* \"#utility.yul\":15246:15260   */\n      add\n        /* \"#utility.yul\":15239:15287   */\n      mstore\n        /* \"#utility.yul\":15122:15294   */\n      pop\n      jump\t// out\n        /* \"#utility.yul\":15300:15666   */\n    tag_164:\n        /* \"#utility.yul\":15442:15445   */\n      0x00\n        /* \"#utility.yul\":15463:15530   */\n      tag_306\n        /* \"#utility.yul\":15527:15529   */\n      0x16\n        /* \"#utility.yul\":15522:15525   */\n      dup4\n        /* \"#utility.yul\":15463:15530   */\n      tag_141\n      jump\t// in\n    tag_306:\n        /* \"#utility.yul\":15456:15530   */\n      swap2\n      pop\n        /* \"#utility.yul\":15539:15632   */\n      tag_307\n        /* \"#utility.yul\":15628:15631   */\n      dup3\n        /* \"#utility.yul\":15539:15632   */\n      tag_163\n      jump\t// in\n    tag_307:\n        /* \"#utility.yul\":15657:15659   */\n      0x20\n        /* \"#utility.yul\":15652:15655   */\n      dup3\n        /* \"#utility.yul\":15648:15660   */\n      add\n        /* \"#utility.yul\":15641:15660   */\n      swap1\n      pop\n        /* \"#utility.yul\":15300:15666   */\n      swap2\n      swap1\n      pop\n      jump\t// out\n        /* \"#utility.yul\":15672:16091   */\n    tag_118:\n        /* \"#utility.yul\":15838:15842   */\n      0x00\n        /* \"#utility.yul\":15876:15878   */\n      0x20\n        /* \"#utility.yul\":15865:15874   */\n      dup3\n        /* \"#utility.yul\":15861:15879   */\n      add\n        /* \"#utility.yul\":15853:15879   */\n      swap1\n      pop\n        /* \"#utility.yul\":15925:15934   */\n      dup2\n        /* \"#utility.yul\":15919:15923   */\n      dup2\n        /* \"#utility.yul\":15915:15935   */\n      sub\n        /* \"#utility.yul\":15911:15912   */\n      0x00\n        /* \"#utility.yul\":15900:15909   */\n      dup4\n        /* \"#utility.yul\":15896:15913   */\n      add\n        /* \"#utility.yul\":15889:15936   */\n      mstore\n        /* \"#utility.yul\":15953:16084   */\n      tag_309\n        /* \"#utility.yul\":16079:16083   */\n      dup2\n        /* \"#utility.yul\":15953:16084   */\n      tag_164\n      jump\t// in\n    tag_309:\n        /* \"#utility.yul\":15945:16084   */\n      swap1\n      pop\n        /* \"#utility.yul\":15672:16091   */\n      swap2\n      swap1\n      pop\n      jump\t// out\n        /* \"#utility.yul\":16097:16265   */\n    tag_165:\n        /* \"#utility.yul\":16237:16257   */\n      0x43616e6e6f742073656e6420746f6b656e730000000000000000000000000000\n        /* \"#utility.yul\":16233:16234   */\n      0x00\n        /* \"#utility.yul\":16225:16231   */\n      dup3\n        /* \"#utility.yul\":16221:16235   */\n      add\n        /* \"#utility.yul\":16214:16258   */\n      mstore\n        /* \"#utility.yul\":16097:16265   */\n      pop\n      jump\t// out\n        /* \"#utility.yul\":16271:16637   */\n    tag_166:\n        /* \"#utility.yul\":16413:16416   */\n      0x00\n        /* \"#utility.yul\":16434:16501   */\n      tag_312\n        /* \"#utility.yul\":16498:16500   */\n      0x12\n        /* \"#utility.yul\":16493:16496   */\n      dup4\n        /* \"#utility.yul\":16434:16501   */\n      tag_141\n      jump\t// in\n    tag_312:\n        /* \"#utility.yul\":16427:16501   */\n      swap2\n      pop\n        /* \"#utility.yul\":16510:16603   */\n      tag_313\n        /* \"#utility.yul\":16599:16602   */\n      dup3\n        /* \"#utility.yul\":16510:16603   */\n      tag_165\n      jump\t// in\n    tag_313:\n        /* \"#utility.yul\":16628:16630   */\n      0x20\n        /* \"#utility.yul\":16623:16626   */\n      dup3\n        /* \"#utility.yul\":16619:16631   */\n      add\n        /* \"#utility.yul\":16612:16631   */\n      swap1\n      pop\n        /* \"#utility.yul\":16271:16637   */\n      swap2\n      swap1\n      pop\n      jump\t// out\n        /* \"#utility.yul\":16643:17062   */\n    tag_126:\n        /* \"#utility.yul\":16809:16813   */\n      0x00\n        /* \"#utility.yul\":16847:16849   */\n      0x20\n        /* \"#utility.yul\":16836:16845   */\n      dup3\n        /* \"#utility.yul\":16832:16850   */\n      add\n        /* \"#utility.yul\":16824:16850   */\n      swap1\n      pop\n        /* \"#utility.yul\":16896:16905   */\n      dup2\n        /* \"#utility.yul\":16890:16894   */\n      dup2\n        /* \"#utility.yul\":16886:16906   */\n      sub\n        /* \"#utility.yul\":16882:16883   */\n      0x00\n        /* \"#utility.yul\":16871:16880   */\n      dup4\n        /* \"#utility.yul\":16867:16884   */\n      add\n        /* \"#utility.yul\":16860:16907   */\n      mstore\n        /* \"#utility.yul\":16924:17055   */\n      tag_315\n        /* \"#utility.yul\":17050:17054   */\n      dup2\n        /* \"#utility.yul\":16924:17055   */\n      tag_166\n      jump\t// in\n    tag_315:\n        /* \"#utility.yul\":16916:17055   */\n      swap1\n      pop\n        /* \"#utility.yul\":16643:17062   */\n      swap2\n      swap1\n      pop\n      jump\t// out\n\n    auxdata: 0xa26469706673582212203b4ef0c60acfd58ee9f55d53f543e66f52c41ff1b42afca499485cb3628f8f7c64736f6c63430008140033\n}\n",
				"bytecode": {
					"linkReferences": {},
					"object": "608060405234801561000f575f80fd5b506114878061001d5f395ff3fe608060405234801561000f575f80fd5b5060043610610060575f3560e01c806347e7ef24146100645780635a6b26ba1461008057806382ce2b571461009c578063c23f001f146100cc578063df791e50146100fc578063f7888aec14610118575b5f80fd5b61007e60048036038101906100799190610c2b565b610148565b005b61009a60048036038101906100959190610c2b565b610354565b005b6100b660048036038101906100b19190610c69565b61055e565b6040516100c39190610cb6565b60405180910390f35b6100e660048036038101906100e19190610c69565b6107dd565b6040516100f39190610cb6565b60405180910390f35b61011660048036038101906101119190610ccf565b6107fc565b005b610132600480360381019061012d9190610c69565b610b19565b60405161013f9190610cb6565b60405180910390f35b5f829050818173ffffffffffffffffffffffffffffffffffffffff166370a08231336040518263ffffffff1660e01b81526004016101869190610d2e565b602060405180830381865afa1580156101a1573d5f803e3d5ffd5b505050506040513d601f19601f820116820180604052508101906101c59190610d5b565b1015610206576040517f08c379a00000000000000000000000000000000000000000000000000000000081526004016101fd90610de0565b60405180910390fd5b8073ffffffffffffffffffffffffffffffffffffffff166323b872dd3330856040518463ffffffff1660e01b815260040161024393929190610dfe565b6020604051808303815f875af115801561025f573d5f803e3d5ffd5b505050506040513d601f19601f820116820180604052508101906102839190610e68565b6102c2576040517f08c379a00000000000000000000000000000000000000000000000000000000081526004016102b990610edd565b60405180910390fd5b815f803373ffffffffffffffffffffffffffffffffffffffff1673ffffffffffffffffffffffffffffffffffffffff1681526020019081526020015f205f8573ffffffffffffffffffffffffffffffffffffffff1673ffffffffffffffffffffffffffffffffffffffff1681526020019081526020015f205f8282546103489190610f28565b92505081905550505050565b5f829050815f803373ffffffffffffffffffffffffffffffffffffffff1673ffffffffffffffffffffffffffffffffffffffff1681526020019081526020015f205f8573ffffffffffffffffffffffffffffffffffffffff1673ffffffffffffffffffffffffffffffffffffffff1681526020019081526020015f20541015610412576040517f08c379a000000000000000000000000000000000000000000000000000000000815260040161040990610fcb565b60405180910390fd5b8073ffffffffffffffffffffffffffffffffffffffff1663a9059cbb33846040518363ffffffff1660e01b815260040161044d929190610fe9565b6020604051808303815f875af1158015610469573d5f803e3d5ffd5b505050506040513d601f19601f8201168201806040525081019061048d9190610e68565b6104cc576040517f08c379a00000000000000000000000000000000000000000000000000000000081526004016104c39061105a565b60405180910390fd5b815f803373ffffffffffffffffffffffffffffffffffffffff1673ffffffffffffffffffffffffffffffffffffffff1681526020019081526020015f205f8573ffffffffffffffffffffffffffffffffffffffff1673ffffffffffffffffffffffffffffffffffffffff1681526020019081526020015f205f8282546105529190611078565b92505081905550505050565b5f808390505f8390505f8273ffffffffffffffffffffffffffffffffffffffff166370a08231306040518263ffffffff1660e01b81526004016105a19190610d2e565b602060405180830381865afa1580156105bc573d5f803e3d5ffd5b505050506040513d601f19601f820116820180604052508101906105e09190610d5b565b03610620576040517f08c379a00000000000000000000000000000000000000000000000000000000081526004016106179061111b565b60405180910390fd5b5f8173ffffffffffffffffffffffffffffffffffffffff166370a08231306040518263ffffffff1660e01b815260040161065a9190610d2e565b602060405180830381865afa158015610675573d5f803e3d5ffd5b505050506040513d601f19601f820116820180604052508101906106999190610d5b565b036106d9576040517f08c379a00000000000000000000000000000000000000000000000000000000081526004016106d0906111a9565b60405180910390fd5b8173ffffffffffffffffffffffffffffffffffffffff166370a08231306040518263ffffffff1660e01b81526004016107129190610d2e565b602060405180830381865afa15801561072d573d5f803e3d5ffd5b505050506040513d601f19601f820116820180604052508101906107519190610d5b565b8173ffffffffffffffffffffffffffffffffffffffff166370a08231306040518263ffffffff1660e01b815260040161078a9190610d2e565b602060405180830381865afa1580156107a5573d5f803e3d5ffd5b505050506040513d601f19601f820116820180604052508101906107c99190610d5b565b6107d391906111f4565b9250505092915050565b5f602052815f5260405f20602052805f5260405f205f91509150505481565b5f8390505f8390505f61080f868661055e565b9050808461081d9190611224565b8273ffffffffffffffffffffffffffffffffffffffff166370a08231306040518263ffffffff1660e01b81526004016108569190610d2e565b602060405180830381865afa158015610871573d5f803e3d5ffd5b505050506040513d601f19601f820116820180604052508101906108959190610d5b565b10156108d6576040517f08c379a00000000000000000000000000000000000000000000000000000000081526004016108cd906112d5565b60405180910390fd5b838373ffffffffffffffffffffffffffffffffffffffff166370a08231336040518263ffffffff1660e01b81526004016109109190610d2e565b602060405180830381865afa15801561092b573d5f803e3d5ffd5b505050506040513d601f19601f8201168201806040525081019061094f9190610d5b565b1015610990576040517f08c379a000000000000000000000000000000000000000000000000000000000815260040161098790611363565b60405180910390fd5b8273ffffffffffffffffffffffffffffffffffffffff166323b872dd3330876040518463ffffffff1660e01b81526004016109cd93929190610dfe565b6020604051808303815f875af11580156109e9573d5f803e3d5ffd5b505050506040513d601f19601f82011682018060405250810190610a0d9190610e68565b610a4c576040517f08c379a0000000000000000000000000000000000000000000000000000000008152600401610a43906113cb565b60405180910390fd5b8173ffffffffffffffffffffffffffffffffffffffff1663a9059cbb338387610a759190611224565b6040518363ffffffff1660e01b8152600401610a92929190610fe9565b6020604051808303815f875af1158015610aae573d5f803e3d5ffd5b505050506040513d601f19601f82011682018060405250810190610ad29190610e68565b610b11576040517f08c379a0000000000000000000000000000000000000000000000000000000008152600401610b0890611433565b60405180910390fd5b505050505050565b5f805f8473ffffffffffffffffffffffffffffffffffffffff1673ffffffffffffffffffffffffffffffffffffffff1681526020019081526020015f205f8373ffffffffffffffffffffffffffffffffffffffff1673ffffffffffffffffffffffffffffffffffffffff1681526020019081526020015f2054905092915050565b5f80fd5b5f73ffffffffffffffffffffffffffffffffffffffff82169050919050565b5f610bc782610b9e565b9050919050565b610bd781610bbd565b8114610be1575f80fd5b50565b5f81359050610bf281610bce565b92915050565b5f819050919050565b610c0a81610bf8565b8114610c14575f80fd5b50565b5f81359050610c2581610c01565b92915050565b5f8060408385031215610c4157610c40610b9a565b5b5f610c4e85828601610be4565b9250506020610c5f85828601610c17565b9150509250929050565b5f8060408385031215610c7f57610c7e610b9a565b5b5f610c8c85828601610be4565b9250506020610c9d85828601610be4565b9150509250929050565b610cb081610bf8565b82525050565b5f602082019050610cc95f830184610ca7565b92915050565b5f805f60608486031215610ce657610ce5610b9a565b5b5f610cf386828701610be4565b9350506020610d0486828701610be4565b9250506040610d1586828701610c17565b9150509250925092565b610d2881610bbd565b82525050565b5f602082019050610d415f830184610d1f565b92915050565b5f81519050610d5581610c01565b92915050565b5f60208284031215610d7057610d6f610b9a565b5b5f610d7d84828501610d47565b91505092915050565b5f82825260208201905092915050565b7f496e73756666696369656e742062616c616e63657300000000000000000000005f82015250565b5f610dca601583610d86565b9150610dd582610d96565b602082019050919050565b5f6020820190508181035f830152610df781610dbe565b9050919050565b5f606082019050610e115f830186610d1f565b610e1e6020830185610d1f565b610e2b6040830184610ca7565b949350505050565b5f8115159050919050565b610e4781610e33565b8114610e51575f80fd5b50565b5f81519050610e6281610e3e565b92915050565b5f60208284031215610e7d57610e7c610b9a565b5b5f610e8a84828501610e54565b91505092915050565b7f4465706f73697420746f6b656e73206661696c656400000000000000000000005f82015250565b5f610ec7601583610d86565b9150610ed282610e93565b602082019050919050565b5f6020820190508181035f830152610ef481610ebb565b9050919050565b7f4e487b71000000000000000000000000000000000000000000000000000000005f52601160045260245ffd5b5f610f3282610bf8565b9150610f3d83610bf8565b9250828201905080821115610f5557610f54610efb565b5b92915050565b7f496e73756666696369656e742062616c616e636520666f7220776974686472615f8201527f77616c0000000000000000000000000000000000000000000000000000000000602082015250565b5f610fb5602383610d86565b9150610fc082610f5b565b604082019050919050565b5f6020820190508181035f830152610fe281610fa9565b9050919050565b5f604082019050610ffc5f830185610d1f565b6110096020830184610ca7565b9392505050565b7f5769746472617720746f6b656e73206661696c656400000000000000000000005f82015250565b5f611044601583610d86565b915061104f82611010565b602082019050919050565b5f6020820190508181035f83015261107181611038565b9050919050565b5f61108282610bf8565b915061108d83610bf8565b92508282039050818111156110a5576110a4610efb565b5b92915050565b7f5468697320746f6b656e20646f6573206e6f74206578697374206f6e207468695f8201527f7320706f6f6c0000000000000000000000000000000000000000000000000000602082015250565b5f611105602683610d86565b9150611110826110ab565b604082019050919050565b5f6020820190508181035f830152611132816110f9565b9050919050565b7f7468697320746f6b656e20646f6573206e6f74206578697374206f6e207468695f8201527f7320706f6f6c0000000000000000000000000000000000000000000000000000602082015250565b5f611193602683610d86565b915061119e82611139565b604082019050919050565b5f6020820190508181035f8301526111c081611187565b9050919050565b7f4e487b71000000000000000000000000000000000000000000000000000000005f52601260045260245ffd5b5f6111fe82610bf8565b915061120983610bf8565b925082611219576112186111c7565b5b828204905092915050565b5f61122e82610bf8565b915061123983610bf8565b925082820261124781610bf8565b9150828204841483151761125e5761125d610efb565b5b5092915050565b7f4e6f7420656e6f75676820746f6b656e206f6e2074686520636f6e74726163745f8201527f20666f7220746865207472616e73616374696f6e000000000000000000000000602082015250565b5f6112bf603483610d86565b91506112ca82611265565b604082019050919050565b5f6020820190508181035f8301526112ec816112b3565b9050919050565b7f5573657220646f6573206e6f74206861766520656e6f75676820666f722074685f8201527f6973207472616e73616374696f6e000000000000000000000000000000000000602082015250565b5f61134d602e83610d86565b9150611358826112f3565b604082019050919050565b5f6020820190508181035f83015261137a81611341565b9050919050565b7f43616e6e6f7420776974686472617720746f6b656e73000000000000000000005f82015250565b5f6113b5601683610d86565b91506113c082611381565b602082019050919050565b5f6020820190508181035f8301526113e2816113a9565b9050919050565b7f43616e6e6f742073656e6420746f6b656e7300000000000000000000000000005f82015250565b5f61141d601283610d86565b9150611428826113e9565b602082019050919050565b5f6020820190508181035f83015261144a81611411565b905091905056fea26469706673582212203b4ef0c60acfd58ee9f55d53f543e66f52c41ff1b42afca499485cb3628f8f7c64736f6c63430008140033",
					"opcodes": "PUSH1 0x80 PUSH1 0x40 MSTORE CALLVALUE DUP1 ISZERO PUSH2 0xF JUMPI PUSH0 DUP1 REVERT JUMPDEST POP PUSH2 0x1487 DUP1 PUSH2 0x1D PUSH0 CODECOPY PUSH0 RETURN INVALID PUSH1 0x80 PUSH1 0x40 MSTORE CALLVALUE DUP1 ISZERO PUSH2 0xF JUMPI PUSH0 DUP1 REVERT JUMPDEST POP PUSH1 0x4 CALLDATASIZE LT PUSH2 0x60 JUMPI PUSH0 CALLDATALOAD PUSH1 0xE0 SHR DUP1 PUSH4 0x47E7EF24 EQ PUSH2 0x64 JUMPI DUP1 PUSH4 0x5A6B26BA EQ PUSH2 0x80 JUMPI DUP1 PUSH4 0x82CE2B57 EQ PUSH2 0x9C JUMPI DUP1 PUSH4 0xC23F001F EQ PUSH2 0xCC JUMPI DUP1 PUSH4 0xDF791E50 EQ PUSH2 0xFC JUMPI DUP1 PUSH4 0xF7888AEC EQ PUSH2 0x118 JUMPI JUMPDEST PUSH0 DUP1 REVERT JUMPDEST PUSH2 0x7E PUSH1 0x4 DUP1 CALLDATASIZE SUB DUP2 ADD SWAP1 PUSH2 0x79 SWAP2 SWAP1 PUSH2 0xC2B JUMP JUMPDEST PUSH2 0x148 JUMP JUMPDEST STOP JUMPDEST PUSH2 0x9A PUSH1 0x4 DUP1 CALLDATASIZE SUB DUP2 ADD SWAP1 PUSH2 0x95 SWAP2 SWAP1 PUSH2 0xC2B JUMP JUMPDEST PUSH2 0x354 JUMP JUMPDEST STOP JUMPDEST PUSH2 0xB6 PUSH1 0x4 DUP1 CALLDATASIZE SUB DUP2 ADD SWAP1 PUSH2 0xB1 SWAP2 SWAP1 PUSH2 0xC69 JUMP JUMPDEST PUSH2 0x55E JUMP JUMPDEST PUSH1 0x40 MLOAD PUSH2 0xC3 SWAP2 SWAP1 PUSH2 0xCB6 JUMP JUMPDEST PUSH1 0x40 MLOAD DUP1 SWAP2 SUB SWAP1 RETURN JUMPDEST PUSH2 0xE6 PUSH1 0x4 DUP1 CALLDATASIZE SUB DUP2 ADD SWAP1 PUSH2 0xE1 SWAP2 SWAP1 PUSH2 0xC69 JUMP JUMPDEST PUSH2 0x7DD JUMP JUMPDEST PUSH1 0x40 MLOAD PUSH2 0xF3 SWAP2 SWAP1 PUSH2 0xCB6 JUMP JUMPDEST PUSH1 0x40 MLOAD DUP1 SWAP2 SUB SWAP1 RETURN JUMPDEST PUSH2 0x116 PUSH1 0x4 DUP1 CALLDATASIZE SUB DUP2 ADD SWAP1 PUSH2 0x111 SWAP2 SWAP1 PUSH2 0xCCF JUMP JUMPDEST PUSH2 0x7FC JUMP JUMPDEST STOP JUMPDEST PUSH2 0x132 PUSH1 0x4 DUP1 CALLDATASIZE SUB DUP2 ADD SWAP1 PUSH2 0x12D SWAP2 SWAP1 PUSH2 0xC69 JUMP JUMPDEST PUSH2 0xB19 JUMP JUMPDEST PUSH1 0x40 MLOAD PUSH2 0x13F SWAP2 SWAP1 PUSH2 0xCB6 JUMP JUMPDEST PUSH1 0x40 MLOAD DUP1 SWAP2 SUB SWAP1 RETURN JUMPDEST PUSH0 DUP3 SWAP1 POP DUP2 DUP2 PUSH20 0xFFFFFFFFFFFFFFFFFFFFFFFFFFFFFFFFFFFFFFFF AND PUSH4 0x70A08231 CALLER PUSH1 0x40 MLOAD DUP3 PUSH4 0xFFFFFFFF AND PUSH1 0xE0 SHL DUP2 MSTORE PUSH1 0x4 ADD PUSH2 0x186 SWAP2 SWAP1 PUSH2 0xD2E JUMP JUMPDEST PUSH1 0x20 PUSH1 0x40 MLOAD DUP1 DUP4 SUB DUP2 DUP7 GAS STATICCALL ISZERO DUP1 ISZERO PUSH2 0x1A1 JUMPI RETURNDATASIZE PUSH0 DUP1 RETURNDATACOPY RETURNDATASIZE PUSH0 REVERT JUMPDEST POP POP POP POP PUSH1 0x40 MLOAD RETURNDATASIZE PUSH1 0x1F NOT PUSH1 0x1F DUP3 ADD AND DUP3 ADD DUP1 PUSH1 0x40 MSTORE POP DUP2 ADD SWAP1 PUSH2 0x1C5 SWAP2 SWAP1 PUSH2 0xD5B JUMP JUMPDEST LT ISZERO PUSH2 0x206 JUMPI PUSH1 0x40 MLOAD PUSH32 0x8C379A000000000000000000000000000000000000000000000000000000000 DUP2 MSTORE PUSH1 0x4 ADD PUSH2 0x1FD SWAP1 PUSH2 0xDE0 JUMP JUMPDEST PUSH1 0x40 MLOAD DUP1 SWAP2 SUB SWAP1 REVERT JUMPDEST DUP1 PUSH20 0xFFFFFFFFFFFFFFFFFFFFFFFFFFFFFFFFFFFFFFFF AND PUSH4 0x23B872DD CALLER ADDRESS DUP6 PUSH1 0x40 MLOAD DUP5 PUSH4 0xFFFFFFFF AND PUSH1 0xE0 SHL DUP2 MSTORE PUSH1 0x4 ADD PUSH2 0x243 SWAP4 SWAP3 SWAP2 SWAP1 PUSH2 0xDFE JUMP JUMPDEST PUSH1 0x20 PUSH1 0x40 MLOAD DUP1 DUP4 SUB DUP2 PUSH0 DUP8 GAS CALL ISZERO DUP1 ISZERO PUSH2 0x25F JUMPI RETURNDATASIZE PUSH0 DUP1 RETURNDATACOPY RETURNDATASIZE PUSH0 REVERT JUMPDEST POP POP POP POP PUSH1 0x40 MLOAD RETURNDATASIZE PUSH1 0x1F NOT PUSH1 0x1F DUP3 ADD AND DUP3 ADD DUP1 PUSH1 0x40 MSTORE POP DUP2 ADD SWAP1 PUSH2 0x283 SWAP2 SWAP1 PUSH2 0xE68 JUMP JUMPDEST PUSH2 0x2C2 JUMPI PUSH1 0x40 MLOAD PUSH32 0x8C379A000000000000000000000000000000000000000000000000000000000 DUP2 MSTORE PUSH1 0x4 ADD PUSH2 0x2B9 SWAP1 PUSH2 0xEDD JUMP JUMPDEST PUSH1 0x40 MLOAD DUP1 SWAP2 SUB SWAP1 REVERT JUMPDEST DUP2 PUSH0 DUP1 CALLER PUSH20 0xFFFFFFFFFFFFFFFFFFFFFFFFFFFFFFFFFFFFFFFF AND PUSH20 0xFFFFFFFFFFFFFFFFFFFFFFFFFFFFFFFFFFFFFFFF AND DUP2 MSTORE PUSH1 0x20 ADD SWAP1 DUP2 MSTORE PUSH1 0x20 ADD PUSH0 KECCAK256 PUSH0 DUP6 PUSH20 0xFFFFFFFFFFFFFFFFFFFFFFFFFFFFFFFFFFFFFFFF AND PUSH20 0xFFFFFFFFFFFFFFFFFFFFFFFFFFFFFFFFFFFFFFFF AND DUP2 MSTORE PUSH1 0x20 ADD SWAP1 DUP2 MSTORE PUSH1 0x20 ADD PUSH0 KECCAK256 PUSH0 DUP3 DUP3 SLOAD PUSH2 0x348 SWAP2 SWAP1 PUSH2 0xF28 JUMP JUMPDEST SWAP3 POP POP DUP2 SWAP1 SSTORE POP POP POP POP JUMP JUMPDEST PUSH0 DUP3 SWAP1 POP DUP2 PUSH0 DUP1 CALLER PUSH20 0xFFFFFFFFFFFFFFFFFFFFFFFFFFFFFFFFFFFFFFFF AND PUSH20 0xFFFFFFFFFFFFFFFFFFFFFFFFFFFFFFFFFFFFFFFF AND DUP2 MSTORE PUSH1 0x20 ADD SWAP1 DUP2 MSTORE PUSH1 0x20 ADD PUSH0 KECCAK256 PUSH0 DUP6 PUSH20 0xFFFFFFFFFFFFFFFFFFFFFFFFFFFFFFFFFFFFFFFF AND PUSH20 0xFFFFFFFFFFFFFFFFFFFFFFFFFFFFFFFFFFFFFFFF AND DUP2 MSTORE PUSH1 0x20 ADD SWAP1 DUP2 MSTORE PUSH1 0x20 ADD PUSH0 KECCAK256 SLOAD LT ISZERO PUSH2 0x412 JUMPI PUSH1 0x40 MLOAD PUSH32 0x8C379A000000000000000000000000000000000000000000000000000000000 DUP2 MSTORE PUSH1 0x4 ADD PUSH2 0x409 SWAP1 PUSH2 0xFCB JUMP JUMPDEST PUSH1 0x40 MLOAD DUP1 SWAP2 SUB SWAP1 REVERT JUMPDEST DUP1 PUSH20 0xFFFFFFFFFFFFFFFFFFFFFFFFFFFFFFFFFFFFFFFF AND PUSH4 0xA9059CBB CALLER DUP5 PUSH1 0x40 MLOAD DUP4 PUSH4 0xFFFFFFFF AND PUSH1 0xE0 SHL DUP2 MSTORE PUSH1 0x4 ADD PUSH2 0x44D SWAP3 SWAP2 SWAP1 PUSH2 0xFE9 JUMP JUMPDEST PUSH1 0x20 PUSH1 0x40 MLOAD DUP1 DUP4 SUB DUP2 PUSH0 DUP8 GAS CALL ISZERO DUP1 ISZERO PUSH2 0x469 JUMPI RETURNDATASIZE PUSH0 DUP1 RETURNDATACOPY RETURNDATASIZE PUSH0 REVERT JUMPDEST POP POP POP POP PUSH1 0x40 MLOAD RETURNDATASIZE PUSH1 0x1F NOT PUSH1 0x1F DUP3 ADD AND DUP3 ADD DUP1 PUSH1 0x40 MSTORE POP DUP2 ADD SWAP1 PUSH2 0x48D SWAP2 SWAP1 PUSH2 0xE68 JUMP JUMPDEST PUSH2 0x4CC JUMPI PUSH1 0x40 MLOAD PUSH32 0x8C379A000000000000000000000000000000000000000000000000000000000 DUP2 MSTORE PUSH1 0x4 ADD PUSH2 0x4C3 SWAP1 PUSH2 0x105A JUMP JUMPDEST PUSH1 0x40 MLOAD DUP1 SWAP2 SUB SWAP1 REVERT JUMPDEST DUP2 PUSH0 DUP1 CALLER PUSH20 0xFFFFFFFFFFFFFFFFFFFFFFFFFFFFFFFFFFFFFFFF AND PUSH20 0xFFFFFFFFFFFFFFFFFFFFFFFFFFFFFFFFFFFFFFFF AND DUP2 MSTORE PUSH1 0x20 ADD SWAP1 DUP2 MSTORE PUSH1 0x20 ADD PUSH0 KECCAK256 PUSH0 DUP6 PUSH20 0xFFFFFFFFFFFFFFFFFFFFFFFFFFFFFFFFFFFFFFFF AND PUSH20 0xFFFFFFFFFFFFFFFFFFFFFFFFFFFFFFFFFFFFFFFF AND DUP2 MSTORE PUSH1 0x20 ADD SWAP1 DUP2 MSTORE PUSH1 0x20 ADD PUSH0 KECCAK256 PUSH0 DUP3 DUP3 SLOAD PUSH2 0x552 SWAP2 SWAP1 PUSH2 0x1078 JUMP JUMPDEST SWAP3 POP POP DUP2 SWAP1 SSTORE POP POP POP POP JUMP JUMPDEST PUSH0 DUP1 DUP4 SWAP1 POP PUSH0 DUP4 SWAP1 POP PUSH0 DUP3 PUSH20 0xFFFFFFFFFFFFFFFFFFFFFFFFFFFFFFFFFFFFFFFF AND PUSH4 0x70A08231 ADDRESS PUSH1 0x40 MLOAD DUP3 PUSH4 0xFFFFFFFF AND PUSH1 0xE0 SHL DUP2 MSTORE PUSH1 0x4 ADD PUSH2 0x5A1 SWAP2 SWAP1 PUSH2 0xD2E JUMP JUMPDEST PUSH1 0x20 PUSH1 0x40 MLOAD DUP1 DUP4 SUB DUP2 DUP7 GAS STATICCALL ISZERO DUP1 ISZERO PUSH2 0x5BC JUMPI RETURNDATASIZE PUSH0 DUP1 RETURNDATACOPY RETURNDATASIZE PUSH0 REVERT JUMPDEST POP POP POP POP PUSH1 0x40 MLOAD RETURNDATASIZE PUSH1 0x1F NOT PUSH1 0x1F DUP3 ADD AND DUP3 ADD DUP1 PUSH1 0x40 MSTORE POP DUP2 ADD SWAP1 PUSH2 0x5E0 SWAP2 SWAP1 PUSH2 0xD5B JUMP JUMPDEST SUB PUSH2 0x620 JUMPI PUSH1 0x40 MLOAD PUSH32 0x8C379A000000000000000000000000000000000000000000000000000000000 DUP2 MSTORE PUSH1 0x4 ADD PUSH2 0x617 SWAP1 PUSH2 0x111B JUMP JUMPDEST PUSH1 0x40 MLOAD DUP1 SWAP2 SUB SWAP1 REVERT JUMPDEST PUSH0 DUP2 PUSH20 0xFFFFFFFFFFFFFFFFFFFFFFFFFFFFFFFFFFFFFFFF AND PUSH4 0x70A08231 ADDRESS PUSH1 0x40 MLOAD DUP3 PUSH4 0xFFFFFFFF AND PUSH1 0xE0 SHL DUP2 MSTORE PUSH1 0x4 ADD PUSH2 0x65A SWAP2 SWAP1 PUSH2 0xD2E JUMP JUMPDEST PUSH1 0x20 PUSH1 0x40 MLOAD DUP1 DUP4 SUB DUP2 DUP7 GAS STATICCALL ISZERO DUP1 ISZERO PUSH2 0x675 JUMPI RETURNDATASIZE PUSH0 DUP1 RETURNDATACOPY RETURNDATASIZE PUSH0 REVERT JUMPDEST POP POP POP POP PUSH1 0x40 MLOAD RETURNDATASIZE PUSH1 0x1F NOT PUSH1 0x1F DUP3 ADD AND DUP3 ADD DUP1 PUSH1 0x40 MSTORE POP DUP2 ADD SWAP1 PUSH2 0x699 SWAP2 SWAP1 PUSH2 0xD5B JUMP JUMPDEST SUB PUSH2 0x6D9 JUMPI PUSH1 0x40 MLOAD PUSH32 0x8C379A000000000000000000000000000000000000000000000000000000000 DUP2 MSTORE PUSH1 0x4 ADD PUSH2 0x6D0 SWAP1 PUSH2 0x11A9 JUMP JUMPDEST PUSH1 0x40 MLOAD DUP1 SWAP2 SUB SWAP1 REVERT JUMPDEST DUP2 PUSH20 0xFFFFFFFFFFFFFFFFFFFFFFFFFFFFFFFFFFFFFFFF AND PUSH4 0x70A08231 ADDRESS PUSH1 0x40 MLOAD DUP3 PUSH4 0xFFFFFFFF AND PUSH1 0xE0 SHL DUP2 MSTORE PUSH1 0x4 ADD PUSH2 0x712 SWAP2 SWAP1 PUSH2 0xD2E JUMP JUMPDEST PUSH1 0x20 PUSH1 0x40 MLOAD DUP1 DUP4 SUB DUP2 DUP7 GAS STATICCALL ISZERO DUP1 ISZERO PUSH2 0x72D JUMPI RETURNDATASIZE PUSH0 DUP1 RETURNDATACOPY RETURNDATASIZE PUSH0 REVERT JUMPDEST POP POP POP POP PUSH1 0x40 MLOAD RETURNDATASIZE PUSH1 0x1F NOT PUSH1 0x1F DUP3 ADD AND DUP3 ADD DUP1 PUSH1 0x40 MSTORE POP DUP2 ADD SWAP1 PUSH2 0x751 SWAP2 SWAP1 PUSH2 0xD5B JUMP JUMPDEST DUP2 PUSH20 0xFFFFFFFFFFFFFFFFFFFFFFFFFFFFFFFFFFFFFFFF AND PUSH4 0x70A08231 ADDRESS PUSH1 0x40 MLOAD DUP3 PUSH4 0xFFFFFFFF AND PUSH1 0xE0 SHL DUP2 MSTORE PUSH1 0x4 ADD PUSH2 0x78A SWAP2 SWAP1 PUSH2 0xD2E JUMP JUMPDEST PUSH1 0x20 PUSH1 0x40 MLOAD DUP1 DUP4 SUB DUP2 DUP7 GAS STATICCALL ISZERO DUP1 ISZERO PUSH2 0x7A5 JUMPI RETURNDATASIZE PUSH0 DUP1 RETURNDATACOPY RETURNDATASIZE PUSH0 REVERT JUMPDEST POP POP POP POP PUSH1 0x40 MLOAD RETURNDATASIZE PUSH1 0x1F NOT PUSH1 0x1F DUP3 ADD AND DUP3 ADD DUP1 PUSH1 0x40 MSTORE POP DUP2 ADD SWAP1 PUSH2 0x7C9 SWAP2 SWAP1 PUSH2 0xD5B JUMP JUMPDEST PUSH2 0x7D3 SWAP2 SWAP1 PUSH2 0x11F4 JUMP JUMPDEST SWAP3 POP POP POP SWAP3 SWAP2 POP POP JUMP JUMPDEST PUSH0 PUSH1 0x20 MSTORE DUP2 PUSH0 MSTORE PUSH1 0x40 PUSH0 KECCAK256 PUSH1 0x20 MSTORE DUP1 PUSH0 MSTORE PUSH1 0x40 PUSH0 KECCAK256 PUSH0 SWAP2 POP SWAP2 POP POP SLOAD DUP2 JUMP JUMPDEST PUSH0 DUP4 SWAP1 POP PUSH0 DUP4 SWAP1 POP PUSH0 PUSH2 0x80F DUP7 DUP7 PUSH2 0x55E JUMP JUMPDEST SWAP1 POP DUP1 DUP5 PUSH2 0x81D SWAP2 SWAP1 PUSH2 0x1224 JUMP JUMPDEST DUP3 PUSH20 0xFFFFFFFFFFFFFFFFFFFFFFFFFFFFFFFFFFFFFFFF AND PUSH4 0x70A08231 ADDRESS PUSH1 0x40 MLOAD DUP3 PUSH4 0xFFFFFFFF AND PUSH1 0xE0 SHL DUP2 MSTORE PUSH1 0x4 ADD PUSH2 0x856 SWAP2 SWAP1 PUSH2 0xD2E JUMP JUMPDEST PUSH1 0x20 PUSH1 0x40 MLOAD DUP1 DUP4 SUB DUP2 DUP7 GAS STATICCALL ISZERO DUP1 ISZERO PUSH2 0x871 JUMPI RETURNDATASIZE PUSH0 DUP1 RETURNDATACOPY RETURNDATASIZE PUSH0 REVERT JUMPDEST POP POP POP POP PUSH1 0x40 MLOAD RETURNDATASIZE PUSH1 0x1F NOT PUSH1 0x1F DUP3 ADD AND DUP3 ADD DUP1 PUSH1 0x40 MSTORE POP DUP2 ADD SWAP1 PUSH2 0x895 SWAP2 SWAP1 PUSH2 0xD5B JUMP JUMPDEST LT ISZERO PUSH2 0x8D6 JUMPI PUSH1 0x40 MLOAD PUSH32 0x8C379A000000000000000000000000000000000000000000000000000000000 DUP2 MSTORE PUSH1 0x4 ADD PUSH2 0x8CD SWAP1 PUSH2 0x12D5 JUMP JUMPDEST PUSH1 0x40 MLOAD DUP1 SWAP2 SUB SWAP1 REVERT JUMPDEST DUP4 DUP4 PUSH20 0xFFFFFFFFFFFFFFFFFFFFFFFFFFFFFFFFFFFFFFFF AND PUSH4 0x70A08231 CALLER PUSH1 0x40 MLOAD DUP3 PUSH4 0xFFFFFFFF AND PUSH1 0xE0 SHL DUP2 MSTORE PUSH1 0x4 ADD PUSH2 0x910 SWAP2 SWAP1 PUSH2 0xD2E JUMP JUMPDEST PUSH1 0x20 PUSH1 0x40 MLOAD DUP1 DUP4 SUB DUP2 DUP7 GAS STATICCALL ISZERO DUP1 ISZERO PUSH2 0x92B JUMPI RETURNDATASIZE PUSH0 DUP1 RETURNDATACOPY RETURNDATASIZE PUSH0 REVERT JUMPDEST POP POP POP POP PUSH1 0x40 MLOAD RETURNDATASIZE PUSH1 0x1F NOT PUSH1 0x1F DUP3 ADD AND DUP3 ADD DUP1 PUSH1 0x40 MSTORE POP DUP2 ADD SWAP1 PUSH2 0x94F SWAP2 SWAP1 PUSH2 0xD5B JUMP JUMPDEST LT ISZERO PUSH2 0x990 JUMPI PUSH1 0x40 MLOAD PUSH32 0x8C379A000000000000000000000000000000000000000000000000000000000 DUP2 MSTORE PUSH1 0x4 ADD PUSH2 0x987 SWAP1 PUSH2 0x1363 JUMP JUMPDEST PUSH1 0x40 MLOAD DUP1 SWAP2 SUB SWAP1 REVERT JUMPDEST DUP3 PUSH20 0xFFFFFFFFFFFFFFFFFFFFFFFFFFFFFFFFFFFFFFFF AND PUSH4 0x23B872DD CALLER ADDRESS DUP8 PUSH1 0x40 MLOAD DUP5 PUSH4 0xFFFFFFFF AND PUSH1 0xE0 SHL DUP2 MSTORE PUSH1 0x4 ADD PUSH2 0x9CD SWAP4 SWAP3 SWAP2 SWAP1 PUSH2 0xDFE JUMP JUMPDEST PUSH1 0x20 PUSH1 0x40 MLOAD DUP1 DUP4 SUB DUP2 PUSH0 DUP8 GAS CALL ISZERO DUP1 ISZERO PUSH2 0x9E9 JUMPI RETURNDATASIZE PUSH0 DUP1 RETURNDATACOPY RETURNDATASIZE PUSH0 REVERT JUMPDEST POP POP POP POP PUSH1 0x40 MLOAD RETURNDATASIZE PUSH1 0x1F NOT PUSH1 0x1F DUP3 ADD AND DUP3 ADD DUP1 PUSH1 0x40 MSTORE POP DUP2 ADD SWAP1 PUSH2 0xA0D SWAP2 SWAP1 PUSH2 0xE68 JUMP JUMPDEST PUSH2 0xA4C JUMPI PUSH1 0x40 MLOAD PUSH32 0x8C379A000000000000000000000000000000000000000000000000000000000 DUP2 MSTORE PUSH1 0x4 ADD PUSH2 0xA43 SWAP1 PUSH2 0x13CB JUMP JUMPDEST PUSH1 0x40 MLOAD DUP1 SWAP2 SUB SWAP1 REVERT JUMPDEST DUP2 PUSH20 0xFFFFFFFFFFFFFFFFFFFFFFFFFFFFFFFFFFFFFFFF AND PUSH4 0xA9059CBB CALLER DUP4 DUP8 PUSH2 0xA75 SWAP2 SWAP1 PUSH2 0x1224 JUMP JUMPDEST PUSH1 0x40 MLOAD DUP4 PUSH4 0xFFFFFFFF AND PUSH1 0xE0 SHL DUP2 MSTORE PUSH1 0x4 ADD PUSH2 0xA92 SWAP3 SWAP2 SWAP1 PUSH2 0xFE9 JUMP JUMPDEST PUSH1 0x20 PUSH1 0x40 MLOAD DUP1 DUP4 SUB DUP2 PUSH0 DUP8 GAS CALL ISZERO DUP1 ISZERO PUSH2 0xAAE JUMPI RETURNDATASIZE PUSH0 DUP1 RETURNDATACOPY RETURNDATASIZE PUSH0 REVERT JUMPDEST POP POP POP POP PUSH1 0x40 MLOAD RETURNDATASIZE PUSH1 0x1F NOT PUSH1 0x1F DUP3 ADD AND DUP3 ADD DUP1 PUSH1 0x40 MSTORE POP DUP2 ADD SWAP1 PUSH2 0xAD2 SWAP2 SWAP1 PUSH2 0xE68 JUMP JUMPDEST PUSH2 0xB11 JUMPI PUSH1 0x40 MLOAD PUSH32 0x8C379A000000000000000000000000000000000000000000000000000000000 DUP2 MSTORE PUSH1 0x4 ADD PUSH2 0xB08 SWAP1 PUSH2 0x1433 JUMP JUMPDEST PUSH1 0x40 MLOAD DUP1 SWAP2 SUB SWAP1 REVERT JUMPDEST POP POP POP POP POP POP JUMP JUMPDEST PUSH0 DUP1 PUSH0 DUP5 PUSH20 0xFFFFFFFFFFFFFFFFFFFFFFFFFFFFFFFFFFFFFFFF AND PUSH20 0xFFFFFFFFFFFFFFFFFFFFFFFFFFFFFFFFFFFFFFFF AND DUP2 MSTORE PUSH1 0x20 ADD SWAP1 DUP2 MSTORE PUSH1 0x20 ADD PUSH0 KECCAK256 PUSH0 DUP4 PUSH20 0xFFFFFFFFFFFFFFFFFFFFFFFFFFFFFFFFFFFFFFFF AND PUSH20 0xFFFFFFFFFFFFFFFFFFFFFFFFFFFFFFFFFFFFFFFF AND DUP2 MSTORE PUSH1 0x20 ADD SWAP1 DUP2 MSTORE PUSH1 0x20 ADD PUSH0 KECCAK256 SLOAD SWAP1 POP SWAP3 SWAP2 POP POP JUMP JUMPDEST PUSH0 DUP1 REVERT JUMPDEST PUSH0 PUSH20 0xFFFFFFFFFFFFFFFFFFFFFFFFFFFFFFFFFFFFFFFF DUP3 AND SWAP1 POP SWAP2 SWAP1 POP JUMP JUMPDEST PUSH0 PUSH2 0xBC7 DUP3 PUSH2 0xB9E JUMP JUMPDEST SWAP1 POP SWAP2 SWAP1 POP JUMP JUMPDEST PUSH2 0xBD7 DUP2 PUSH2 0xBBD JUMP JUMPDEST DUP2 EQ PUSH2 0xBE1 JUMPI PUSH0 DUP1 REVERT JUMPDEST POP JUMP JUMPDEST PUSH0 DUP2 CALLDATALOAD SWAP1 POP PUSH2 0xBF2 DUP2 PUSH2 0xBCE JUMP JUMPDEST SWAP3 SWAP2 POP POP JUMP JUMPDEST PUSH0 DUP2 SWAP1 POP SWAP2 SWAP1 POP JUMP JUMPDEST PUSH2 0xC0A DUP2 PUSH2 0xBF8 JUMP JUMPDEST DUP2 EQ PUSH2 0xC14 JUMPI PUSH0 DUP1 REVERT JUMPDEST POP JUMP JUMPDEST PUSH0 DUP2 CALLDATALOAD SWAP1 POP PUSH2 0xC25 DUP2 PUSH2 0xC01 JUMP JUMPDEST SWAP3 SWAP2 POP POP JUMP JUMPDEST PUSH0 DUP1 PUSH1 0x40 DUP4 DUP6 SUB SLT ISZERO PUSH2 0xC41 JUMPI PUSH2 0xC40 PUSH2 0xB9A JUMP JUMPDEST JUMPDEST PUSH0 PUSH2 0xC4E DUP6 DUP3 DUP7 ADD PUSH2 0xBE4 JUMP JUMPDEST SWAP3 POP POP PUSH1 0x20 PUSH2 0xC5F DUP6 DUP3 DUP7 ADD PUSH2 0xC17 JUMP JUMPDEST SWAP2 POP POP SWAP3 POP SWAP3 SWAP1 POP JUMP JUMPDEST PUSH0 DUP1 PUSH1 0x40 DUP4 DUP6 SUB SLT ISZERO PUSH2 0xC7F JUMPI PUSH2 0xC7E PUSH2 0xB9A JUMP JUMPDEST JUMPDEST PUSH0 PUSH2 0xC8C DUP6 DUP3 DUP7 ADD PUSH2 0xBE4 JUMP JUMPDEST SWAP3 POP POP PUSH1 0x20 PUSH2 0xC9D DUP6 DUP3 DUP7 ADD PUSH2 0xBE4 JUMP JUMPDEST SWAP2 POP POP SWAP3 POP SWAP3 SWAP1 POP JUMP JUMPDEST PUSH2 0xCB0 DUP2 PUSH2 0xBF8 JUMP JUMPDEST DUP3 MSTORE POP POP JUMP JUMPDEST PUSH0 PUSH1 0x20 DUP3 ADD SWAP1 POP PUSH2 0xCC9 PUSH0 DUP4 ADD DUP5 PUSH2 0xCA7 JUMP JUMPDEST SWAP3 SWAP2 POP POP JUMP JUMPDEST PUSH0 DUP1 PUSH0 PUSH1 0x60 DUP5 DUP7 SUB SLT ISZERO PUSH2 0xCE6 JUMPI PUSH2 0xCE5 PUSH2 0xB9A JUMP JUMPDEST JUMPDEST PUSH0 PUSH2 0xCF3 DUP7 DUP3 DUP8 ADD PUSH2 0xBE4 JUMP JUMPDEST SWAP4 POP POP PUSH1 0x20 PUSH2 0xD04 DUP7 DUP3 DUP8 ADD PUSH2 0xBE4 JUMP JUMPDEST SWAP3 POP POP PUSH1 0x40 PUSH2 0xD15 DUP7 DUP3 DUP8 ADD PUSH2 0xC17 JUMP JUMPDEST SWAP2 POP POP SWAP3 POP SWAP3 POP SWAP3 JUMP JUMPDEST PUSH2 0xD28 DUP2 PUSH2 0xBBD JUMP JUMPDEST DUP3 MSTORE POP POP JUMP JUMPDEST PUSH0 PUSH1 0x20 DUP3 ADD SWAP1 POP PUSH2 0xD41 PUSH0 DUP4 ADD DUP5 PUSH2 0xD1F JUMP JUMPDEST SWAP3 SWAP2 POP POP JUMP JUMPDEST PUSH0 DUP2 MLOAD SWAP1 POP PUSH2 0xD55 DUP2 PUSH2 0xC01 JUMP JUMPDEST SWAP3 SWAP2 POP POP JUMP JUMPDEST PUSH0 PUSH1 0x20 DUP3 DUP5 SUB SLT ISZERO PUSH2 0xD70 JUMPI PUSH2 0xD6F PUSH2 0xB9A JUMP JUMPDEST JUMPDEST PUSH0 PUSH2 0xD7D DUP5 DUP3 DUP6 ADD PUSH2 0xD47 JUMP JUMPDEST SWAP2 POP POP SWAP3 SWAP2 POP POP JUMP JUMPDEST PUSH0 DUP3 DUP3 MSTORE PUSH1 0x20 DUP3 ADD SWAP1 POP SWAP3 SWAP2 POP POP JUMP JUMPDEST PUSH32 0x496E73756666696369656E742062616C616E6365730000000000000000000000 PUSH0 DUP3 ADD MSTORE POP JUMP JUMPDEST PUSH0 PUSH2 0xDCA PUSH1 0x15 DUP4 PUSH2 0xD86 JUMP JUMPDEST SWAP2 POP PUSH2 0xDD5 DUP3 PUSH2 0xD96 JUMP JUMPDEST PUSH1 0x20 DUP3 ADD SWAP1 POP SWAP2 SWAP1 POP JUMP JUMPDEST PUSH0 PUSH1 0x20 DUP3 ADD SWAP1 POP DUP2 DUP2 SUB PUSH0 DUP4 ADD MSTORE PUSH2 0xDF7 DUP2 PUSH2 0xDBE JUMP JUMPDEST SWAP1 POP SWAP2 SWAP1 POP JUMP JUMPDEST PUSH0 PUSH1 0x60 DUP3 ADD SWAP1 POP PUSH2 0xE11 PUSH0 DUP4 ADD DUP7 PUSH2 0xD1F JUMP JUMPDEST PUSH2 0xE1E PUSH1 0x20 DUP4 ADD DUP6 PUSH2 0xD1F JUMP JUMPDEST PUSH2 0xE2B PUSH1 0x40 DUP4 ADD DUP5 PUSH2 0xCA7 JUMP JUMPDEST SWAP5 SWAP4 POP POP POP POP JUMP JUMPDEST PUSH0 DUP2 ISZERO ISZERO SWAP1 POP SWAP2 SWAP1 POP JUMP JUMPDEST PUSH2 0xE47 DUP2 PUSH2 0xE33 JUMP JUMPDEST DUP2 EQ PUSH2 0xE51 JUMPI PUSH0 DUP1 REVERT JUMPDEST POP JUMP JUMPDEST PUSH0 DUP2 MLOAD SWAP1 POP PUSH2 0xE62 DUP2 PUSH2 0xE3E JUMP JUMPDEST SWAP3 SWAP2 POP POP JUMP JUMPDEST PUSH0 PUSH1 0x20 DUP3 DUP5 SUB SLT ISZERO PUSH2 0xE7D JUMPI PUSH2 0xE7C PUSH2 0xB9A JUMP JUMPDEST JUMPDEST PUSH0 PUSH2 0xE8A DUP5 DUP3 DUP6 ADD PUSH2 0xE54 JUMP JUMPDEST SWAP2 POP POP SWAP3 SWAP2 POP POP JUMP JUMPDEST PUSH32 0x4465706F73697420746F6B656E73206661696C65640000000000000000000000 PUSH0 DUP3 ADD MSTORE POP JUMP JUMPDEST PUSH0 PUSH2 0xEC7 PUSH1 0x15 DUP4 PUSH2 0xD86 JUMP JUMPDEST SWAP2 POP PUSH2 0xED2 DUP3 PUSH2 0xE93 JUMP JUMPDEST PUSH1 0x20 DUP3 ADD SWAP1 POP SWAP2 SWAP1 POP JUMP JUMPDEST PUSH0 PUSH1 0x20 DUP3 ADD SWAP1 POP DUP2 DUP2 SUB PUSH0 DUP4 ADD MSTORE PUSH2 0xEF4 DUP2 PUSH2 0xEBB JUMP JUMPDEST SWAP1 POP SWAP2 SWAP1 POP JUMP JUMPDEST PUSH32 0x4E487B7100000000000000000000000000000000000000000000000000000000 PUSH0 MSTORE PUSH1 0x11 PUSH1 0x4 MSTORE PUSH1 0x24 PUSH0 REVERT JUMPDEST PUSH0 PUSH2 0xF32 DUP3 PUSH2 0xBF8 JUMP JUMPDEST SWAP2 POP PUSH2 0xF3D DUP4 PUSH2 0xBF8 JUMP JUMPDEST SWAP3 POP DUP3 DUP3 ADD SWAP1 POP DUP1 DUP3 GT ISZERO PUSH2 0xF55 JUMPI PUSH2 0xF54 PUSH2 0xEFB JUMP JUMPDEST JUMPDEST SWAP3 SWAP2 POP POP JUMP JUMPDEST PUSH32 0x496E73756666696369656E742062616C616E636520666F722077697468647261 PUSH0 DUP3 ADD MSTORE PUSH32 0x77616C0000000000000000000000000000000000000000000000000000000000 PUSH1 0x20 DUP3 ADD MSTORE POP JUMP JUMPDEST PUSH0 PUSH2 0xFB5 PUSH1 0x23 DUP4 PUSH2 0xD86 JUMP JUMPDEST SWAP2 POP PUSH2 0xFC0 DUP3 PUSH2 0xF5B JUMP JUMPDEST PUSH1 0x40 DUP3 ADD SWAP1 POP SWAP2 SWAP1 POP JUMP JUMPDEST PUSH0 PUSH1 0x20 DUP3 ADD SWAP1 POP DUP2 DUP2 SUB PUSH0 DUP4 ADD MSTORE PUSH2 0xFE2 DUP2 PUSH2 0xFA9 JUMP JUMPDEST SWAP1 POP SWAP2 SWAP1 POP JUMP JUMPDEST PUSH0 PUSH1 0x40 DUP3 ADD SWAP1 POP PUSH2 0xFFC PUSH0 DUP4 ADD DUP6 PUSH2 0xD1F JUMP JUMPDEST PUSH2 0x1009 PUSH1 0x20 DUP4 ADD DUP5 PUSH2 0xCA7 JUMP JUMPDEST SWAP4 SWAP3 POP POP POP JUMP JUMPDEST PUSH32 0x5769746472617720746F6B656E73206661696C65640000000000000000000000 PUSH0 DUP3 ADD MSTORE POP JUMP JUMPDEST PUSH0 PUSH2 0x1044 PUSH1 0x15 DUP4 PUSH2 0xD86 JUMP JUMPDEST SWAP2 POP PUSH2 0x104F DUP3 PUSH2 0x1010 JUMP JUMPDEST PUSH1 0x20 DUP3 ADD SWAP1 POP SWAP2 SWAP1 POP JUMP JUMPDEST PUSH0 PUSH1 0x20 DUP3 ADD SWAP1 POP DUP2 DUP2 SUB PUSH0 DUP4 ADD MSTORE PUSH2 0x1071 DUP2 PUSH2 0x1038 JUMP JUMPDEST SWAP1 POP SWAP2 SWAP1 POP JUMP JUMPDEST PUSH0 PUSH2 0x1082 DUP3 PUSH2 0xBF8 JUMP JUMPDEST SWAP2 POP PUSH2 0x108D DUP4 PUSH2 0xBF8 JUMP JUMPDEST SWAP3 POP DUP3 DUP3 SUB SWAP1 POP DUP2 DUP2 GT ISZERO PUSH2 0x10A5 JUMPI PUSH2 0x10A4 PUSH2 0xEFB JUMP JUMPDEST JUMPDEST SWAP3 SWAP2 POP POP JUMP JUMPDEST PUSH32 0x5468697320746F6B656E20646F6573206E6F74206578697374206F6E20746869 PUSH0 DUP3 ADD MSTORE PUSH32 0x7320706F6F6C0000000000000000000000000000000000000000000000000000 PUSH1 0x20 DUP3 ADD MSTORE POP JUMP JUMPDEST PUSH0 PUSH2 0x1105 PUSH1 0x26 DUP4 PUSH2 0xD86 JUMP JUMPDEST SWAP2 POP PUSH2 0x1110 DUP3 PUSH2 0x10AB JUMP JUMPDEST PUSH1 0x40 DUP3 ADD SWAP1 POP SWAP2 SWAP1 POP JUMP JUMPDEST PUSH0 PUSH1 0x20 DUP3 ADD SWAP1 POP DUP2 DUP2 SUB PUSH0 DUP4 ADD MSTORE PUSH2 0x1132 DUP2 PUSH2 0x10F9 JUMP JUMPDEST SWAP1 POP SWAP2 SWAP1 POP JUMP JUMPDEST PUSH32 0x7468697320746F6B656E20646F6573206E6F74206578697374206F6E20746869 PUSH0 DUP3 ADD MSTORE PUSH32 0x7320706F6F6C0000000000000000000000000000000000000000000000000000 PUSH1 0x20 DUP3 ADD MSTORE POP JUMP JUMPDEST PUSH0 PUSH2 0x1193 PUSH1 0x26 DUP4 PUSH2 0xD86 JUMP JUMPDEST SWAP2 POP PUSH2 0x119E DUP3 PUSH2 0x1139 JUMP JUMPDEST PUSH1 0x40 DUP3 ADD SWAP1 POP SWAP2 SWAP1 POP JUMP JUMPDEST PUSH0 PUSH1 0x20 DUP3 ADD SWAP1 POP DUP2 DUP2 SUB PUSH0 DUP4 ADD MSTORE PUSH2 0x11C0 DUP2 PUSH2 0x1187 JUMP JUMPDEST SWAP1 POP SWAP2 SWAP1 POP JUMP JUMPDEST PUSH32 0x4E487B7100000000000000000000000000000000000000000000000000000000 PUSH0 MSTORE PUSH1 0x12 PUSH1 0x4 MSTORE PUSH1 0x24 PUSH0 REVERT JUMPDEST PUSH0 PUSH2 0x11FE DUP3 PUSH2 0xBF8 JUMP JUMPDEST SWAP2 POP PUSH2 0x1209 DUP4 PUSH2 0xBF8 JUMP JUMPDEST SWAP3 POP DUP3 PUSH2 0x1219 JUMPI PUSH2 0x1218 PUSH2 0x11C7 JUMP JUMPDEST JUMPDEST DUP3 DUP3 DIV SWAP1 POP SWAP3 SWAP2 POP POP JUMP JUMPDEST PUSH0 PUSH2 0x122E DUP3 PUSH2 0xBF8 JUMP JUMPDEST SWAP2 POP PUSH2 0x1239 DUP4 PUSH2 0xBF8 JUMP JUMPDEST SWAP3 POP DUP3 DUP3 MUL PUSH2 0x1247 DUP2 PUSH2 0xBF8 JUMP JUMPDEST SWAP2 POP DUP3 DUP3 DIV DUP5 EQ DUP4 ISZERO OR PUSH2 0x125E JUMPI PUSH2 0x125D PUSH2 0xEFB JUMP JUMPDEST JUMPDEST POP SWAP3 SWAP2 POP POP JUMP JUMPDEST PUSH32 0x4E6F7420656E6F75676820746F6B656E206F6E2074686520636F6E7472616374 PUSH0 DUP3 ADD MSTORE PUSH32 0x20666F7220746865207472616E73616374696F6E000000000000000000000000 PUSH1 0x20 DUP3 ADD MSTORE POP JUMP JUMPDEST PUSH0 PUSH2 0x12BF PUSH1 0x34 DUP4 PUSH2 0xD86 JUMP JUMPDEST SWAP2 POP PUSH2 0x12CA DUP3 PUSH2 0x1265 JUMP JUMPDEST PUSH1 0x40 DUP3 ADD SWAP1 POP SWAP2 SWAP1 POP JUMP JUMPDEST PUSH0 PUSH1 0x20 DUP3 ADD SWAP1 POP DUP2 DUP2 SUB PUSH0 DUP4 ADD MSTORE PUSH2 0x12EC DUP2 PUSH2 0x12B3 JUMP JUMPDEST SWAP1 POP SWAP2 SWAP1 POP JUMP JUMPDEST PUSH32 0x5573657220646F6573206E6F74206861766520656E6F75676820666F72207468 PUSH0 DUP3 ADD MSTORE PUSH32 0x6973207472616E73616374696F6E000000000000000000000000000000000000 PUSH1 0x20 DUP3 ADD MSTORE POP JUMP JUMPDEST PUSH0 PUSH2 0x134D PUSH1 0x2E DUP4 PUSH2 0xD86 JUMP JUMPDEST SWAP2 POP PUSH2 0x1358 DUP3 PUSH2 0x12F3 JUMP JUMPDEST PUSH1 0x40 DUP3 ADD SWAP1 POP SWAP2 SWAP1 POP JUMP JUMPDEST PUSH0 PUSH1 0x20 DUP3 ADD SWAP1 POP DUP2 DUP2 SUB PUSH0 DUP4 ADD MSTORE PUSH2 0x137A DUP2 PUSH2 0x1341 JUMP JUMPDEST SWAP1 POP SWAP2 SWAP1 POP JUMP JUMPDEST PUSH32 0x43616E6E6F7420776974686472617720746F6B656E7300000000000000000000 PUSH0 DUP3 ADD MSTORE POP JUMP JUMPDEST PUSH0 PUSH2 0x13B5 PUSH1 0x16 DUP4 PUSH2 0xD86 JUMP JUMPDEST SWAP2 POP PUSH2 0x13C0 DUP3 PUSH2 0x1381 JUMP JUMPDEST PUSH1 0x20 DUP3 ADD SWAP1 POP SWAP2 SWAP1 POP JUMP JUMPDEST PUSH0 PUSH1 0x20 DUP3 ADD SWAP1 POP DUP2 DUP2 SUB PUSH0 DUP4 ADD MSTORE PUSH2 0x13E2 DUP2 PUSH2 0x13A9 JUMP JUMPDEST SWAP1 POP SWAP2 SWAP1 POP JUMP JUMPDEST PUSH32 0x43616E6E6F742073656E6420746F6B656E730000000000000000000000000000 PUSH0 DUP3 ADD MSTORE POP JUMP JUMPDEST PUSH0 PUSH2 0x141D PUSH1 0x12 DUP4 PUSH2 0xD86 JUMP JUMPDEST SWAP2 POP PUSH2 0x1428 DUP3 PUSH2 0x13E9 JUMP JUMPDEST PUSH1 0x20 DUP3 ADD SWAP1 POP SWAP2 SWAP1 POP JUMP JUMPDEST PUSH0 PUSH1 0x20 DUP3 ADD SWAP1 POP DUP2 DUP2 SUB PUSH0 DUP4 ADD MSTORE PUSH2 0x144A DUP2 PUSH2 0x1411 JUMP JUMPDEST SWAP1 POP SWAP2 SWAP1 POP JUMP INVALID LOG2 PUSH5 0x6970667358 0x22 SLT KECCAK256 EXTCODESIZE 0x4E CREATE 0xC6 EXP 0xCF 0xD5 DUP15 0xE9 CREATE2 0x5D MSTORE8 CREATE2 NUMBER 0xE6 PUSH16 0x52C41FF1B42AFCA499485CB3628F8F7C PUSH5 0x736F6C6343 STOP ADDMOD EQ STOP CALLER "
				},
				"gasEstimates": {
					"creation": {
						"codeDepositCost": "1051000",
						"executionCost": "1092",
						"totalCost": "1052092"
					},
					"external": {
						"balanceOf(address,address)": "infinite",
						"balances(address,address)": "infinite",
						"deposit(address,uint256)": "infinite",
						"swap(address,address,uint256)": "infinite",
						"swapRates(address,address)": "infinite",
						"withdrawal(address,uint256)": "infinite"
					}
				},
				"methodIdentifiers": {
					"balanceOf(address,address)": "f7888aec",
					"balances(address,address)": "c23f001f",
					"deposit(address,uint256)": "47e7ef24",
					"swap(address,address,uint256)": "df791e50",
					"swapRates(address,address)": "82ce2b57",
					"withdrawal(address,uint256)": "5a6b26ba"
				}
			},
			"storageLayout": {
				"storage": [
					{
						"astId": 130,
						"contract": "pool.sol:Pool",
						"label": "balances",
						"offset": 0,
						"slot": "0",
						"type": "t_mapping(t_address,t_mapping(t_address,t_uint256))"
					}
				],
				"types": {
					"t_address": {
						"encoding": "inplace",
						"label": "address",
						"numberOfBytes": "20"
					},
					"t_mapping(t_address,t_mapping(t_address,t_uint256))": {
						"encoding": "mapping",
						"key": "t_address",
						"label": "mapping(address => mapping(address => uint256))",
						"numberOfBytes": "32",
						"value": "t_mapping(t_address,t_uint256)"
					},
					"t_mapping(t_address,t_uint256)": {
						"encoding": "mapping",
						"key": "t_address",
						"label": "mapping(address => uint256)",
						"numberOfBytes": "32",
						"value": "t_uint256"
					},
					"t_uint256": {
						"encoding": "inplace",
						"label": "uint256",
						"numberOfBytes": "32"
					}
				}
			},
			"userdoc": {
				"kind": "user",
				"methods": {},
				"version": 1
			}
		}
	}
}